{
  "contractName": "Herencias",
  "abi": [
    {
      "inputs": [
        {
          "internalType": "address",
          "name": "_direccionPersonas",
          "type": "address"
        },
        {
          "internalType": "address",
          "name": "_direccionPropiedades",
          "type": "address"
        }
      ],
      "stateMutability": "nonpayable",
      "type": "constructor"
    },
    {
      "anonymous": false,
      "inputs": [
        {
          "indexed": false,
          "internalType": "uint256",
          "name": "idPropiedad",
          "type": "uint256"
        },
        {
          "indexed": false,
          "internalType": "string",
          "name": "ciDueno",
          "type": "string"
        },
        {
          "indexed": false,
          "internalType": "string[]",
          "name": "herederos",
          "type": "string[]"
        }
      ],
      "name": "HerenciaDefinida",
      "type": "event"
    },
    {
      "anonymous": false,
      "inputs": [
        {
          "indexed": false,
          "internalType": "uint256",
          "name": "idPropiedad",
          "type": "uint256"
        },
        {
          "indexed": false,
          "internalType": "string",
          "name": "ciAnterior",
          "type": "string"
        },
        {
          "indexed": false,
          "internalType": "string",
          "name": "ciNuevo",
          "type": "string"
        }
      ],
      "name": "HerenciaEjecutada",
      "type": "event"
    },
    {
      "inputs": [
        {
          "internalType": "uint256",
          "name": "",
          "type": "uint256"
        },
        {
          "internalType": "uint256",
          "name": "",
          "type": "uint256"
        }
      ],
      "name": "ciConParticipacion",
      "outputs": [
        {
          "internalType": "string",
          "name": "",
          "type": "string"
        }
      ],
      "stateMutability": "view",
      "type": "function",
      "constant": true
    },
    {
      "inputs": [
        {
          "internalType": "uint256",
          "name": "",
          "type": "uint256"
        },
        {
          "internalType": "uint256",
          "name": "",
          "type": "uint256"
        }
      ],
      "name": "herenciaPorPropiedad",
      "outputs": [
        {
          "internalType": "string",
          "name": "ciHeredero",
          "type": "string"
        },
        {
          "internalType": "uint256",
          "name": "porcentaje",
          "type": "uint256"
        }
      ],
      "stateMutability": "view",
      "type": "function",
      "constant": true
    },
    {
      "inputs": [
        {
          "internalType": "uint256",
          "name": "",
          "type": "uint256"
        },
        {
          "internalType": "string",
          "name": "",
          "type": "string"
        }
      ],
      "name": "participacionesPorPropiedad",
      "outputs": [
        {
          "internalType": "uint256",
          "name": "",
          "type": "uint256"
        }
      ],
      "stateMutability": "view",
      "type": "function",
      "constant": true
    },
    {
      "inputs": [],
      "name": "registroCivil",
      "outputs": [
        {
          "internalType": "contract IPersonas",
          "name": "",
          "type": "address"
        }
      ],
      "stateMutability": "view",
      "type": "function",
      "constant": true
    },
    {
      "inputs": [],
      "name": "registroPropiedades",
      "outputs": [
        {
          "internalType": "contract Propiedades",
          "name": "",
          "type": "address"
        }
      ],
      "stateMutability": "view",
      "type": "function",
      "constant": true
    },
    {
      "inputs": [
        {
          "internalType": "uint256",
          "name": "_idPropiedad",
          "type": "uint256"
        },
        {
          "internalType": "string[]",
          "name": "_ciHerederos",
          "type": "string[]"
        },
        {
          "internalType": "uint256[]",
          "name": "_porcentajes",
          "type": "uint256[]"
        }
      ],
      "name": "definirHerencia",
      "outputs": [],
      "stateMutability": "nonpayable",
      "type": "function"
    },
    {
      "inputs": [
        {
          "internalType": "uint256",
          "name": "_idPropiedad",
          "type": "uint256"
        },
        {
          "internalType": "string",
          "name": "_ciNuevoDueno",
          "type": "string"
        }
      ],
      "name": "ejecutarHerencia",
      "outputs": [],
      "stateMutability": "nonpayable",
      "type": "function"
    },
    {
      "inputs": [
        {
          "internalType": "uint256",
          "name": "_idPropiedad",
          "type": "uint256"
        }
      ],
      "name": "obtenerHerencia",
      "outputs": [
        {
          "components": [
            {
              "internalType": "string",
              "name": "ciHeredero",
              "type": "string"
            },
            {
              "internalType": "uint256",
              "name": "porcentaje",
              "type": "uint256"
            }
          ],
          "internalType": "struct Herencias.Distribucion[]",
          "name": "",
          "type": "tuple[]"
        }
      ],
      "stateMutability": "view",
      "type": "function",
      "constant": true
    },
    {
      "inputs": [
        {
          "internalType": "uint256",
          "name": "_idPropiedad",
          "type": "uint256"
        },
        {
          "internalType": "string",
          "name": "_ci",
          "type": "string"
        }
      ],
      "name": "obtenerParticipacion",
      "outputs": [
        {
          "internalType": "uint256",
          "name": "",
          "type": "uint256"
        }
      ],
      "stateMutability": "view",
      "type": "function",
      "constant": true
    },
    {
      "inputs": [
        {
          "internalType": "uint256",
          "name": "_idPropiedad",
          "type": "uint256"
        }
      ],
      "name": "obtenerCiConParticipacion",
      "outputs": [
        {
          "internalType": "string[]",
          "name": "",
          "type": "string[]"
        }
      ],
      "stateMutability": "view",
      "type": "function",
      "constant": true
    }
  ],
  "bytecode": "0x60806040523480156200001157600080fd5b50604051620014f4380380620014f483398101604081905262000034916200015c565b6001600160a01b038216620000a15760405162461bcd60e51b815260206004820152602860248201527f446972656363696f6e2064656c20636f6e747261746f20506572736f6e617320604482015267696e76616c69646160c01b60648201526084015b60405180910390fd5b6001600160a01b0381166200010d5760405162461bcd60e51b815260206004820152602b60248201527f446972656363696f6e2064656c20636f6e747261746f2050726f70696564616460448201526a657320696e76616c69646160a81b606482015260840162000098565b600080546001600160a01b039384166001600160a01b0319918216179091556001805492909316911617905562000194565b80516001600160a01b03811681146200015757600080fd5b919050565b600080604083850312156200017057600080fd5b6200017b836200013f565b91506200018b602084016200013f565b90509250929050565b61135080620001a46000396000f3fe608060405234801561001057600080fd5b506004361061009e5760003560e01c806387abeb0f1161006657806387abeb0f14610165578063b064cfb214610178578063b35a95ce1461018b578063dde95fea146101ab578063fa763a72146101cc57600080fd5b806316edda63146100a357806316fc236f146100f257806339ec005a146101075780635c3ed7d814610127578063794100af14610152575b600080fd5b6100df6100b1366004610c59565b6003602090815260009283526040909220815180830184018051928152908401929093019190912091525481565b6040519081526020015b60405180910390f35b610105610100366004610d2a565b6101ec565b005b61011a610115366004610e09565b610584565b6040516100e99190610e7b565b60005461013a906001600160a01b031681565b6040516001600160a01b0390911681526020016100e9565b610105610160366004610c59565b61063d565b6100df610173366004610c59565b6107ae565b60015461013a906001600160a01b031681565b61019e610199366004610e95565b6107e2565b6040516100e99190610f03565b6101be6101b9366004610e09565b6108ce565b6040516100e9929190610f16565b6101df6101da366004610e95565b610997565b6040516100e99190610f38565b6001546040516347b0d45b60e11b8152600481018590526000916001600160a01b031690638f61a8b690602401600060405180830381865afa158015610236573d6000803e3d6000fd5b505050506040513d6000823e601f3d908101601f1916820160405261025e9190810190611027565b905080606001516001600160a01b0316336001600160a01b0316146102e15760405162461bcd60e51b815260206004820152602e60248201527f536f6c6f20656c206475656e6f2061637475616c20707565646520646566696e60448201526d6972206c6120686572656e63696160901b60648201526084015b60405180910390fd5b81518351146103295760405162461bcd60e51b81526020600482015260146024820152734461746f7320696e636f6e73697374656e74657360601b60448201526064016102d8565b600084815260026020526040812061034091610a9a565b600084815260046020526040812061035791610abe565b6000805b84518110156104e157600260008781526020019081526020016000206040518060400160405280878481518110610394576103946110e4565b602002602001015181526020018684815181106103b3576103b36110e4565b60209081029190910181015190915282546001810184556000938452922081519192600202019081906103e69082611183565b50602082015181600101555050838181518110610405576104056110e4565b602002602001015160036000888152602001908152602001600020868381518110610432576104326110e4565b60200260200101516040516104479190611243565b9081526020016040518091039020819055506004600087815260200190815260200160002085828151811061047e5761047e6110e4565b602090810291909101810151825460018101845560009384529190922001906104a79082611183565b508381815181106104ba576104ba6110e4565b6020026020010151826104cd9190611275565b9150806104d981611288565b91505061035b565b508060641461053e5760405162461bcd60e51b815260206004820152602360248201527f4c612073756d6120646520706f7263656e74616a65732064656265207365722060448201526203130360ec1b60648201526084016102d8565b7f107701ac85b39c63ac048f394588590b6516d13b21e38ea2a31297ef359e6c8f85836040015186604051610575939291906112a1565b60405180910390a15050505050565b600460205281600052604060002081815481106105a057600080fd5b906000526020600020016000915091505080546105bc906110fa565b80601f01602080910402602001604051908101604052809291908181526020018280546105e8906110fa565b80156106355780601f1061060a57610100808354040283529160200191610635565b820191906000526020600020905b81548152906001019060200180831161061857829003601f168201915b505050505081565b6001546040516347b0d45b60e11b8152600481018490526000916001600160a01b031690638f61a8b690602401600060405180830381865afa158015610687573d6000803e3d6000fd5b505050506040513d6000823e601f3d908101601f191682016040526106af9190810190611027565b6000848152600260205260409020549091506107045760405162461bcd60e51b8152602060048201526014602482015273486572656e636961206e6f20646566696e69646160601b60448201526064016102d8565b6040808201516001549151631c7db66b60e11b815290916001600160a01b0316906338fb6cd69061073b90879087906004016112d6565b600060405180830381600087803b15801561075557600080fd5b505af1158015610769573d6000803e3d6000fd5b505050507f24f984b95918a02054df0d5e9dec57db6217a384560b1bf2f875159e33adf1518482856040516107a0939291906112ef565b60405180910390a150505050565b60008281526003602052604080822090516107ca908490611243565b90815260200160405180910390205490505b92915050565b606060046000838152602001908152602001600020805480602002602001604051908101604052809291908181526020016000905b828210156108c3578382906000526020600020018054610836906110fa565b80601f0160208091040260200160405190810160405280929190818152602001828054610862906110fa565b80156108af5780601f10610884576101008083540402835291602001916108af565b820191906000526020600020905b81548152906001019060200180831161089257829003601f168201915b505050505081526020019060010190610817565b505050509050919050565b600260205281600052604060002081815481106108ea57600080fd5b90600052602060002090600202016000915091505080600001805461090e906110fa565b80601f016020809104026020016040519081016040528092919081815260200182805461093a906110fa565b80156109875780601f1061095c57610100808354040283529160200191610987565b820191906000526020600020905b81548152906001019060200180831161096a57829003601f168201915b5050505050908060010154905082565b606060026000838152602001908152602001600020805480602002602001604051908101604052809291908181526020016000905b828210156108c357838290600052602060002090600202016040518060400160405290816000820180546109ff906110fa565b80601f0160208091040260200160405190810160405280929190818152602001828054610a2b906110fa565b8015610a785780601f10610a4d57610100808354040283529160200191610a78565b820191906000526020600020905b815481529060010190602001808311610a5b57829003601f168201915b50505050508152602001600182015481525050815260200190600101906109cc565b5080546000825560020290600052602060002090810190610abb9190610adc565b50565b5080546000825590600052602060002090810190610abb9190610b04565b80821115610b00576000610af08282610b21565b5060006001820155600201610adc565b5090565b80821115610b00576000610b188282610b21565b50600101610b04565b508054610b2d906110fa565b6000825580601f10610b3d575050565b601f016020900490600052602060002090810190610abb91905b80821115610b005760008155600101610b57565b634e487b7160e01b600052604160045260246000fd5b60405160a0810167ffffffffffffffff81118282101715610ba457610ba4610b6b565b60405290565b604051601f8201601f1916810167ffffffffffffffff81118282101715610bd357610bd3610b6b565b604052919050565b600067ffffffffffffffff821115610bf557610bf5610b6b565b50601f01601f191660200190565b600082601f830112610c1457600080fd5b8135610c27610c2282610bdb565b610baa565b818152846020838601011115610c3c57600080fd5b816020850160208301376000918101602001919091529392505050565b60008060408385031215610c6c57600080fd5b82359150602083013567ffffffffffffffff811115610c8a57600080fd5b610c9685828601610c03565b9150509250929050565b600067ffffffffffffffff821115610cba57610cba610b6b565b5060051b60200190565b600082601f830112610cd557600080fd5b81356020610ce5610c2283610ca0565b82815260059290921b84018101918181019086841115610d0457600080fd5b8286015b84811015610d1f5780358352918301918301610d08565b509695505050505050565b600080600060608486031215610d3f57600080fd5b8335925060208085013567ffffffffffffffff80821115610d5f57600080fd5b818701915087601f830112610d7357600080fd5b8135610d81610c2282610ca0565b81815260059190911b8301840190848101908a831115610da057600080fd5b8585015b83811015610dd857803585811115610dbc5760008081fd5b610dca8d89838a0101610c03565b845250918601918601610da4565b50965050506040870135925080831115610df157600080fd5b5050610dff86828701610cc4565b9150509250925092565b60008060408385031215610e1c57600080fd5b50508035926020909101359150565b60005b83811015610e46578181015183820152602001610e2e565b50506000910152565b60008151808452610e67816020860160208601610e2b565b601f01601f19169290920160200192915050565b602081526000610e8e6020830184610e4f565b9392505050565b600060208284031215610ea757600080fd5b5035919050565b600081518084526020808501808196508360051b8101915082860160005b85811015610ef6578284038952610ee4848351610e4f565b98850198935090840190600101610ecc565b5091979650505050505050565b602081526000610e8e6020830184610eae565b604081526000610f296040830185610e4f565b90508260208301529392505050565b60006020808301818452808551808352604092508286019150828160051b87010184880160005b83811015610fa057888303603f1901855281518051878552610f8388860182610e4f565b918901519489019490945294870194925090860190600101610f5f565b509098975050505050505050565b600082601f830112610fbf57600080fd5b8151610fcd610c2282610bdb565b818152846020838601011115610fe257600080fd5b610ff3826020830160208701610e2b565b949350505050565b80516001600160a01b038116811461101257600080fd5b919050565b8051801515811461101257600080fd5b60006020828403121561103957600080fd5b815167ffffffffffffffff8082111561105157600080fd5b9083019060a0828603121561106557600080fd5b61106d610b81565b8251815260208301518281111561108357600080fd5b61108f87828601610fae565b6020830152506040830151828111156110a757600080fd5b6110b387828601610fae565b6040830152506110c560608401610ffb565b60608201526110d660808401611017565b608082015295945050505050565b634e487b7160e01b600052603260045260246000fd5b600181811c9082168061110e57607f821691505b60208210810361112e57634e487b7160e01b600052602260045260246000fd5b50919050565b601f82111561117e57600081815260208120601f850160051c8101602086101561115b5750805b601f850160051c820191505b8181101561117a57828155600101611167565b5050505b505050565b815167ffffffffffffffff81111561119d5761119d610b6b565b6111b1816111ab84546110fa565b84611134565b602080601f8311600181146111e657600084156111ce5750858301515b600019600386901b1c1916600185901b17855561117a565b600085815260208120601f198616915b82811015611215578886015182559484019460019091019084016111f6565b50858210156112335787850151600019600388901b60f8161c191681555b5050505050600190811b01905550565b60008251611255818460208701610e2b565b9190910192915050565b634e487b7160e01b600052601160045260246000fd5b808201808211156107dc576107dc61125f565b60006001820161129a5761129a61125f565b5060010190565b8381526060602082015260006112ba6060830185610e4f565b82810360408401526112cc8185610eae565b9695505050505050565b828152604060208201526000610ff36040830184610e4f565b8381526060602082015260006113086060830185610e4f565b82810360408401526112cc8185610e4f56fea2646970667358221220c3272d5211a3704be1e3abf31cb544e6b10514f3ec1a2f05219d063eee3c470664736f6c63430008130033",
  "immutableReferences": {},
  "source": "// SPDX-License-Identifier: MIT\r\npragma solidity ^0.8.19;\r\n\r\nimport \"./IPersonas.sol\";\r\nimport \"./Propiedades.sol\";\r\n\r\ncontract Herencias {\r\n    IPersonas public registroCivil;\r\n    Propiedades public registroPropiedades;\r\n\r\n    struct Distribucion {\r\n        string ciHeredero;\r\n        uint256 porcentaje;\r\n    }\r\n\r\n    mapping(uint256 => Distribucion[]) public herenciaPorPropiedad;\r\n    mapping(uint256 => mapping(string => uint256)) public participacionesPorPropiedad;\r\n    mapping(uint256 => string[]) public ciConParticipacion;\r\n\r\n    event HerenciaDefinida(uint256 idPropiedad, string ciDueno, string[] herederos);\r\n    event HerenciaEjecutada(uint256 idPropiedad, string ciAnterior, string ciNuevo);\r\n\r\n    constructor(address _direccionPersonas, address _direccionPropiedades) {\r\n        require(_direccionPersonas != address(0), \"Direccion del contrato Personas invalida\");\r\n        require(_direccionPropiedades != address(0), \"Direccion del contrato Propiedades invalida\");\r\n        registroCivil = IPersonas(_direccionPersonas);\r\n        registroPropiedades = Propiedades(_direccionPropiedades);\r\n    }\r\n\r\n    function definirHerencia(\r\n        uint256 _idPropiedad,\r\n        string[] memory _ciHerederos,\r\n        uint256[] memory _porcentajes\r\n    ) public {\r\n        Propiedades.Propiedad memory prop = registroPropiedades.obtenerPropiedad(_idPropiedad);\r\n        require(msg.sender == prop.walletDueno, \"Solo el dueno actual puede definir la herencia\");\r\n        require(_ciHerederos.length == _porcentajes.length, \"Datos inconsistentes\");\r\n\r\n        delete herenciaPorPropiedad[_idPropiedad];\r\n        delete ciConParticipacion[_idPropiedad];\r\n\r\n        uint256 total = 0;\r\n        for (uint256 i = 0; i < _ciHerederos.length; i++) {\r\n            herenciaPorPropiedad[_idPropiedad].push(Distribucion({\r\n                ciHeredero: _ciHerederos[i],\r\n                porcentaje: _porcentajes[i]\r\n            }));\r\n\r\n            participacionesPorPropiedad[_idPropiedad][_ciHerederos[i]] = _porcentajes[i];\r\n            ciConParticipacion[_idPropiedad].push(_ciHerederos[i]);\r\n\r\n            total += _porcentajes[i];\r\n        }\r\n\r\n        require(total == 100, \"La suma de porcentajes debe ser 100\");\r\n\r\n        emit HerenciaDefinida(_idPropiedad, prop.ciDueno, _ciHerederos);\r\n    }\r\n\r\n    function ejecutarHerencia(uint256 _idPropiedad, string memory _ciNuevoDueno) public {\r\n        Propiedades.Propiedad memory prop = registroPropiedades.obtenerPropiedad(_idPropiedad);\r\n        require(herenciaPorPropiedad[_idPropiedad].length > 0, \"Herencia no definida\");\r\n\r\n        string memory ciAnterior = prop.ciDueno;\r\n\r\n        registroPropiedades.transferirPropiedad(_idPropiedad, _ciNuevoDueno);\r\n\r\n        emit HerenciaEjecutada(_idPropiedad, ciAnterior, _ciNuevoDueno);\r\n    }\r\n\r\n    function obtenerHerencia(uint256 _idPropiedad) public view returns (Distribucion[] memory) {\r\n        return herenciaPorPropiedad[_idPropiedad];\r\n    }\r\n\r\n    function obtenerParticipacion(uint256 _idPropiedad, string memory _ci) public view returns (uint256) {\r\n        return participacionesPorPropiedad[_idPropiedad][_ci];\r\n    }\r\n\r\n    function obtenerCiConParticipacion(uint256 _idPropiedad) public view returns (string[] memory) {\r\n        return ciConParticipacion[_idPropiedad];\r\n    }\r\n}\r\n",
  "sourcePath": "C:\\Users\\Cesar\\Documents\\GitHub\\RegistroDeHerencia\\BlockChain\\RegistroDeHerencia\\contracts\\Herencia.sol",
  "compiler": {
    "name": "solc",
    "version": "0.8.19+commit.7dd6d404.Emscripten.clang"
  },
  "schemaVersion": "3.4.16",
  "updatedAt": "2025-12-17T14:58:33.895Z",
  "networkType": "ethereum",
  "devdoc": {
    "kind": "dev",
    "methods": {},
    "version": 1
  },
  "userdoc": {
    "kind": "user",
    "methods": {},
    "version": 1
  }
}