{
  "contractName": "Herencias",
  "abi": [
    {
      "inputs": [
        {
          "internalType": "address",
          "name": "_direccionPersonas",
          "type": "address"
        },
        {
          "internalType": "address",
          "name": "_direccionPropiedades",
          "type": "address"
        }
      ],
      "stateMutability": "nonpayable",
      "type": "constructor"
    },
    {
      "anonymous": false,
      "inputs": [
        {
          "indexed": false,
          "internalType": "uint256",
          "name": "idPropiedad",
          "type": "uint256"
        },
        {
          "indexed": false,
          "internalType": "string",
          "name": "ciDueno",
          "type": "string"
        },
        {
          "indexed": false,
          "internalType": "string[]",
          "name": "herederos",
          "type": "string[]"
        }
      ],
      "name": "HerenciaDefinida",
      "type": "event"
    },
    {
      "anonymous": false,
      "inputs": [
        {
          "indexed": false,
          "internalType": "uint256",
          "name": "idPropiedad",
          "type": "uint256"
        },
        {
          "indexed": false,
          "internalType": "string",
          "name": "ciAnterior",
          "type": "string"
        },
        {
          "indexed": false,
          "internalType": "string",
          "name": "ciNuevo",
          "type": "string"
        }
      ],
      "name": "HerenciaEjecutada",
      "type": "event"
    },
    {
      "inputs": [
        {
          "internalType": "uint256",
          "name": "",
          "type": "uint256"
        },
        {
          "internalType": "uint256",
          "name": "",
          "type": "uint256"
        }
      ],
      "name": "ciConParticipacion",
      "outputs": [
        {
          "internalType": "string",
          "name": "",
          "type": "string"
        }
      ],
      "stateMutability": "view",
      "type": "function",
      "constant": true
    },
    {
      "inputs": [
        {
          "internalType": "uint256",
          "name": "",
          "type": "uint256"
        },
        {
          "internalType": "uint256",
          "name": "",
          "type": "uint256"
        }
      ],
      "name": "herenciaPorPropiedad",
      "outputs": [
        {
          "internalType": "string",
          "name": "ciHeredero",
          "type": "string"
        },
        {
          "internalType": "uint256",
          "name": "porcentaje",
          "type": "uint256"
        }
      ],
      "stateMutability": "view",
      "type": "function",
      "constant": true
    },
    {
      "inputs": [
        {
          "internalType": "uint256",
          "name": "",
          "type": "uint256"
        },
        {
          "internalType": "string",
          "name": "",
          "type": "string"
        }
      ],
      "name": "participacionesPorPropiedad",
      "outputs": [
        {
          "internalType": "uint256",
          "name": "",
          "type": "uint256"
        }
      ],
      "stateMutability": "view",
      "type": "function",
      "constant": true
    },
    {
      "inputs": [],
      "name": "registroCivil",
      "outputs": [
        {
          "internalType": "contract IPersonas",
          "name": "",
          "type": "address"
        }
      ],
      "stateMutability": "view",
      "type": "function",
      "constant": true
    },
    {
      "inputs": [],
      "name": "registroPropiedades",
      "outputs": [
        {
          "internalType": "contract Propiedades",
          "name": "",
          "type": "address"
        }
      ],
      "stateMutability": "view",
      "type": "function",
      "constant": true
    },
    {
      "inputs": [
        {
          "internalType": "uint256",
          "name": "_idPropiedad",
          "type": "uint256"
        },
        {
          "internalType": "string",
          "name": "_ciDueno",
          "type": "string"
        },
        {
          "internalType": "string[]",
          "name": "_ciHerederos",
          "type": "string[]"
        },
        {
          "internalType": "uint256[]",
          "name": "_porcentajes",
          "type": "uint256[]"
        }
      ],
      "name": "definirHerencia",
      "outputs": [],
      "stateMutability": "nonpayable",
      "type": "function"
    },
    {
      "inputs": [
        {
          "internalType": "uint256",
          "name": "_idPropiedad",
          "type": "uint256"
        },
        {
          "internalType": "string",
          "name": "_ciNuevoDueno",
          "type": "string"
        }
      ],
      "name": "ejecutarHerencia",
      "outputs": [],
      "stateMutability": "nonpayable",
      "type": "function"
    },
    {
      "inputs": [
        {
          "internalType": "uint256",
          "name": "_idPropiedad",
          "type": "uint256"
        }
      ],
      "name": "obtenerHerencia",
      "outputs": [
        {
          "components": [
            {
              "internalType": "string",
              "name": "ciHeredero",
              "type": "string"
            },
            {
              "internalType": "uint256",
              "name": "porcentaje",
              "type": "uint256"
            }
          ],
          "internalType": "struct Herencias.Distribucion[]",
          "name": "",
          "type": "tuple[]"
        }
      ],
      "stateMutability": "view",
      "type": "function",
      "constant": true
    },
    {
      "inputs": [
        {
          "internalType": "uint256",
          "name": "_idPropiedad",
          "type": "uint256"
        },
        {
          "internalType": "string",
          "name": "_ci",
          "type": "string"
        }
      ],
      "name": "obtenerParticipacion",
      "outputs": [
        {
          "internalType": "uint256",
          "name": "",
          "type": "uint256"
        }
      ],
      "stateMutability": "view",
      "type": "function",
      "constant": true
    },
    {
      "inputs": [
        {
          "internalType": "uint256",
          "name": "_idPropiedad",
          "type": "uint256"
        }
      ],
      "name": "obtenerCiConParticipacion",
      "outputs": [
        {
          "internalType": "string[]",
          "name": "",
          "type": "string[]"
        }
      ],
      "stateMutability": "view",
      "type": "function",
      "constant": true
    }
  ],
  "bytecode": "0x60806040523480156200001157600080fd5b50604051620014ff380380620014ff83398101604081905262000034916200015c565b6001600160a01b038216620000a15760405162461bcd60e51b815260206004820152602860248201527f446972656363696f6e2064656c20636f6e747261746f20506572736f6e617320604482015267696e76616c69646160c01b60648201526084015b60405180910390fd5b6001600160a01b0381166200010d5760405162461bcd60e51b815260206004820152602b60248201527f446972656363696f6e2064656c20636f6e747261746f2050726f70696564616460448201526a657320696e76616c69646160a81b606482015260840162000098565b600080546001600160a01b039384166001600160a01b0319918216179091556001805492909316911617905562000194565b80516001600160a01b03811681146200015757600080fd5b919050565b600080604083850312156200017057600080fd5b6200017b836200013f565b91506200018b602084016200013f565b90509250929050565b61135b80620001a46000396000f3fe608060405234801561001057600080fd5b506004361061009e5760003560e01c806387abeb0f1161006657806387abeb0f14610165578063b064cfb214610178578063b35a95ce1461018b578063dde95fea146101ab578063fa763a72146101cc57600080fd5b806316edda63146100a35780631c19cca5146100f257806339ec005a146101075780635c3ed7d814610127578063794100af14610152575b600080fd5b6100df6100b1366004610c58565b6003602090815260009283526040909220815180830184018051928152908401929093019190912091525481565b6040519081526020015b60405180910390f35b610105610100366004610d29565b6101ec565b005b61011a610115366004610e2d565b610581565b6040516100e99190610e9f565b60005461013a906001600160a01b031681565b6040516001600160a01b0390911681526020016100e9565b610105610160366004610c58565b61063a565b6100df610173366004610c58565b6107ad565b60015461013a906001600160a01b031681565b61019e610199366004610eb9565b6107e1565b6040516100e99190610f27565b6101be6101b9366004610e2d565b6108cd565b6040516100e9929190610f3a565b6101df6101da366004610eb9565b610996565b6040516100e99190610f5c565b6001546040516347b0d45b60e11b8152600481018690526000916001600160a01b031690638f61a8b690602401600060405180830381865afa158015610236573d6000803e3d6000fd5b505050506040513d6000823e601f3d908101601f1916820160405261025e919081019061104b565b90508380519060200120816040015180519060200120146102dd5760405162461bcd60e51b815260206004820152602e60248201527f536f6c6f20656c206475656e6f2061637475616c20707565646520646566696e60448201526d6972206c6120686572656e63696160901b60648201526084015b60405180910390fd5b81518351146103255760405162461bcd60e51b81526020600482015260146024820152734461746f7320696e636f6e73697374656e74657360601b60448201526064016102d4565b600085815260026020526040812061033c91610a99565b600085815260046020526040812061035391610abd565b6000805b84518110156104dd5760026000888152602001908152602001600020604051806040016040528087848151811061039057610390611108565b602002602001015181526020018684815181106103af576103af611108565b60209081029190910181015190915282546001810184556000938452922081519192600202019081906103e290826111a7565b5060208201518160010155505083818151811061040157610401611108565b60200260200101516003600089815260200190815260200160002086838151811061042e5761042e611108565b60200260200101516040516104439190611267565b9081526020016040518091039020819055506004600088815260200190815260200160002085828151811061047a5761047a611108565b602090810291909101810151825460018101845560009384529190922001906104a390826111a7565b508381815181106104b6576104b6611108565b6020026020010151826104c99190611299565b9150806104d5816112ac565b915050610357565b508060641461053a5760405162461bcd60e51b815260206004820152602360248201527f4c612073756d6120646520706f7263656e74616a65732064656265207365722060448201526203130360ec1b60648201526084016102d4565b7f107701ac85b39c63ac048f394588590b6516d13b21e38ea2a31297ef359e6c8f86836040015186604051610571939291906112c5565b60405180910390a1505050505050565b6004602052816000526040600020818154811061059d57600080fd5b906000526020600020016000915091505080546105b99061111e565b80601f01602080910402602001604051908101604052809291908181526020018280546105e59061111e565b80156106325780601f1061060757610100808354040283529160200191610632565b820191906000526020600020905b81548152906001019060200180831161061557829003601f168201915b505050505081565b6001546040516347b0d45b60e11b8152600481018490526000916001600160a01b031690638f61a8b690602401600060405180830381865afa158015610684573d6000803e3d6000fd5b505050506040513d6000823e601f3d908101601f191682016040526106ac919081019061104b565b6000848152600260205260409020549091506107015760405162461bcd60e51b8152602060048201526014602482015273486572656e636961206e6f20646566696e69646160601b60448201526064016102d4565b6040808201516001549151631683da0d60e11b815290916001600160a01b031690632d07b41a9061073a908790859088906004016112fa565b600060405180830381600087803b15801561075457600080fd5b505af1158015610768573d6000803e3d6000fd5b505050507f24f984b95918a02054df0d5e9dec57db6217a384560b1bf2f875159e33adf15184828560405161079f939291906112fa565b60405180910390a150505050565b60008281526003602052604080822090516107c9908490611267565b90815260200160405180910390205490505b92915050565b606060046000838152602001908152602001600020805480602002602001604051908101604052809291908181526020016000905b828210156108c25783829060005260206000200180546108359061111e565b80601f01602080910402602001604051908101604052809291908181526020018280546108619061111e565b80156108ae5780601f10610883576101008083540402835291602001916108ae565b820191906000526020600020905b81548152906001019060200180831161089157829003601f168201915b505050505081526020019060010190610816565b505050509050919050565b600260205281600052604060002081815481106108e957600080fd5b90600052602060002090600202016000915091505080600001805461090d9061111e565b80601f01602080910402602001604051908101604052809291908181526020018280546109399061111e565b80156109865780601f1061095b57610100808354040283529160200191610986565b820191906000526020600020905b81548152906001019060200180831161096957829003601f168201915b5050505050908060010154905082565b606060026000838152602001908152602001600020805480602002602001604051908101604052809291908181526020016000905b828210156108c257838290600052602060002090600202016040518060400160405290816000820180546109fe9061111e565b80601f0160208091040260200160405190810160405280929190818152602001828054610a2a9061111e565b8015610a775780601f10610a4c57610100808354040283529160200191610a77565b820191906000526020600020905b815481529060010190602001808311610a5a57829003601f168201915b50505050508152602001600182015481525050815260200190600101906109cb565b5080546000825560020290600052602060002090810190610aba9190610adb565b50565b5080546000825590600052602060002090810190610aba9190610b03565b80821115610aff576000610aef8282610b20565b5060006001820155600201610adb565b5090565b80821115610aff576000610b178282610b20565b50600101610b03565b508054610b2c9061111e565b6000825580601f10610b3c575050565b601f016020900490600052602060002090810190610aba91905b80821115610aff5760008155600101610b56565b634e487b7160e01b600052604160045260246000fd5b60405160a0810167ffffffffffffffff81118282101715610ba357610ba3610b6a565b60405290565b604051601f8201601f1916810167ffffffffffffffff81118282101715610bd257610bd2610b6a565b604052919050565b600067ffffffffffffffff821115610bf457610bf4610b6a565b50601f01601f191660200190565b600082601f830112610c1357600080fd5b8135610c26610c2182610bda565b610ba9565b818152846020838601011115610c3b57600080fd5b816020850160208301376000918101602001919091529392505050565b60008060408385031215610c6b57600080fd5b82359150602083013567ffffffffffffffff811115610c8957600080fd5b610c9585828601610c02565b9150509250929050565b600067ffffffffffffffff821115610cb957610cb9610b6a565b5060051b60200190565b600082601f830112610cd457600080fd5b81356020610ce4610c2183610c9f565b82815260059290921b84018101918181019086841115610d0357600080fd5b8286015b84811015610d1e5780358352918301918301610d07565b509695505050505050565b60008060008060808587031215610d3f57600080fd5b8435935060208086013567ffffffffffffffff80821115610d5f57600080fd5b610d6b89838a01610c02565b95506040880135915080821115610d8157600080fd5b818801915088601f830112610d9557600080fd5b8135610da3610c2182610c9f565b81815260059190911b8301840190848101908b831115610dc257600080fd5b8585015b83811015610dfa57803585811115610dde5760008081fd5b610dec8e89838a0101610c02565b845250918601918601610dc6565b50965050506060880135925080831115610e1357600080fd5b5050610e2187828801610cc3565b91505092959194509250565b60008060408385031215610e4057600080fd5b50508035926020909101359150565b60005b83811015610e6a578181015183820152602001610e52565b50506000910152565b60008151808452610e8b816020860160208601610e4f565b601f01601f19169290920160200192915050565b602081526000610eb26020830184610e73565b9392505050565b600060208284031215610ecb57600080fd5b5035919050565b600081518084526020808501808196508360051b8101915082860160005b85811015610f1a578284038952610f08848351610e73565b98850198935090840190600101610ef0565b5091979650505050505050565b602081526000610eb26020830184610ed2565b604081526000610f4d6040830185610e73565b90508260208301529392505050565b60006020808301818452808551808352604092508286019150828160051b87010184880160005b83811015610fc457888303603f1901855281518051878552610fa788860182610e73565b918901519489019490945294870194925090860190600101610f83565b509098975050505050505050565b600082601f830112610fe357600080fd5b8151610ff1610c2182610bda565b81815284602083860101111561100657600080fd5b611017826020830160208701610e4f565b949350505050565b80516001600160a01b038116811461103657600080fd5b919050565b8051801515811461103657600080fd5b60006020828403121561105d57600080fd5b815167ffffffffffffffff8082111561107557600080fd5b9083019060a0828603121561108957600080fd5b611091610b80565b825181526020830151828111156110a757600080fd5b6110b387828601610fd2565b6020830152506040830151828111156110cb57600080fd5b6110d787828601610fd2565b6040830152506110e96060840161101f565b60608201526110fa6080840161103b565b608082015295945050505050565b634e487b7160e01b600052603260045260246000fd5b600181811c9082168061113257607f821691505b60208210810361115257634e487b7160e01b600052602260045260246000fd5b50919050565b601f8211156111a257600081815260208120601f850160051c8101602086101561117f5750805b601f850160051c820191505b8181101561119e5782815560010161118b565b5050505b505050565b815167ffffffffffffffff8111156111c1576111c1610b6a565b6111d5816111cf845461111e565b84611158565b602080601f83116001811461120a57600084156111f25750858301515b600019600386901b1c1916600185901b17855561119e565b600085815260208120601f198616915b828110156112395788860151825594840194600190910190840161121a565b50858210156112575787850151600019600388901b60f8161c191681555b5050505050600190811b01905550565b60008251611279818460208701610e4f565b9190910192915050565b634e487b7160e01b600052601160045260246000fd5b808201808211156107db576107db611283565b6000600182016112be576112be611283565b5060010190565b8381526060602082015260006112de6060830185610e73565b82810360408401526112f08185610ed2565b9695505050505050565b8381526060602082015260006113136060830185610e73565b82810360408401526112f08185610e7356fea264697066735822122074e8e678b5202d57b6af4a23957c5bfc7bf2a8eadd94b9caccae2113315f509164736f6c63430008130033",
  "immutableReferences": {},
  "source": "// SPDX-License-Identifier: MIT\r\npragma solidity ^0.8.19;\r\n\r\nimport \"./IPersonas.sol\";\r\nimport \"./Propiedades.sol\";\r\n\r\ncontract Herencias {\r\n    IPersonas public registroCivil;\r\n    Propiedades public registroPropiedades;\r\n\r\n    struct Distribucion {\r\n        string ciHeredero;\r\n        uint256 porcentaje;\r\n    }\r\n\r\n    // Herencia definida por propiedad\r\n    mapping(uint256 => Distribucion[]) public herenciaPorPropiedad;\r\n\r\n    // Participaciones directas: propiedad  CI  porcentaje\r\n    mapping(uint256 => mapping(string => uint256)) public participacionesPorPropiedad;\r\n\r\n    // Listado de CIs con participacin en cada propiedad\r\n    mapping(uint256 => string[]) public ciConParticipacion;\r\n\r\n    // Eventos\r\n    event HerenciaDefinida(uint256 idPropiedad, string ciDueno, string[] herederos);\r\n    event HerenciaEjecutada(uint256 idPropiedad, string ciAnterior, string ciNuevo);\r\n\r\n    constructor(address _direccionPersonas, address _direccionPropiedades) {\r\n        require(_direccionPersonas != address(0), \"Direccion del contrato Personas invalida\");\r\n        require(_direccionPropiedades != address(0), \"Direccion del contrato Propiedades invalida\");\r\n        registroCivil = IPersonas(_direccionPersonas);\r\n        registroPropiedades = Propiedades(_direccionPropiedades);\r\n    }\r\n\r\n    // Definir herederos y porcentajes de distribucin sobre una propiedad existente\r\n    function definirHerencia(\r\n        uint256 _idPropiedad,\r\n        string memory _ciDueno,\r\n        string[] memory _ciHerederos,\r\n        uint256[] memory _porcentajes\r\n    ) public {\r\n        Propiedades.Propiedad memory prop = registroPropiedades.obtenerPropiedad(_idPropiedad);\r\n\r\n        //  Validacin por CI, no por wallet\r\n        require(\r\n            keccak256(bytes(prop.ciDueno)) == keccak256(bytes(_ciDueno)),\r\n            \"Solo el dueno actual puede definir la herencia\"\r\n        );\r\n        require(_ciHerederos.length == _porcentajes.length, \"Datos inconsistentes\");\r\n\r\n        delete herenciaPorPropiedad[_idPropiedad];\r\n        delete ciConParticipacion[_idPropiedad];\r\n\r\n        uint256 total = 0;\r\n        for (uint256 i = 0; i < _ciHerederos.length; i++) {\r\n            herenciaPorPropiedad[_idPropiedad].push(Distribucion({\r\n                ciHeredero: _ciHerederos[i],\r\n                porcentaje: _porcentajes[i]\r\n            }));\r\n\r\n            participacionesPorPropiedad[_idPropiedad][_ciHerederos[i]] = _porcentajes[i];\r\n            ciConParticipacion[_idPropiedad].push(_ciHerederos[i]);\r\n\r\n            total += _porcentajes[i];\r\n        }\r\n\r\n        require(total == 100, \"La suma de porcentajes debe ser 100\");\r\n\r\n        emit HerenciaDefinida(_idPropiedad, prop.ciDueno, _ciHerederos);\r\n    }\r\n\r\n    // Ejecutar herencia: transferir propiedad completa a un heredero principal\r\n    function ejecutarHerencia(uint256 _idPropiedad, string memory _ciNuevoDueno) public {\r\n        Propiedades.Propiedad memory prop = registroPropiedades.obtenerPropiedad(_idPropiedad);\r\n        require(herenciaPorPropiedad[_idPropiedad].length > 0, \"Herencia no definida\");\r\n\r\n        string memory ciAnterior = prop.ciDueno;\r\n\r\n        //  Ahora pasamos CI actual y CI nuevo\r\n        registroPropiedades.transferirPropiedad(_idPropiedad, ciAnterior, _ciNuevoDueno);\r\n\r\n        emit HerenciaEjecutada(_idPropiedad, ciAnterior, _ciNuevoDueno);\r\n    }\r\n\r\n    // Consultar toda la herencia de una propiedad\r\n    function obtenerHerencia(uint256 _idPropiedad) public view returns (Distribucion[] memory) {\r\n        return herenciaPorPropiedad[_idPropiedad];\r\n    }\r\n\r\n    // Consultar porcentaje de participacin de un CI en una propiedad\r\n    function obtenerParticipacion(uint256 _idPropiedad, string memory _ci) public view returns (uint256) {\r\n        return participacionesPorPropiedad[_idPropiedad][_ci];\r\n    }\r\n\r\n    // Consultar todas las CIs con participacin en una propiedad\r\n    function obtenerCiConParticipacion(uint256 _idPropiedad) public view returns (string[] memory) {\r\n        return ciConParticipacion[_idPropiedad];\r\n    }\r\n}\r\n",
  "sourcePath": "C:\\Users\\Usuario\\Desktop\\RegistroDeHerencia\\RegistroDeHerencia\\BlockChain\\RegistroDeHerencia\\contracts\\Herencia.sol",
  "compiler": {
    "name": "solc",
    "version": "0.8.19+commit.7dd6d404.Emscripten.clang"
  },
  "schemaVersion": "3.4.16",
  "updatedAt": "2025-12-18T02:26:30.991Z",
  "networkType": "ethereum",
  "devdoc": {
    "kind": "dev",
    "methods": {},
    "version": 1
  },
  "userdoc": {
    "kind": "user",
    "methods": {},
    "version": 1
  }
}