{
  "contractName": "Personas",
  "abi": [
    {
      "anonymous": false,
      "inputs": [
        {
          "indexed": false,
          "internalType": "uint256",
          "name": "id",
          "type": "uint256"
        },
        {
          "indexed": false,
          "internalType": "string",
          "name": "campo",
          "type": "string"
        }
      ],
      "name": "PersonaActualizada",
      "type": "event"
    },
    {
      "anonymous": false,
      "inputs": [
        {
          "indexed": false,
          "internalType": "uint256",
          "name": "id",
          "type": "uint256"
        },
        {
          "indexed": false,
          "internalType": "string",
          "name": "cedula",
          "type": "string"
        },
        {
          "indexed": false,
          "internalType": "address",
          "name": "wallet",
          "type": "address"
        }
      ],
      "name": "PersonaRegistrada",
      "type": "event"
    },
    {
      "inputs": [
        {
          "internalType": "string",
          "name": "_cedula",
          "type": "string"
        },
        {
          "internalType": "string",
          "name": "_nombres",
          "type": "string"
        },
        {
          "internalType": "string",
          "name": "_apellidos",
          "type": "string"
        },
        {
          "internalType": "address",
          "name": "_wallet",
          "type": "address"
        }
      ],
      "name": "registrarPersonaEsencial",
      "outputs": [],
      "stateMutability": "nonpayable",
      "type": "function"
    },
    {
      "inputs": [
        {
          "internalType": "uint256",
          "name": "_id",
          "type": "uint256"
        },
        {
          "internalType": "string",
          "name": "_nombres",
          "type": "string"
        },
        {
          "internalType": "string",
          "name": "_apellidos",
          "type": "string"
        },
        {
          "internalType": "enum Personas.Genero",
          "name": "_genero",
          "type": "uint8"
        },
        {
          "internalType": "uint256",
          "name": "_fechaNacimiento",
          "type": "uint256"
        },
        {
          "internalType": "string",
          "name": "_lugarNacimiento",
          "type": "string"
        },
        {
          "internalType": "string",
          "name": "_estadoCivil",
          "type": "string"
        },
        {
          "internalType": "string",
          "name": "_direccion",
          "type": "string"
        },
        {
          "internalType": "string",
          "name": "_telefono",
          "type": "string"
        },
        {
          "internalType": "string",
          "name": "_profesion",
          "type": "string"
        },
        {
          "internalType": "address",
          "name": "_wallet",
          "type": "address"
        }
      ],
      "name": "registrarPersona",
      "outputs": [],
      "stateMutability": "nonpayable",
      "type": "function"
    },
    {
      "inputs": [
        {
          "internalType": "string",
          "name": "_ci",
          "type": "string"
        }
      ],
      "name": "obtenerIdPorCi",
      "outputs": [
        {
          "internalType": "uint256",
          "name": "",
          "type": "uint256"
        }
      ],
      "stateMutability": "view",
      "type": "function",
      "constant": true
    },
    {
      "inputs": [
        {
          "internalType": "string",
          "name": "_cedula",
          "type": "string"
        }
      ],
      "name": "obtenerPersonaPorCI",
      "outputs": [
        {
          "components": [
            {
              "internalType": "uint256",
              "name": "id",
              "type": "uint256"
            },
            {
              "internalType": "string",
              "name": "nombres",
              "type": "string"
            },
            {
              "internalType": "string",
              "name": "apellidos",
              "type": "string"
            },
            {
              "internalType": "string",
              "name": "cedula",
              "type": "string"
            },
            {
              "internalType": "enum Personas.Genero",
              "name": "genero",
              "type": "uint8"
            },
            {
              "internalType": "uint256",
              "name": "fechaNacimiento",
              "type": "uint256"
            },
            {
              "internalType": "string",
              "name": "lugarNacimiento",
              "type": "string"
            },
            {
              "internalType": "string",
              "name": "estadoCivil",
              "type": "string"
            },
            {
              "internalType": "string",
              "name": "direccion",
              "type": "string"
            },
            {
              "internalType": "string",
              "name": "telefono",
              "type": "string"
            },
            {
              "internalType": "string",
              "name": "profesion",
              "type": "string"
            },
            {
              "internalType": "address",
              "name": "wallet",
              "type": "address"
            }
          ],
          "internalType": "struct Personas.Persona",
          "name": "",
          "type": "tuple"
        }
      ],
      "stateMutability": "view",
      "type": "function",
      "constant": true
    },
    {
      "inputs": [
        {
          "internalType": "uint256",
          "name": "_id",
          "type": "uint256"
        }
      ],
      "name": "obtenerPersonaPorId",
      "outputs": [
        {
          "components": [
            {
              "internalType": "uint256",
              "name": "id",
              "type": "uint256"
            },
            {
              "internalType": "string",
              "name": "nombres",
              "type": "string"
            },
            {
              "internalType": "string",
              "name": "apellidos",
              "type": "string"
            },
            {
              "internalType": "string",
              "name": "cedula",
              "type": "string"
            },
            {
              "internalType": "enum Personas.Genero",
              "name": "genero",
              "type": "uint8"
            },
            {
              "internalType": "uint256",
              "name": "fechaNacimiento",
              "type": "uint256"
            },
            {
              "internalType": "string",
              "name": "lugarNacimiento",
              "type": "string"
            },
            {
              "internalType": "string",
              "name": "estadoCivil",
              "type": "string"
            },
            {
              "internalType": "string",
              "name": "direccion",
              "type": "string"
            },
            {
              "internalType": "string",
              "name": "telefono",
              "type": "string"
            },
            {
              "internalType": "string",
              "name": "profesion",
              "type": "string"
            },
            {
              "internalType": "address",
              "name": "wallet",
              "type": "address"
            }
          ],
          "internalType": "struct Personas.Persona",
          "name": "",
          "type": "tuple"
        }
      ],
      "stateMutability": "view",
      "type": "function",
      "constant": true
    },
    {
      "inputs": [
        {
          "internalType": "uint256",
          "name": "_id",
          "type": "uint256"
        },
        {
          "internalType": "string",
          "name": "_telefono",
          "type": "string"
        }
      ],
      "name": "actualizarTelefono",
      "outputs": [],
      "stateMutability": "nonpayable",
      "type": "function"
    },
    {
      "inputs": [
        {
          "internalType": "uint256",
          "name": "_id",
          "type": "uint256"
        },
        {
          "internalType": "string",
          "name": "_direccion",
          "type": "string"
        }
      ],
      "name": "actualizarDireccion",
      "outputs": [],
      "stateMutability": "nonpayable",
      "type": "function"
    },
    {
      "inputs": [
        {
          "internalType": "uint256",
          "name": "_id",
          "type": "uint256"
        }
      ],
      "name": "obtenerIdentidad",
      "outputs": [
        {
          "internalType": "string",
          "name": "",
          "type": "string"
        },
        {
          "internalType": "address",
          "name": "",
          "type": "address"
        }
      ],
      "stateMutability": "view",
      "type": "function",
      "constant": true
    },
    {
      "inputs": [
        {
          "internalType": "string",
          "name": "_ci",
          "type": "string"
        }
      ],
      "name": "obtenerIdentidadPorCI",
      "outputs": [
        {
          "internalType": "string",
          "name": "",
          "type": "string"
        },
        {
          "internalType": "address",
          "name": "",
          "type": "address"
        }
      ],
      "stateMutability": "view",
      "type": "function",
      "constant": true
    },
    {
      "inputs": [],
      "name": "listarPersonas",
      "outputs": [
        {
          "components": [
            {
              "internalType": "uint256",
              "name": "id",
              "type": "uint256"
            },
            {
              "internalType": "string",
              "name": "nombres",
              "type": "string"
            },
            {
              "internalType": "string",
              "name": "apellidos",
              "type": "string"
            },
            {
              "internalType": "string",
              "name": "cedula",
              "type": "string"
            },
            {
              "internalType": "enum Personas.Genero",
              "name": "genero",
              "type": "uint8"
            },
            {
              "internalType": "uint256",
              "name": "fechaNacimiento",
              "type": "uint256"
            },
            {
              "internalType": "string",
              "name": "lugarNacimiento",
              "type": "string"
            },
            {
              "internalType": "string",
              "name": "estadoCivil",
              "type": "string"
            },
            {
              "internalType": "string",
              "name": "direccion",
              "type": "string"
            },
            {
              "internalType": "string",
              "name": "telefono",
              "type": "string"
            },
            {
              "internalType": "string",
              "name": "profesion",
              "type": "string"
            },
            {
              "internalType": "address",
              "name": "wallet",
              "type": "address"
            }
          ],
          "internalType": "struct Personas.Persona[]",
          "name": "",
          "type": "tuple[]"
        }
      ],
      "stateMutability": "view",
      "type": "function",
      "constant": true
    },
    {
      "inputs": [],
      "name": "totalPersonas",
      "outputs": [
        {
          "internalType": "uint256",
          "name": "",
          "type": "uint256"
        }
      ],
      "stateMutability": "view",
      "type": "function",
      "constant": true
    }
  ],
  "bytecode": "0x6080604052600160005534801561001557600080fd5b506128a7806100256000396000f3fe608060405234801561001057600080fd5b50600436106100a95760003560e01c806393976d9c1161007157806393976d9c1461012a578063b9957ccd1461013d578063d4ccd10914610150578063df2740be14610163578063faabff5b14610176578063fba82d1d1461019757600080fd5b80633021f93e146100ae578063399a2b7a146100cc5780634bc7d1fa146100e257806375a6bc53146101025780638aa64c5e14610117575b600080fd5b6100b66101aa565b6040516100c39190612278565b60405180910390f35b6100d4610774565b6040519081526020016100c3565b6100f56100f03660046122da565b61078a565b6040516100c391906122f3565b6101156101103660046123b0565b610cd2565b005b6100d46101253660046123f7565b610d79565b610115610138366004612450565b610ddb565b61011561014b3660046124f8565b6110c2565b6100f561015e3660046123f7565b6113d4565b6101156101713660046123b0565b61195d565b6101896101843660046123f7565b6119f7565b6040516100c3929190612655565b6101896101a53660046122da565b611f74565b60035460609060009067ffffffffffffffff8111156101cb576101cb61230d565b60405190808252806020026020018201604052801561020457816020015b6101f161205e565b8152602001906001900390816101e95790505b50905060005b60035481101561076e57600160006003838154811061022b5761022b61267f565b90600052602060002001548152602001908152602001600020604051806101800160405290816000820154815260200160018201805461026a90612695565b80601f016020809104026020016040519081016040528092919081815260200182805461029690612695565b80156102e35780601f106102b8576101008083540402835291602001916102e3565b820191906000526020600020905b8154815290600101906020018083116102c657829003601f168201915b505050505081526020016002820180546102fc90612695565b80601f016020809104026020016040519081016040528092919081815260200182805461032890612695565b80156103755780601f1061034a57610100808354040283529160200191610375565b820191906000526020600020905b81548152906001019060200180831161035857829003601f168201915b5050505050815260200160038201805461038e90612695565b80601f01602080910402602001604051908101604052809291908181526020018280546103ba90612695565b80156104075780601f106103dc57610100808354040283529160200191610407565b820191906000526020600020905b8154815290600101906020018083116103ea57829003601f168201915b5050509183525050600482015460209091019060ff16600281111561042e5761042e61211f565b600281111561043f5761043f61211f565b81526020016005820154815260200160068201805461045d90612695565b80601f016020809104026020016040519081016040528092919081815260200182805461048990612695565b80156104d65780601f106104ab576101008083540402835291602001916104d6565b820191906000526020600020905b8154815290600101906020018083116104b957829003601f168201915b505050505081526020016007820180546104ef90612695565b80601f016020809104026020016040519081016040528092919081815260200182805461051b90612695565b80156105685780601f1061053d57610100808354040283529160200191610568565b820191906000526020600020905b81548152906001019060200180831161054b57829003601f168201915b5050505050815260200160088201805461058190612695565b80601f01602080910402602001604051908101604052809291908181526020018280546105ad90612695565b80156105fa5780601f106105cf576101008083540402835291602001916105fa565b820191906000526020600020905b8154815290600101906020018083116105dd57829003601f168201915b5050505050815260200160098201805461061390612695565b80601f016020809104026020016040519081016040528092919081815260200182805461063f90612695565b801561068c5780601f106106615761010080835404028352916020019161068c565b820191906000526020600020905b81548152906001019060200180831161066f57829003601f168201915b50505050508152602001600a820180546106a590612695565b80601f01602080910402602001604051908101604052809291908181526020018280546106d190612695565b801561071e5780601f106106f35761010080835404028352916020019161071e565b820191906000526020600020905b81548152906001019060200180831161070157829003601f168201915b5050509183525050600b91909101546001600160a01b031660209091015282518390839081106107505761075061267f565b60200260200101819052508080610766906126df565b91505061020a565b50919050565b6000600160005461078591906126f8565b905090565b61079261205e565b6000821180156107a3575060005482105b6107c85760405162461bcd60e51b81526004016107bf9061270b565b60405180910390fd5b60008281526001602081815260409283902083516101808101909452805484529182018054918401916107fa90612695565b80601f016020809104026020016040519081016040528092919081815260200182805461082690612695565b80156108735780601f1061084857610100808354040283529160200191610873565b820191906000526020600020905b81548152906001019060200180831161085657829003601f168201915b5050505050815260200160028201805461088c90612695565b80601f01602080910402602001604051908101604052809291908181526020018280546108b890612695565b80156109055780601f106108da57610100808354040283529160200191610905565b820191906000526020600020905b8154815290600101906020018083116108e857829003601f168201915b5050505050815260200160038201805461091e90612695565b80601f016020809104026020016040519081016040528092919081815260200182805461094a90612695565b80156109975780601f1061096c57610100808354040283529160200191610997565b820191906000526020600020905b81548152906001019060200180831161097a57829003601f168201915b5050509183525050600482015460209091019060ff1660028111156109be576109be61211f565b60028111156109cf576109cf61211f565b8152602001600582015481526020016006820180546109ed90612695565b80601f0160208091040260200160405190810160405280929190818152602001828054610a1990612695565b8015610a665780601f10610a3b57610100808354040283529160200191610a66565b820191906000526020600020905b815481529060010190602001808311610a4957829003601f168201915b50505050508152602001600782018054610a7f90612695565b80601f0160208091040260200160405190810160405280929190818152602001828054610aab90612695565b8015610af85780601f10610acd57610100808354040283529160200191610af8565b820191906000526020600020905b815481529060010190602001808311610adb57829003601f168201915b50505050508152602001600882018054610b1190612695565b80601f0160208091040260200160405190810160405280929190818152602001828054610b3d90612695565b8015610b8a5780601f10610b5f57610100808354040283529160200191610b8a565b820191906000526020600020905b815481529060010190602001808311610b6d57829003601f168201915b50505050508152602001600982018054610ba390612695565b80601f0160208091040260200160405190810160405280929190818152602001828054610bcf90612695565b8015610c1c5780601f10610bf157610100808354040283529160200191610c1c565b820191906000526020600020905b815481529060010190602001808311610bff57829003601f168201915b50505050508152602001600a82018054610c3590612695565b80601f0160208091040260200160405190810160405280929190818152602001828054610c6190612695565b8015610cae5780601f10610c8357610100808354040283529160200191610cae565b820191906000526020600020905b815481529060010190602001808311610c9157829003601f168201915b5050509183525050600b91909101546001600160a01b031660209091015292915050565b600082118015610ce3575060005482105b610cff5760405162461bcd60e51b81526004016107bf9061270b565b6000828152600160205260409020600801610d1a8282612780565b507f7a1f4084e0ba91176034816a2dc49f5f0cd968e6bd93ba3b952da86bdc1d5ffb82604051610d6d918152604060208201819052600990820152682234b932b1b1b4b7b760b91b606082015260800190565b60405180910390a15050565b8051602080830191909120600090815260029091526040812054808203610dd55760405162461bcd60e51b815260206004820152601060248201526f4349206e6f207265676973747261646160801b60448201526064016107bf565b92915050565b83516020808601919091206000818152600290925260409091205415610e365760405162461bcd60e51b815260206004820152601060248201526f4349207961207265676973747261646160801b60448201526064016107bf565b6001600160a01b038216610e7e5760405162461bcd60e51b815260206004820152600f60248201526e57616c6c657420696e76616c69646160881b60448201526064016107bf565b600080548180610e8d836126df565b9091555060008381526002602081815260408084208590558051610180810182528581528083018b81528183018b9052606082018d9052608082019490945260a081018590528151808401835285815260c08201528151808401835285815260e08201528151808401835285815261010082015281518084018352858152610120820152815180840183528581526101408201526001600160a01b038916610160820152858552600192839052932083518155915193945091929091820190610f569082612780565b5060408201516002820190610f6b9082612780565b5060608201516003820190610f809082612780565b50608082015160048201805460ff19166001836002811115610fa457610fa461211f565b021790555060a0820151600582015560c08201516006820190610fc79082612780565b5060e08201516007820190610fdc9082612780565b506101008201516008820190610ff29082612780565b5061012082015160098201906110089082612780565b50610140820151600a82019061101e9082612780565b506101609190910151600b90910180546001600160a01b0319166001600160a01b03909216919091179055600380546001810182556000919091527fc2575a0e9e593c00f959f8c92f12db2869c3395a3b0502d05e2516446f71f85b018190556040517fa983eccbcbe589ac11496bf93a7aac9464d111ceade0593887e0e6fbb79d9538906110b290839089908790612840565b60405180910390a1505050505050565b60008b1180156110d357506000548b105b6110ef5760405162461bcd60e51b81526004016107bf9061270b565b6001600160a01b0381166111375760405162461bcd60e51b815260206004820152600f60248201526e57616c6c657420696e76616c69646160881b60448201526064016107bf565b6000600160008d815260200190815260200160002090506040518061018001604052808d81526020018c81526020018b815260200182600301805461117b90612695565b80601f01602080910402602001604051908101604052809291908181526020018280546111a790612695565b80156111f45780601f106111c9576101008083540402835291602001916111f4565b820191906000526020600020905b8154815290600101906020018083116111d757829003601f168201915b505050505081526020018a60028111156112105761121061211f565b8152602001898152602001888152602001878152602001868152602001858152602001848152602001836001600160a01b0316815250600160008e81526020019081526020016000206000820151816000015560208201518160010190816112789190612780565b506040820151600282019061128d9082612780565b50606082015160038201906112a29082612780565b50608082015160048201805460ff191660018360028111156112c6576112c661211f565b021790555060a0820151600582015560c082015160068201906112e99082612780565b5060e082015160078201906112fe9082612780565b5061010082015160088201906113149082612780565b50610120820151600982019061132a9082612780565b50610140820151600a8201906113409082612780565b506101609190910151600b90910180546001600160a01b0319166001600160a01b03909216919091179055604080518d81526020810182905260118183015270526567697374726f20636f6d706c65746f60781b606082015290517f7a1f4084e0ba91176034816a2dc49f5f0cd968e6bd93ba3b952da86bdc1d5ffb916080908290030190a1505050505050505050505050565b6113dc61205e565b8151602080840191909120600090815260029091526040812054908190036114525760405162461bcd60e51b8152602060048201526024808201527f506572736f6e6120636f6e2065736120636564756c61206e6f20656e636f6e746044820152637261646160e01b60648201526084016107bf565b600081815260016020818152604092839020835161018081019094528054845291820180549184019161148490612695565b80601f01602080910402602001604051908101604052809291908181526020018280546114b090612695565b80156114fd5780601f106114d2576101008083540402835291602001916114fd565b820191906000526020600020905b8154815290600101906020018083116114e057829003601f168201915b5050505050815260200160028201805461151690612695565b80601f016020809104026020016040519081016040528092919081815260200182805461154290612695565b801561158f5780601f106115645761010080835404028352916020019161158f565b820191906000526020600020905b81548152906001019060200180831161157257829003601f168201915b505050505081526020016003820180546115a890612695565b80601f01602080910402602001604051908101604052809291908181526020018280546115d490612695565b80156116215780601f106115f657610100808354040283529160200191611621565b820191906000526020600020905b81548152906001019060200180831161160457829003601f168201915b5050509183525050600482015460209091019060ff1660028111156116485761164861211f565b60028111156116595761165961211f565b81526020016005820154815260200160068201805461167790612695565b80601f01602080910402602001604051908101604052809291908181526020018280546116a390612695565b80156116f05780601f106116c5576101008083540402835291602001916116f0565b820191906000526020600020905b8154815290600101906020018083116116d357829003601f168201915b5050505050815260200160078201805461170990612695565b80601f016020809104026020016040519081016040528092919081815260200182805461173590612695565b80156117825780601f1061175757610100808354040283529160200191611782565b820191906000526020600020905b81548152906001019060200180831161176557829003601f168201915b5050505050815260200160088201805461179b90612695565b80601f01602080910402602001604051908101604052809291908181526020018280546117c790612695565b80156118145780601f106117e957610100808354040283529160200191611814565b820191906000526020600020905b8154815290600101906020018083116117f757829003601f168201915b5050505050815260200160098201805461182d90612695565b80601f016020809104026020016040519081016040528092919081815260200182805461185990612695565b80156118a65780601f1061187b576101008083540402835291602001916118a6565b820191906000526020600020905b81548152906001019060200180831161188957829003601f168201915b50505050508152602001600a820180546118bf90612695565b80601f01602080910402602001604051908101604052809291908181526020018280546118eb90612695565b80156119385780601f1061190d57610100808354040283529160200191611938565b820191906000526020600020905b81548152906001019060200180831161191b57829003601f168201915b5050509183525050600b91909101546001600160a01b03166020909101529392505050565b60008211801561196e575060005482105b61198a5760405162461bcd60e51b81526004016107bf9061270b565b60008281526001602052604090206009016119a58282612780565b507f7a1f4084e0ba91176034816a2dc49f5f0cd968e6bd93ba3b952da86bdc1d5ffb82604051610d6d9181526040602082018190526008908201526754656c65666f6e6f60c01b606082015260800190565b805160208083019190912060009081526002909152604081205460609190808203611a575760405162461bcd60e51b815260206004820152601060248201526f4349206e6f207265676973747261646160801b60448201526064016107bf565b600081815260016020818152604080842081516101808101909252805482529283018054919392840191611a8a90612695565b80601f0160208091040260200160405190810160405280929190818152602001828054611ab690612695565b8015611b035780601f10611ad857610100808354040283529160200191611b03565b820191906000526020600020905b815481529060010190602001808311611ae657829003601f168201915b50505050508152602001600282018054611b1c90612695565b80601f0160208091040260200160405190810160405280929190818152602001828054611b4890612695565b8015611b955780601f10611b6a57610100808354040283529160200191611b95565b820191906000526020600020905b815481529060010190602001808311611b7857829003601f168201915b50505050508152602001600382018054611bae90612695565b80601f0160208091040260200160405190810160405280929190818152602001828054611bda90612695565b8015611c275780601f10611bfc57610100808354040283529160200191611c27565b820191906000526020600020905b815481529060010190602001808311611c0a57829003601f168201915b5050509183525050600482015460209091019060ff166002811115611c4e57611c4e61211f565b6002811115611c5f57611c5f61211f565b815260200160058201548152602001600682018054611c7d90612695565b80601f0160208091040260200160405190810160405280929190818152602001828054611ca990612695565b8015611cf65780601f10611ccb57610100808354040283529160200191611cf6565b820191906000526020600020905b815481529060010190602001808311611cd957829003601f168201915b50505050508152602001600782018054611d0f90612695565b80601f0160208091040260200160405190810160405280929190818152602001828054611d3b90612695565b8015611d885780601f10611d5d57610100808354040283529160200191611d88565b820191906000526020600020905b815481529060010190602001808311611d6b57829003601f168201915b50505050508152602001600882018054611da190612695565b80601f0160208091040260200160405190810160405280929190818152602001828054611dcd90612695565b8015611e1a5780601f10611def57610100808354040283529160200191611e1a565b820191906000526020600020905b815481529060010190602001808311611dfd57829003601f168201915b50505050508152602001600982018054611e3390612695565b80601f0160208091040260200160405190810160405280929190818152602001828054611e5f90612695565b8015611eac5780601f10611e8157610100808354040283529160200191611eac565b820191906000526020600020905b815481529060010190602001808311611e8f57829003601f168201915b50505050508152602001600a82018054611ec590612695565b80601f0160208091040260200160405190810160405280929190818152602001828054611ef190612695565b8015611f3e5780601f10611f1357610100808354040283529160200191611f3e565b820191906000526020600020905b815481529060010190602001808311611f2157829003601f168201915b5050509183525050600b91909101546001600160a01b031660209091015260608101516101609091015190969095509350505050565b606060008083118015611f88575060005483105b611fa45760405162461bcd60e51b81526004016107bf9061270b565b6000838152600160205260409020600b8101546003909101805490916001600160a01b0316908290611fd590612695565b80601f016020809104026020016040519081016040528092919081815260200182805461200190612695565b801561204e5780601f106120235761010080835404028352916020019161204e565b820191906000526020600020905b81548152906001019060200180831161203157829003601f168201915b5050505050915091509150915091565b60405180610180016040528060008152602001606081526020016060815260200160608152602001600060028111156120995761209961211f565b815260200160008152602001606081526020016060815260200160608152602001606081526020016060815260200160006001600160a01b031681525090565b6000815180845260005b818110156120ff576020818501810151868301820152016120e3565b506000602082860101526020601f19601f83011685010191505092915050565b634e487b7160e01b600052602160045260246000fd5b6003811061215357634e487b7160e01b600052602160045260246000fd5b9052565b6000610180825184526020830151816020860152612177828601826120d9565b9150506040830151848203604086015261219182826120d9565b915050606083015184820360608601526121ab82826120d9565b91505060808301516121c06080860182612135565b5060a083015160a085015260c083015184820360c08601526121e282826120d9565b91505060e083015184820360e08601526121fc82826120d9565b915050610100808401518583038287015261221783826120d9565b92505050610120808401518583038287015261223383826120d9565b92505050610140808401518583038287015261224f83826120d9565b925050506101608084015161226e828701826001600160a01b03169052565b5090949350505050565b6000602080830181845280855180835260408601915060408160051b870101925083870160005b828110156122cd57603f198886030184526122bb858351612157565b9450928501929085019060010161229f565b5092979650505050505050565b6000602082840312156122ec57600080fd5b5035919050565b6020815260006123066020830184612157565b9392505050565b634e487b7160e01b600052604160045260246000fd5b600082601f83011261233457600080fd5b813567ffffffffffffffff8082111561234f5761234f61230d565b604051601f8301601f19908116603f011681019082821181831017156123775761237761230d565b8160405283815286602085880101111561239057600080fd5b836020870160208301376000602085830101528094505050505092915050565b600080604083850312156123c357600080fd5b82359150602083013567ffffffffffffffff8111156123e157600080fd5b6123ed85828601612323565b9150509250929050565b60006020828403121561240957600080fd5b813567ffffffffffffffff81111561242057600080fd5b61242c84828501612323565b949350505050565b80356001600160a01b038116811461244b57600080fd5b919050565b6000806000806080858703121561246657600080fd5b843567ffffffffffffffff8082111561247e57600080fd5b61248a88838901612323565b955060208701359150808211156124a057600080fd5b6124ac88838901612323565b945060408701359150808211156124c257600080fd5b506124cf87828801612323565b9250506124de60608601612434565b905092959194509250565b80356003811061244b57600080fd5b60008060008060008060008060008060006101608c8e03121561251a57600080fd5b8b359a5067ffffffffffffffff8060208e0135111561253857600080fd5b6125488e60208f01358f01612323565b9a508060408e0135111561255b57600080fd5b61256b8e60408f01358f01612323565b995061257960608e016124e9565b985060808d013597508060a08e0135111561259357600080fd5b6125a38e60a08f01358f01612323565b96508060c08e013511156125b657600080fd5b6125c68e60c08f01358f01612323565b95508060e08e013511156125d957600080fd5b6125e98e60e08f01358f01612323565b9450806101008e013511156125fd57600080fd5b61260e8e6101008f01358f01612323565b9350806101208e0135111561262257600080fd5b506126348d6101208e01358e01612323565b91506126436101408d01612434565b90509295989b509295989b9093969950565b60408152600061266860408301856120d9565b905060018060a01b03831660208301529392505050565b634e487b7160e01b600052603260045260246000fd5b600181811c908216806126a957607f821691505b60208210810361076e57634e487b7160e01b600052602260045260246000fd5b634e487b7160e01b600052601160045260246000fd5b6000600182016126f1576126f16126c9565b5060010190565b81810381811115610dd557610dd56126c9565b6020808252600c908201526b4944206e6f2076616c69646f60a01b604082015260600190565b601f82111561277b57600081815260208120601f850160051c810160208610156127585750805b601f850160051c820191505b8181101561277757828155600101612764565b5050505b505050565b815167ffffffffffffffff81111561279a5761279a61230d565b6127ae816127a88454612695565b84612731565b602080601f8311600181146127e357600084156127cb5750858301515b600019600386901b1c1916600185901b178555612777565b600085815260208120601f198616915b82811015612812578886015182559484019460019091019084016127f3565b50858210156128305787850151600019600388901b60f8161c191681555b5050505050600190811b01905550565b83815260606020820152600061285960608301856120d9565b905060018060a01b038316604083015294935050505056fea2646970667358221220ff47e5b799c485c5e1a925cef2f1dd4f3357e692b8d83d69ffd6bfa791a1de2e64736f6c63430008130033",
  "immutableReferences": {},
  "source": "// SPDX-License-Identifier: MIT\r\npragma solidity ^0.8.19;\r\n\r\ncontract Personas {\r\n    enum Genero { Masculino, Femenino, Otro }\r\n\r\n    struct Persona {\r\n        uint256 id;\r\n        string nombres;\r\n        string apellidos;\r\n        string cedula;\r\n        Genero genero;\r\n        uint256 fechaNacimiento;\r\n        string lugarNacimiento;\r\n        string estadoCivil;\r\n        string direccion;\r\n        string telefono;\r\n        string profesion;\r\n        address wallet;\r\n    }\r\n\r\n    uint256 private nextId = 1;\r\n    mapping(uint256 => Persona) private personas;\r\n    mapping(bytes32 => uint256) private ciHashAIdPersona; //  usamos hash de CI\r\n    uint256[] private idsPersonas; //  para listar todas las personas\r\n\r\n    // Eventos\r\n    event PersonaRegistrada(uint256 id, string cedula, address wallet);\r\n    event PersonaActualizada(uint256 id, string campo);\r\n\r\n    // Registro esencial\r\n    function registrarPersonaEsencial(\r\n        string memory _cedula,\r\n        string memory _nombres,\r\n        string memory _apellidos,\r\n        address _wallet\r\n    ) public {\r\n        bytes32 ciHash = keccak256(bytes(_cedula));\r\n        require(ciHashAIdPersona[ciHash] == 0, \"CI ya registrada\");\r\n        require(_wallet != address(0), \"Wallet invalida\");\r\n\r\n        uint256 id = nextId++;\r\n        ciHashAIdPersona[ciHash] = id;\r\n\r\n        personas[id] = Persona({\r\n            id: id,\r\n            nombres: _nombres,\r\n            apellidos: _apellidos,\r\n            cedula: _cedula,\r\n            genero: Genero.Otro,\r\n            fechaNacimiento: 0,\r\n            lugarNacimiento: \"\",\r\n            estadoCivil: \"\",\r\n            direccion: \"\",\r\n            telefono: \"\",\r\n            profesion: \"\",\r\n            wallet: _wallet\r\n        });\r\n\r\n        idsPersonas.push(id);\r\n\r\n        emit PersonaRegistrada(id, _cedula, _wallet);\r\n    }\r\n\r\n    // Registro completo (no permite cambiar CI)\r\n    function registrarPersona(\r\n        uint256 _id,\r\n        string memory _nombres,\r\n        string memory _apellidos,\r\n        Genero _genero,\r\n        uint256 _fechaNacimiento,\r\n        string memory _lugarNacimiento,\r\n        string memory _estadoCivil,\r\n        string memory _direccion,\r\n        string memory _telefono,\r\n        string memory _profesion,\r\n        address _wallet\r\n    ) public {\r\n        require(_id > 0 && _id < nextId, \"ID no valido\");\r\n        require(_wallet != address(0), \"Wallet invalida\");\r\n\r\n        Persona storage p = personas[_id];\r\n        //  CI no se cambia, se mantiene la original\r\n        personas[_id] = Persona({\r\n            id: _id,\r\n            nombres: _nombres,\r\n            apellidos: _apellidos,\r\n            cedula: p.cedula,\r\n            genero: _genero,\r\n            fechaNacimiento: _fechaNacimiento,\r\n            lugarNacimiento: _lugarNacimiento,\r\n            estadoCivil: _estadoCivil,\r\n            direccion: _direccion,\r\n            telefono: _telefono,\r\n            profesion: _profesion,\r\n            wallet: _wallet\r\n        });\r\n\r\n        emit PersonaActualizada(_id, \"Registro completo\");\r\n    }\r\n\r\n    // Consultas\r\n    function obtenerIdPorCi(string memory _ci) public view returns (uint256) {\r\n        uint256 id = ciHashAIdPersona[keccak256(bytes(_ci))];\r\n        require(id != 0, \"CI no registrada\");\r\n        return id;\r\n    }\r\n\r\n    function obtenerPersonaPorCI(string memory _cedula) public view returns (Persona memory) {\r\n        uint256 id = ciHashAIdPersona[keccak256(bytes(_cedula))];\r\n        require(id != 0, \"Persona con esa cedula no encontrada\");\r\n        return personas[id];\r\n    }\r\n\r\n    function obtenerPersonaPorId(uint256 _id) public view returns (Persona memory) {\r\n        require(_id > 0 && _id < nextId, \"ID no valido\");\r\n        return personas[_id];\r\n    }\r\n\r\n    // Actualizaciones parciales\r\n    function actualizarTelefono(uint256 _id, string memory _telefono) public {\r\n        require(_id > 0 && _id < nextId, \"ID no valido\");\r\n        personas[_id].telefono = _telefono;\r\n        emit PersonaActualizada(_id, \"Telefono\");\r\n    }\r\n\r\n    function actualizarDireccion(uint256 _id, string memory _direccion) public {\r\n        require(_id > 0 && _id < nextId, \"ID no valido\");\r\n        personas[_id].direccion = _direccion;\r\n        emit PersonaActualizada(_id, \"Direccion\");\r\n    }\r\n\r\n    // Identidad rpida\r\n    function obtenerIdentidad(uint256 _id) public view returns (string memory, address) {\r\n        require(_id > 0 && _id < nextId, \"ID no valido\");\r\n        return (personas[_id].cedula, personas[_id].wallet);\r\n    }\r\n\r\n    function obtenerIdentidadPorCI(string memory _ci) public view returns (string memory, address) {\r\n        uint256 id = ciHashAIdPersona[keccak256(bytes(_ci))];\r\n        require(id != 0, \"CI no registrada\");\r\n        Persona memory p = personas[id];\r\n        return (p.cedula, p.wallet);\r\n    }\r\n\r\n    //  Listar todas las personas (view, no consume gas en frontend)\r\n    function listarPersonas() public view returns (Persona[] memory) {\r\n        Persona[] memory result = new Persona[](idsPersonas.length);\r\n        for (uint256 i = 0; i < idsPersonas.length; i++) {\r\n            result[i] = personas[idsPersonas[i]];\r\n        }\r\n        return result;\r\n    }\r\n\r\n    // Total de personas registradas\r\n    function totalPersonas() public view returns (uint256) {\r\n        return nextId - 1;\r\n    }\r\n}\r\n",
  "sourcePath": "C:\\Users\\Cesar\\Documents\\GitHub\\RegistroDeHerencia\\BlockChain\\RegistroDeHerencia\\contracts\\Personas.sol",
  "compiler": {
    "name": "solc",
    "version": "0.8.19+commit.7dd6d404.Emscripten.clang"
  },
  "schemaVersion": "3.4.16",
  "updatedAt": "2025-12-18T02:52:31.717Z",
  "networkType": "ethereum",
  "devdoc": {
    "kind": "dev",
    "methods": {},
    "version": 1
  },
  "userdoc": {
    "kind": "user",
    "methods": {},
    "version": 1
  }
}