{
  "contractName": "Propiedades",
  "abi": [
    {
      "inputs": [
        {
          "internalType": "address",
          "name": "_personasAddress",
          "type": "address"
        }
      ],
      "stateMutability": "nonpayable",
      "type": "constructor"
    },
    {
      "anonymous": false,
      "inputs": [
        {
          "indexed": false,
          "internalType": "uint256",
          "name": "idPropiedad",
          "type": "uint256"
        },
        {
          "indexed": false,
          "internalType": "string",
          "name": "ciDueno",
          "type": "string"
        },
        {
          "indexed": false,
          "internalType": "address",
          "name": "walletDueno",
          "type": "address"
        }
      ],
      "name": "PropiedadRegistrada",
      "type": "event"
    },
    {
      "anonymous": false,
      "inputs": [
        {
          "indexed": false,
          "internalType": "uint256",
          "name": "idPropiedad",
          "type": "uint256"
        },
        {
          "indexed": false,
          "internalType": "string",
          "name": "ciAnteriorDueno",
          "type": "string"
        },
        {
          "indexed": false,
          "internalType": "string",
          "name": "ciNuevoDueno",
          "type": "string"
        }
      ],
      "name": "PropiedadTransferida",
      "type": "event"
    },
    {
      "inputs": [
        {
          "internalType": "string",
          "name": "_ciDueno",
          "type": "string"
        },
        {
          "internalType": "string",
          "name": "_descripcion",
          "type": "string"
        }
      ],
      "name": "registrarPropiedad",
      "outputs": [],
      "stateMutability": "nonpayable",
      "type": "function"
    },
    {
      "inputs": [
        {
          "internalType": "uint256",
          "name": "_idPropiedad",
          "type": "uint256"
        },
        {
          "internalType": "string",
          "name": "_ciNuevoDueno",
          "type": "string"
        }
      ],
      "name": "transferirPropiedad",
      "outputs": [],
      "stateMutability": "nonpayable",
      "type": "function"
    },
    {
      "inputs": [
        {
          "internalType": "uint256",
          "name": "_idPropiedad",
          "type": "uint256"
        }
      ],
      "name": "obtenerPropiedad",
      "outputs": [
        {
          "components": [
            {
              "internalType": "uint256",
              "name": "idPropiedad",
              "type": "uint256"
            },
            {
              "internalType": "string",
              "name": "descripcion",
              "type": "string"
            },
            {
              "internalType": "string",
              "name": "ciDueno",
              "type": "string"
            },
            {
              "internalType": "address",
              "name": "walletDueno",
              "type": "address"
            },
            {
              "internalType": "bool",
              "name": "enHerencia",
              "type": "bool"
            }
          ],
          "internalType": "struct Propiedades.Propiedad",
          "name": "",
          "type": "tuple"
        }
      ],
      "stateMutability": "view",
      "type": "function",
      "constant": true
    },
    {
      "inputs": [
        {
          "internalType": "string",
          "name": "_ciPersona",
          "type": "string"
        }
      ],
      "name": "listarPropiedadesPorCI",
      "outputs": [
        {
          "components": [
            {
              "internalType": "uint256",
              "name": "idPropiedad",
              "type": "uint256"
            },
            {
              "internalType": "string",
              "name": "descripcion",
              "type": "string"
            },
            {
              "internalType": "string",
              "name": "ciDueno",
              "type": "string"
            },
            {
              "internalType": "address",
              "name": "walletDueno",
              "type": "address"
            },
            {
              "internalType": "bool",
              "name": "enHerencia",
              "type": "bool"
            }
          ],
          "internalType": "struct Propiedades.Propiedad[]",
          "name": "",
          "type": "tuple[]"
        }
      ],
      "stateMutability": "view",
      "type": "function",
      "constant": true
    },
    {
      "inputs": [
        {
          "internalType": "string",
          "name": "_ciPersona",
          "type": "string"
        }
      ],
      "name": "contarPropiedadesPorCI",
      "outputs": [
        {
          "internalType": "uint256",
          "name": "",
          "type": "uint256"
        }
      ],
      "stateMutability": "view",
      "type": "function",
      "constant": true
    },
    {
      "inputs": [
        {
          "internalType": "uint256",
          "name": "_idPropiedad",
          "type": "uint256"
        }
      ],
      "name": "marcarEnHerencia",
      "outputs": [],
      "stateMutability": "nonpayable",
      "type": "function"
    },
    {
      "inputs": [],
      "name": "totalPropiedades",
      "outputs": [
        {
          "internalType": "uint256",
          "name": "",
          "type": "uint256"
        }
      ],
      "stateMutability": "view",
      "type": "function",
      "constant": true
    }
  ],
  "bytecode": "0x60806040526001805534801561001457600080fd5b5060405161140a38038061140a83398101604081905261003391610058565b600080546001600160a01b0319166001600160a01b0392909216919091179055610088565b60006020828403121561006a57600080fd5b81516001600160a01b038116811461008157600080fd5b9392505050565b611373806100976000396000f3fe608060405234801561001057600080fd5b506004361061007d5760003560e01c80638f61a8b61161005b5780638f61a8b6146100da578063ac9175d3146100fa578063ae4b62e51461010d578063b6faad051461012057600080fd5b806338fb6cd61461008257806349302a741461009757806370c7bf08146100b2575b600080fd5b610095610090366004610e2e565b610140565b005b61009f610524565b6040519081526020015b60405180910390f35b61009f6100c0366004610e75565b805160209182012060009081526003909152604090205490565b6100ed6100e8366004610eb2565b610539565b6040516100a99190610f7e565b610095610108366004610f98565b610717565b61009561011b366004610eb2565b6109e0565b61013361012e366004610e75565b610aa2565b6040516100a99190610ff2565b6000828152600260205260408120805490910361019a5760405162461bcd60e51b815260206004820152601360248201527250726f706965646164206e6f2065786973746560681b60448201526064015b60405180910390fd5b60038101546001600160a01b031633146101f05760405162461bcd60e51b8152602060048201526017602482015276139bc8195c995cc8195b08191d595b9bc81858dd1d585b604a1b6044820152606401610191565b60008054604051634553262f60e11b81526001600160a01b0390911690638aa64c5e90610221908690600401611054565b602060405180830381865afa15801561023e573d6000803e3d6000fd5b505050506040513d601f19601f820116820180604052508101906102629190611067565b6000805460405163fba82d1d60e01b81526004810184905292935090916001600160a01b039091169063fba82d1d90602401600060405180830381865afa1580156102b1573d6000803e3d6000fd5b505050506040513d6000823e601f3d908101601f191682016040526102d99190810190611080565b9150506001600160a01b0381166103245760405162461bcd60e51b815260206004820152600f60248201526e57616c6c657420696e76616c69646160881b6044820152606401610191565b60008360020180546103359061111a565b80601f01602080910402602001604051908101604052809291908181526020018280546103619061111a565b80156103ae5780601f10610383576101008083540402835291602001916103ae565b820191906000526020600020905b81548152906001019060200180831161039157829003601f168201915b50505050509050848460020190816103c691906111a3565b50600384810180546001600160a01b0319166001600160a01b0385161790558151602080840191909120600090815291905260408120905b81548110156104b2578782828154811061041a5761041a611263565b9060005260206000200154036104a0578154829061043a9060019061128f565b8154811061044a5761044a611263565b906000526020600020015482828154811061046757610467611263565b906000526020600020018190555081805480610485576104856112a8565b600190038181906000526020600020016000905590556104b2565b806104aa816112be565b9150506103fe565b5085516020808801919091206000908152600382526040808220805460018101825590835292909120909101889055517f33af3e809db3134fbfa31b77f3d35dafc9584028ca38332aa8857ea6d2353be89061051390899085908a906112d7565b60405180910390a150505050505050565b600060018054610534919061128f565b905090565b610541610d2f565b600082815260026020526040812054900361059e5760405162461bcd60e51b815260206004820152601760248201527f50726f706965646164206e6f20656e636f6e74726164610000000000000000006044820152606401610191565b600260008381526020019081526020016000206040518060a0016040529081600082015481526020016001820180546105d69061111a565b80601f01602080910402602001604051908101604052809291908181526020018280546106029061111a565b801561064f5780601f106106245761010080835404028352916020019161064f565b820191906000526020600020905b81548152906001019060200180831161063257829003601f168201915b505050505081526020016002820180546106689061111a565b80601f01602080910402602001604051908101604052809291908181526020018280546106949061111a565b80156106e15780601f106106b6576101008083540402835291602001916106e1565b820191906000526020600020905b8154815290600101906020018083116106c457829003601f168201915b5050509183525050600391909101546001600160a01b0381166020830152600160a01b900460ff16151560409091015292915050565b60008054604051634553262f60e11b81526001600160a01b0390911690638aa64c5e90610748908690600401611054565b602060405180830381865afa158015610765573d6000803e3d6000fd5b505050506040513d601f19601f820116820180604052508101906107899190611067565b6000805460405163fba82d1d60e01b81526004810184905292935090916001600160a01b039091169063fba82d1d90602401600060405180830381865afa1580156107d8573d6000803e3d6000fd5b505050506040513d6000823e601f3d908101601f191682016040526108009190810190611080565b9150506001600160a01b038116331461086e5760405162461bcd60e51b815260206004820152602a60248201527f536f6c6f20656c206475656e6f20707565646520726567697374726172207375604482015269081c1c9bdc1a5959185960b21b6064820152608401610191565b6001600160a01b0381166108b65760405162461bcd60e51b815260206004820152600f60248201526e57616c6c657420696e76616c69646160881b6044820152606401610191565b60018054600091826108c7836112be565b909155506040805160a08101825282815260208082018881528284018a90526001600160a01b0387166060840152600060808401819052858152600290925292902081518155915192935091600182019061092290826111a3565b506040820151600282019061093790826111a3565b506060820151600391820180546080909401511515600160a01b026001600160a81b03199094166001600160a01b03909216919091179290921790915585516020808801919091206000908152918152604080832080546001810182559084529190922001829055517f4bfdbe4ee34bee845e9e9c570afcd88b745f871918c672d855fedccf3066e79b906109d19083908890869061130c565b60405180910390a15050505050565b60008181526002602052604081208054909103610a355760405162461bcd60e51b815260206004820152601360248201527250726f706965646164206e6f2065786973746560681b6044820152606401610191565b60038101546001600160a01b03163314610a8b5760405162461bcd60e51b8152602060048201526017602482015276139bc8195c995cc8195b08191d595b9bc81858dd1d585b604a1b6044820152606401610191565b600301805460ff60a01b1916600160a01b17905550565b805160208083019190912060009081526003825260408082208054825181860281018601909352808352606094830182828015610afe57602002820191906000526020600020905b815481526020019060010190808311610aea575b505050505090506000815167ffffffffffffffff811115610b2157610b21610d69565b604051908082528060200260200182016040528015610b5a57816020015b610b47610d2f565b815260200190600190039081610b3f5790505b50905060005b8251811015610d275760026000848381518110610b7f57610b7f611263565b602002602001015181526020019081526020016000206040518060a001604052908160008201548152602001600182018054610bba9061111a565b80601f0160208091040260200160405190810160405280929190818152602001828054610be69061111a565b8015610c335780601f10610c0857610100808354040283529160200191610c33565b820191906000526020600020905b815481529060010190602001808311610c1657829003601f168201915b50505050508152602001600282018054610c4c9061111a565b80601f0160208091040260200160405190810160405280929190818152602001828054610c789061111a565b8015610cc55780601f10610c9a57610100808354040283529160200191610cc5565b820191906000526020600020905b815481529060010190602001808311610ca857829003601f168201915b5050509183525050600391909101546001600160a01b0381166020830152600160a01b900460ff1615156040909101528251839083908110610d0957610d09611263565b60200260200101819052508080610d1f906112be565b915050610b60565b509392505050565b6040518060a0016040528060008152602001606081526020016060815260200160006001600160a01b031681526020016000151581525090565b634e487b7160e01b600052604160045260246000fd5b604051601f8201601f1916810167ffffffffffffffff81118282101715610da857610da8610d69565b604052919050565b600067ffffffffffffffff821115610dca57610dca610d69565b50601f01601f191660200190565b600082601f830112610de957600080fd5b8135610dfc610df782610db0565b610d7f565b818152846020838601011115610e1157600080fd5b816020850160208301376000918101602001919091529392505050565b60008060408385031215610e4157600080fd5b82359150602083013567ffffffffffffffff811115610e5f57600080fd5b610e6b85828601610dd8565b9150509250929050565b600060208284031215610e8757600080fd5b813567ffffffffffffffff811115610e9e57600080fd5b610eaa84828501610dd8565b949350505050565b600060208284031215610ec457600080fd5b5035919050565b60005b83811015610ee6578181015183820152602001610ece565b50506000910152565b60008151808452610f07816020860160208601610ecb565b601f01601f19169290920160200192915050565b805182526000602082015160a06020850152610f3a60a0850182610eef565b905060408301518482036040860152610f538282610eef565b6060858101516001600160a01b03169087015260809485015115159490950193909352509192915050565b602081526000610f916020830184610f1b565b9392505050565b60008060408385031215610fab57600080fd5b823567ffffffffffffffff80821115610fc357600080fd5b610fcf86838701610dd8565b93506020850135915080821115610fe557600080fd5b50610e6b85828601610dd8565b6000602080830181845280855180835260408601915060408160051b870101925083870160005b8281101561104757603f19888603018452611035858351610f1b565b94509285019290850190600101611019565b5092979650505050505050565b602081526000610f916020830184610eef565b60006020828403121561107957600080fd5b5051919050565b6000806040838503121561109357600080fd5b825167ffffffffffffffff8111156110aa57600080fd5b8301601f810185136110bb57600080fd5b80516110c9610df782610db0565b8181528660208385010111156110de57600080fd5b6110ef826020830160208601610ecb565b60208601519094509150506001600160a01b038116811461110f57600080fd5b809150509250929050565b600181811c9082168061112e57607f821691505b60208210810361114e57634e487b7160e01b600052602260045260246000fd5b50919050565b601f82111561119e57600081815260208120601f850160051c8101602086101561117b5750805b601f850160051c820191505b8181101561119a57828155600101611187565b5050505b505050565b815167ffffffffffffffff8111156111bd576111bd610d69565b6111d1816111cb845461111a565b84611154565b602080601f83116001811461120657600084156111ee5750858301515b600019600386901b1c1916600185901b17855561119a565b600085815260208120601f198616915b8281101561123557888601518255948401946001909101908401611216565b50858210156112535787850151600019600388901b60f8161c191681555b5050505050600190811b01905550565b634e487b7160e01b600052603260045260246000fd5b634e487b7160e01b600052601160045260246000fd5b818103818111156112a2576112a2611279565b92915050565b634e487b7160e01b600052603160045260246000fd5b6000600182016112d0576112d0611279565b5060010190565b8381526060602082015260006112f06060830185610eef565b82810360408401526113028185610eef565b9695505050505050565b8381526060602082015260006113256060830185610eef565b905060018060a01b038316604083015294935050505056fea2646970667358221220e110e59db88e9a7e6b948157ba618a1ee6d055ef31f149ba75aa3a568614cc6e64736f6c63430008130033",
  "immutableReferences": {},
  "source": "// SPDX-License-Identifier: MIT\r\npragma solidity ^0.8.19;\r\n\r\nimport \"./IPersonas.sol\";\r\n\r\ncontract Propiedades {\r\n    IPersonas private personasContract;\r\n\r\n    constructor(address _personasAddress) {\r\n        personasContract = IPersonas(_personasAddress);\r\n    }\r\n\r\n    struct Propiedad {\r\n        uint256 idPropiedad;\r\n        string descripcion;\r\n        string ciDueno;\r\n        address walletDueno;\r\n        bool enHerencia;\r\n    }\r\n\r\n    uint256 private nextPropId = 1;\r\n    mapping(uint256 => Propiedad) private propiedades;\r\n    mapping(bytes32 => uint256[]) private propiedadesPorCI; //  usamos hash de CI para eficiencia\r\n\r\n    event PropiedadRegistrada(uint256 idPropiedad, string ciDueno, address walletDueno);\r\n    event PropiedadTransferida(uint256 idPropiedad, string ciAnteriorDueno, string ciNuevoDueno);\r\n\r\n    // Registrar propiedad VALIDANDO CI contra Personas\r\n    function registrarPropiedad(string memory _ciDueno, string memory _descripcion) public {\r\n        uint256 idPersona = personasContract.obtenerIdPorCi(_ciDueno);\r\n        (, address wallet) = personasContract.obtenerIdentidad(idPersona);\r\n\r\n        require(wallet == msg.sender, \"Solo el dueno puede registrar su propiedad\");\r\n        require(wallet != address(0), \"Wallet invalida\");\r\n\r\n        uint256 idProp = nextPropId++;\r\n        propiedades[idProp] = Propiedad({\r\n            idPropiedad: idProp,\r\n            descripcion: _descripcion,\r\n            ciDueno: _ciDueno,\r\n            walletDueno: wallet,\r\n            enHerencia: false\r\n        });\r\n\r\n        propiedadesPorCI[keccak256(bytes(_ciDueno))].push(idProp);\r\n\r\n        emit PropiedadRegistrada(idProp, _ciDueno, wallet);\r\n    }\r\n\r\n    // Transferir propiedad a nuevo CI (actualiza wallet tambin)\r\n    function transferirPropiedad(uint256 _idPropiedad, string memory _ciNuevoDueno) public {\r\n        Propiedad storage prop = propiedades[_idPropiedad];\r\n        require(prop.idPropiedad != 0, \"Propiedad no existe\");\r\n        require(prop.walletDueno == msg.sender, \"No eres el dueno actual\");\r\n\r\n        // Obtener wallet del nuevo dueo desde Personas\r\n        uint256 idNuevo = personasContract.obtenerIdPorCi(_ciNuevoDueno);\r\n        (, address walletNuevo) = personasContract.obtenerIdentidad(idNuevo);\r\n        require(walletNuevo != address(0), \"Wallet invalida\");\r\n\r\n        string memory ciAnteriorDueno = prop.ciDueno;\r\n\r\n        //  Actualizar propiedad\r\n        prop.ciDueno = _ciNuevoDueno;\r\n        prop.walletDueno = walletNuevo;\r\n\r\n        //  Eliminar del array del dueo anterior\r\n        uint256[] storage idsAnterior = propiedadesPorCI[keccak256(bytes(ciAnteriorDueno))];\r\n        for (uint256 i = 0; i < idsAnterior.length; i++) {\r\n            if (idsAnterior[i] == _idPropiedad) {\r\n                idsAnterior[i] = idsAnterior[idsAnterior.length - 1];\r\n                idsAnterior.pop();\r\n                break;\r\n            }\r\n        }\r\n\r\n        //  Agregar al nuevo dueo\r\n        propiedadesPorCI[keccak256(bytes(_ciNuevoDueno))].push(_idPropiedad);\r\n\r\n        emit PropiedadTransferida(_idPropiedad, ciAnteriorDueno, _ciNuevoDueno);\r\n    }\r\n\r\n    // Consultar propiedad por ID\r\n    function obtenerPropiedad(uint256 _idPropiedad) public view returns (Propiedad memory) {\r\n        require(propiedades[_idPropiedad].idPropiedad != 0, \"Propiedad no encontrada\");\r\n        return propiedades[_idPropiedad];\r\n    }\r\n\r\n    // Listar todas las propiedades de un usuario segn su CI\r\n    function listarPropiedadesPorCI(string memory _ciPersona) public view returns (Propiedad[] memory) {\r\n        uint256[] memory ids = propiedadesPorCI[keccak256(bytes(_ciPersona))];\r\n        Propiedad[] memory result = new Propiedad[](ids.length);\r\n\r\n        for (uint256 i = 0; i < ids.length; i++) {\r\n            result[i] = propiedades[ids[i]];\r\n        }\r\n        return result;\r\n    }\r\n\r\n    // Contar propiedades de un usuario por CI\r\n    function contarPropiedadesPorCI(string memory _ciPersona) public view returns (uint256) {\r\n        return propiedadesPorCI[keccak256(bytes(_ciPersona))].length;\r\n    }\r\n\r\n    // Marcar propiedad como en herencia (solo dueo actual)\r\n    function marcarEnHerencia(uint256 _idPropiedad) public {\r\n        Propiedad storage prop = propiedades[_idPropiedad];\r\n        require(prop.idPropiedad != 0, \"Propiedad no existe\");\r\n        require(prop.walletDueno == msg.sender, \"No eres el dueno actual\");\r\n        prop.enHerencia = true;\r\n    }\r\n\r\n    // Total de propiedades registradas\r\n    function totalPropiedades() public view returns (uint256) {\r\n        return nextPropId - 1;\r\n    }\r\n}\r\n",
  "sourcePath": "C:\\Users\\Cesar\\Documents\\GitHub\\RegistroDeHerencia\\BlockChain\\RegistroDeHerencia\\contracts\\Propiedades.sol",
  "compiler": {
    "name": "solc",
    "version": "0.8.19+commit.7dd6d404.Emscripten.clang"
  },
  "schemaVersion": "3.4.16",
  "updatedAt": "2025-12-17T14:58:33.885Z",
  "networkType": "ethereum",
  "devdoc": {
    "kind": "dev",
    "methods": {},
    "version": 1
  },
  "userdoc": {
    "kind": "user",
    "methods": {},
    "version": 1
  }
}