{
  "contractName": "Propiedades",
  "abi": [
    {
      "inputs": [
        {
          "internalType": "address",
          "name": "_personasAddress",
          "type": "address"
        }
      ],
      "stateMutability": "nonpayable",
      "type": "constructor"
    },
    {
      "anonymous": false,
      "inputs": [
        {
          "indexed": false,
          "internalType": "uint256",
          "name": "idPropiedad",
          "type": "uint256"
        },
        {
          "indexed": false,
          "internalType": "string",
          "name": "ciDueno",
          "type": "string"
        },
        {
          "indexed": false,
          "internalType": "address",
          "name": "walletDueno",
          "type": "address"
        }
      ],
      "name": "PropiedadRegistrada",
      "type": "event"
    },
    {
      "anonymous": false,
      "inputs": [
        {
          "indexed": false,
          "internalType": "uint256",
          "name": "idPropiedad",
          "type": "uint256"
        },
        {
          "indexed": false,
          "internalType": "string",
          "name": "ciAnteriorDueno",
          "type": "string"
        },
        {
          "indexed": false,
          "internalType": "string",
          "name": "ciNuevoDueno",
          "type": "string"
        }
      ],
      "name": "PropiedadTransferida",
      "type": "event"
    },
    {
      "inputs": [
        {
          "internalType": "string",
          "name": "_ciDueno",
          "type": "string"
        },
        {
          "internalType": "string",
          "name": "_descripcion",
          "type": "string"
        }
      ],
      "name": "registrarPropiedad",
      "outputs": [],
      "stateMutability": "nonpayable",
      "type": "function"
    },
    {
      "inputs": [
        {
          "internalType": "uint256",
          "name": "_idPropiedad",
          "type": "uint256"
        },
        {
          "internalType": "string",
          "name": "_ciDuenoActual",
          "type": "string"
        },
        {
          "internalType": "string",
          "name": "_ciNuevoDueno",
          "type": "string"
        }
      ],
      "name": "transferirPropiedad",
      "outputs": [],
      "stateMutability": "nonpayable",
      "type": "function"
    },
    {
      "inputs": [
        {
          "internalType": "uint256",
          "name": "_idPropiedad",
          "type": "uint256"
        }
      ],
      "name": "obtenerPropiedad",
      "outputs": [
        {
          "components": [
            {
              "internalType": "uint256",
              "name": "idPropiedad",
              "type": "uint256"
            },
            {
              "internalType": "string",
              "name": "descripcion",
              "type": "string"
            },
            {
              "internalType": "string",
              "name": "ciDueno",
              "type": "string"
            },
            {
              "internalType": "address",
              "name": "walletDueno",
              "type": "address"
            },
            {
              "internalType": "bool",
              "name": "enHerencia",
              "type": "bool"
            }
          ],
          "internalType": "struct Propiedades.Propiedad",
          "name": "",
          "type": "tuple"
        }
      ],
      "stateMutability": "view",
      "type": "function",
      "constant": true
    },
    {
      "inputs": [
        {
          "internalType": "string",
          "name": "_ciPersona",
          "type": "string"
        }
      ],
      "name": "listarPropiedadesPorCI",
      "outputs": [
        {
          "components": [
            {
              "internalType": "uint256",
              "name": "idPropiedad",
              "type": "uint256"
            },
            {
              "internalType": "string",
              "name": "descripcion",
              "type": "string"
            },
            {
              "internalType": "string",
              "name": "ciDueno",
              "type": "string"
            },
            {
              "internalType": "address",
              "name": "walletDueno",
              "type": "address"
            },
            {
              "internalType": "bool",
              "name": "enHerencia",
              "type": "bool"
            }
          ],
          "internalType": "struct Propiedades.Propiedad[]",
          "name": "",
          "type": "tuple[]"
        }
      ],
      "stateMutability": "view",
      "type": "function",
      "constant": true
    },
    {
      "inputs": [
        {
          "internalType": "string",
          "name": "_ciPersona",
          "type": "string"
        }
      ],
      "name": "contarPropiedadesPorCI",
      "outputs": [
        {
          "internalType": "uint256",
          "name": "",
          "type": "uint256"
        }
      ],
      "stateMutability": "view",
      "type": "function",
      "constant": true
    },
    {
      "inputs": [
        {
          "internalType": "uint256",
          "name": "_idPropiedad",
          "type": "uint256"
        },
        {
          "internalType": "string",
          "name": "_ciDuenoActual",
          "type": "string"
        }
      ],
      "name": "marcarEnHerencia",
      "outputs": [],
      "stateMutability": "nonpayable",
      "type": "function"
    },
    {
      "inputs": [],
      "name": "totalPropiedades",
      "outputs": [
        {
          "internalType": "uint256",
          "name": "",
          "type": "uint256"
        }
      ],
      "stateMutability": "view",
      "type": "function",
      "constant": true
    }
  ],
  "bytecode": "0x60806040526001805534801561001457600080fd5b506040516114a63803806114a683398101604081905261003391610058565b600080546001600160a01b0319166001600160a01b0392909216919091179055610088565b60006020828403121561006a57600080fd5b81516001600160a01b038116811461008157600080fd5b9392505050565b61140f806100976000396000f3fe608060405234801561001057600080fd5b506004361061007d5760003560e01c806370c7bf081161005b57806370c7bf08146100c55780638f61a8b6146100ed578063ac9175d31461010d578063b6faad051461012057600080fd5b80632d07b41a1461008257806349302a74146100975780635b4f803e146100b2575b600080fd5b610095610090366004610de7565b610140565b005b61009f610536565b6040519081526020015b60405180910390f35b6100956100c0366004610e54565b61054b565b61009f6100d3366004610e9b565b805160209182012060009081526003909152604090205490565b6101006100fb366004610ed8565b61061f565b6040516100a99190610fa4565b61009561011b366004610fbe565b6107fd565b61013361012e366004610e9b565b610a5b565b6040516100a99190611018565b6000838152600260205260408120805490910361019a5760405162461bcd60e51b815260206004820152601360248201527250726f706965646164206e6f2065786973746560681b60448201526064015b60405180910390fd5b825160208401206040516101b29060028401906110b4565b6040518091039020146102015760405162461bcd60e51b8152602060048201526017602482015276139bc8195c995cc8195b08191d595b9bc81858dd1d585b604a1b6044820152606401610191565b60008054604051634553262f60e11b81526001600160a01b0390911690638aa64c5e9061023290869060040161112a565b602060405180830381865afa15801561024f573d6000803e3d6000fd5b505050506040513d601f19601f82011682018060405250810190610273919061113d565b6000805460405163fba82d1d60e01b81526004810184905292935090916001600160a01b039091169063fba82d1d90602401600060405180830381865afa1580156102c2573d6000803e3d6000fd5b505050506040513d6000823e601f3d908101601f191682016040526102ea9190810190611156565b9150506001600160a01b0381166103355760405162461bcd60e51b815260206004820152600f60248201526e57616c6c657420696e76616c69646160881b6044820152606401610191565b60008360020180546103469061107a565b80601f01602080910402602001604051908101604052809291908181526020018280546103729061107a565b80156103bf5780601f10610394576101008083540402835291602001916103bf565b820191906000526020600020905b8154815290600101906020018083116103a257829003601f168201915b50505050509050848460020190816103d7919061123f565b50600384810180546001600160a01b0319166001600160a01b0385161790558151602080840191909120600090815291905260408120905b81548110156104c3578882828154811061042b5761042b6112ff565b9060005260206000200154036104b1578154829061044b9060019061132b565b8154811061045b5761045b6112ff565b9060005260206000200154828281548110610478576104786112ff565b90600052602060002001819055508180548061049657610496611344565b600190038181906000526020600020016000905590556104c3565b806104bb8161135a565b91505061040f565b5085516020808801919091206000908152600382526040808220805460018101825590835292909120909101899055517f33af3e809db3134fbfa31b77f3d35dafc9584028ca38332aa8857ea6d2353be890610524908a9085908a90611373565b60405180910390a15050505050505050565b600060018054610546919061132b565b905090565b600082815260026020526040812080549091036105a05760405162461bcd60e51b815260206004820152601360248201527250726f706965646164206e6f2065786973746560681b6044820152606401610191565b815160208301206040516105b89060028401906110b4565b6040518091039020146106075760405162461bcd60e51b8152602060048201526017602482015276139bc8195c995cc8195b08191d595b9bc81858dd1d585b604a1b6044820152606401610191565b600301805460ff60a01b1916600160a01b1790555050565b610627610ce8565b60008281526002602052604081205490036106845760405162461bcd60e51b815260206004820152601760248201527f50726f706965646164206e6f20656e636f6e74726164610000000000000000006044820152606401610191565b600260008381526020019081526020016000206040518060a0016040529081600082015481526020016001820180546106bc9061107a565b80601f01602080910402602001604051908101604052809291908181526020018280546106e89061107a565b80156107355780601f1061070a57610100808354040283529160200191610735565b820191906000526020600020905b81548152906001019060200180831161071857829003601f168201915b5050505050815260200160028201805461074e9061107a565b80601f016020809104026020016040519081016040528092919081815260200182805461077a9061107a565b80156107c75780601f1061079c576101008083540402835291602001916107c7565b820191906000526020600020905b8154815290600101906020018083116107aa57829003601f168201915b5050509183525050600391909101546001600160a01b0381166020830152600160a01b900460ff16151560409091015292915050565b60008054604051634553262f60e11b81526001600160a01b0390911690638aa64c5e9061082e90869060040161112a565b602060405180830381865afa15801561084b573d6000803e3d6000fd5b505050506040513d601f19601f8201168201806040525081019061086f919061113d565b6000805460405163fba82d1d60e01b81526004810184905292935090916001600160a01b039091169063fba82d1d90602401600060405180830381865afa1580156108be573d6000803e3d6000fd5b505050506040513d6000823e601f3d908101601f191682016040526108e69190810190611156565b9150506001600160a01b0381166109315760405162461bcd60e51b815260206004820152600f60248201526e57616c6c657420696e76616c69646160881b6044820152606401610191565b60018054600091826109428361135a565b909155506040805160a08101825282815260208082018881528284018a90526001600160a01b0387166060840152600060808401819052858152600290925292902081518155915192935091600182019061099d908261123f565b50604082015160028201906109b2908261123f565b506060820151600391820180546080909401511515600160a01b026001600160a81b03199094166001600160a01b03909216919091179290921790915585516020808801919091206000908152918152604080832080546001810182559084529190922001829055517f4bfdbe4ee34bee845e9e9c570afcd88b745f871918c672d855fedccf3066e79b90610a4c908390889086906113a8565b60405180910390a15050505050565b805160208083019190912060009081526003825260408082208054825181860281018601909352808352606094830182828015610ab757602002820191906000526020600020905b815481526020019060010190808311610aa3575b505050505090506000815167ffffffffffffffff811115610ada57610ada610d22565b604051908082528060200260200182016040528015610b1357816020015b610b00610ce8565b815260200190600190039081610af85790505b50905060005b8251811015610ce05760026000848381518110610b3857610b386112ff565b602002602001015181526020019081526020016000206040518060a001604052908160008201548152602001600182018054610b739061107a565b80601f0160208091040260200160405190810160405280929190818152602001828054610b9f9061107a565b8015610bec5780601f10610bc157610100808354040283529160200191610bec565b820191906000526020600020905b815481529060010190602001808311610bcf57829003601f168201915b50505050508152602001600282018054610c059061107a565b80601f0160208091040260200160405190810160405280929190818152602001828054610c319061107a565b8015610c7e5780601f10610c5357610100808354040283529160200191610c7e565b820191906000526020600020905b815481529060010190602001808311610c6157829003601f168201915b5050509183525050600391909101546001600160a01b0381166020830152600160a01b900460ff1615156040909101528251839083908110610cc257610cc26112ff565b60200260200101819052508080610cd89061135a565b915050610b19565b509392505050565b6040518060a0016040528060008152602001606081526020016060815260200160006001600160a01b031681526020016000151581525090565b634e487b7160e01b600052604160045260246000fd5b604051601f8201601f1916810167ffffffffffffffff81118282101715610d6157610d61610d22565b604052919050565b600067ffffffffffffffff821115610d8357610d83610d22565b50601f01601f191660200190565b600082601f830112610da257600080fd5b8135610db5610db082610d69565b610d38565b818152846020838601011115610dca57600080fd5b816020850160208301376000918101602001919091529392505050565b600080600060608486031215610dfc57600080fd5b83359250602084013567ffffffffffffffff80821115610e1b57600080fd5b610e2787838801610d91565b93506040860135915080821115610e3d57600080fd5b50610e4a86828701610d91565b9150509250925092565b60008060408385031215610e6757600080fd5b82359150602083013567ffffffffffffffff811115610e8557600080fd5b610e9185828601610d91565b9150509250929050565b600060208284031215610ead57600080fd5b813567ffffffffffffffff811115610ec457600080fd5b610ed084828501610d91565b949350505050565b600060208284031215610eea57600080fd5b5035919050565b60005b83811015610f0c578181015183820152602001610ef4565b50506000910152565b60008151808452610f2d816020860160208601610ef1565b601f01601f19169290920160200192915050565b805182526000602082015160a06020850152610f6060a0850182610f15565b905060408301518482036040860152610f798282610f15565b6060858101516001600160a01b03169087015260809485015115159490950193909352509192915050565b602081526000610fb76020830184610f41565b9392505050565b60008060408385031215610fd157600080fd5b823567ffffffffffffffff80821115610fe957600080fd5b610ff586838701610d91565b9350602085013591508082111561100b57600080fd5b50610e9185828601610d91565b6000602080830181845280855180835260408601915060408160051b870101925083870160005b8281101561106d57603f1988860301845261105b858351610f41565b9450928501929085019060010161103f565b5092979650505050505050565b600181811c9082168061108e57607f821691505b6020821081036110ae57634e487b7160e01b600052602260045260246000fd5b50919050565b60008083546110c28161107a565b600182811680156110da57600181146110ef5761111e565b60ff198416875282151583028701945061111e565b8760005260208060002060005b858110156111155781548a8201529084019082016110fc565b50505082870194505b50929695505050505050565b602081526000610fb76020830184610f15565b60006020828403121561114f57600080fd5b5051919050565b6000806040838503121561116957600080fd5b825167ffffffffffffffff81111561118057600080fd5b8301601f8101851361119157600080fd5b805161119f610db082610d69565b8181528660208385010111156111b457600080fd5b6111c5826020830160208601610ef1565b60208601519094509150506001600160a01b03811681146111e557600080fd5b809150509250929050565b601f82111561123a57600081815260208120601f850160051c810160208610156112175750805b601f850160051c820191505b8181101561123657828155600101611223565b5050505b505050565b815167ffffffffffffffff81111561125957611259610d22565b61126d81611267845461107a565b846111f0565b602080601f8311600181146112a2576000841561128a5750858301515b600019600386901b1c1916600185901b178555611236565b600085815260208120601f198616915b828110156112d1578886015182559484019460019091019084016112b2565b50858210156112ef5787850151600019600388901b60f8161c191681555b5050505050600190811b01905550565b634e487b7160e01b600052603260045260246000fd5b634e487b7160e01b600052601160045260246000fd5b8181038181111561133e5761133e611315565b92915050565b634e487b7160e01b600052603160045260246000fd5b60006001820161136c5761136c611315565b5060010190565b83815260606020820152600061138c6060830185610f15565b828103604084015261139e8185610f15565b9695505050505050565b8381526060602082015260006113c16060830185610f15565b905060018060a01b038316604083015294935050505056fea26469706673582212208bc577cea20d8e9b7296c5e7b3928d58a6b4c9f8eaff34dbffc15382ddd2898864736f6c63430008130033",
  "immutableReferences": {},
  "source": "// SPDX-License-Identifier: MIT\r\npragma solidity ^0.8.19;\r\n\r\nimport \"./IPersonas.sol\";\r\n\r\ncontract Propiedades {\r\n    IPersonas private personasContract;\r\n\r\n    constructor(address _personasAddress) {\r\n        personasContract = IPersonas(_personasAddress);\r\n    }\r\n\r\n    struct Propiedad {\r\n        uint256 idPropiedad;\r\n        string descripcion;\r\n        string ciDueno;\r\n        address walletDueno; // se mantiene para trazabilidad, pero no se usa en validaciones\r\n        bool enHerencia;\r\n    }\r\n\r\n    uint256 private nextPropId = 1;\r\n    mapping(uint256 => Propiedad) private propiedades;\r\n    mapping(bytes32 => uint256[]) private propiedadesPorCI; //  usamos hash de CI para eficiencia\r\n\r\n    event PropiedadRegistrada(uint256 idPropiedad, string ciDueno, address walletDueno);\r\n    event PropiedadTransferida(uint256 idPropiedad, string ciAnteriorDueno, string ciNuevoDueno);\r\n\r\n    // Registrar propiedad VALIDANDO CI contra Personas\r\n    function registrarPropiedad(string memory _ciDueno, string memory _descripcion) public {\r\n        uint256 idPersona = personasContract.obtenerIdPorCi(_ciDueno);\r\n        (, address wallet) = personasContract.obtenerIdentidad(idPersona);\r\n\r\n        require(wallet != address(0), \"Wallet invalida\");\r\n\r\n        uint256 idProp = nextPropId++;\r\n        propiedades[idProp] = Propiedad({\r\n            idPropiedad: idProp,\r\n            descripcion: _descripcion,\r\n            ciDueno: _ciDueno,\r\n            walletDueno: wallet,\r\n            enHerencia: false\r\n        });\r\n\r\n        propiedadesPorCI[keccak256(bytes(_ciDueno))].push(idProp);\r\n\r\n        emit PropiedadRegistrada(idProp, _ciDueno, wallet);\r\n    }\r\n\r\n    // Transferir propiedad a nuevo CI (validacin por CI, no por wallet)\r\n    function transferirPropiedad(uint256 _idPropiedad, string memory _ciDuenoActual, string memory _ciNuevoDueno) public {\r\n        Propiedad storage prop = propiedades[_idPropiedad];\r\n        require(prop.idPropiedad != 0, \"Propiedad no existe\");\r\n\r\n        //  Validacin por CI\r\n        require(\r\n            keccak256(bytes(prop.ciDueno)) == keccak256(bytes(_ciDuenoActual)),\r\n            \"No eres el dueno actual\"\r\n        );\r\n\r\n        // Obtener wallet del nuevo dueo desde Personas\r\n        uint256 idNuevo = personasContract.obtenerIdPorCi(_ciNuevoDueno);\r\n        (, address walletNuevo) = personasContract.obtenerIdentidad(idNuevo);\r\n        require(walletNuevo != address(0), \"Wallet invalida\");\r\n\r\n        string memory ciAnteriorDueno = prop.ciDueno;\r\n\r\n        //  Actualizar propiedad\r\n        prop.ciDueno = _ciNuevoDueno;\r\n        prop.walletDueno = walletNuevo;\r\n\r\n        //  Eliminar del array del dueo anterior\r\n        uint256[] storage idsAnterior = propiedadesPorCI[keccak256(bytes(ciAnteriorDueno))];\r\n        for (uint256 i = 0; i < idsAnterior.length; i++) {\r\n            if (idsAnterior[i] == _idPropiedad) {\r\n                idsAnterior[i] = idsAnterior[idsAnterior.length - 1];\r\n                idsAnterior.pop();\r\n                break;\r\n            }\r\n        }\r\n\r\n        //  Agregar al nuevo dueo\r\n        propiedadesPorCI[keccak256(bytes(_ciNuevoDueno))].push(_idPropiedad);\r\n\r\n        emit PropiedadTransferida(_idPropiedad, ciAnteriorDueno, _ciNuevoDueno);\r\n    }\r\n\r\n    // Consultar propiedad por ID\r\n    function obtenerPropiedad(uint256 _idPropiedad) public view returns (Propiedad memory) {\r\n        require(propiedades[_idPropiedad].idPropiedad != 0, \"Propiedad no encontrada\");\r\n        return propiedades[_idPropiedad];\r\n    }\r\n\r\n    // Listar todas las propiedades de un usuario segn su CI\r\n    function listarPropiedadesPorCI(string memory _ciPersona) public view returns (Propiedad[] memory) {\r\n        uint256[] memory ids = propiedadesPorCI[keccak256(bytes(_ciPersona))];\r\n        Propiedad[] memory result = new Propiedad[](ids.length);\r\n\r\n        for (uint256 i = 0; i < ids.length; i++) {\r\n            result[i] = propiedades[ids[i]];\r\n        }\r\n        return result;\r\n    }\r\n\r\n    // Contar propiedades de un usuario por CI\r\n    function contarPropiedadesPorCI(string memory _ciPersona) public view returns (uint256) {\r\n        return propiedadesPorCI[keccak256(bytes(_ciPersona))].length;\r\n    }\r\n\r\n    // Marcar propiedad como en herencia (validacin por CI)\r\n    function marcarEnHerencia(uint256 _idPropiedad, string memory _ciDuenoActual) public {\r\n        Propiedad storage prop = propiedades[_idPropiedad];\r\n        require(prop.idPropiedad != 0, \"Propiedad no existe\");\r\n\r\n        //  Validacin por CI\r\n        require(\r\n            keccak256(bytes(prop.ciDueno)) == keccak256(bytes(_ciDuenoActual)),\r\n            \"No eres el dueno actual\"\r\n        );\r\n\r\n        prop.enHerencia = true;\r\n    }\r\n\r\n    // Total de propiedades registradas\r\n    function totalPropiedades() public view returns (uint256) {\r\n        return nextPropId - 1;\r\n    }\r\n}\r\n",
  "sourcePath": "C:\\Users\\Usuario\\Desktop\\RegistroDeHerencia\\RegistroDeHerencia\\BlockChain\\RegistroDeHerencia\\contracts\\Propiedades.sol",
  "compiler": {
    "name": "solc",
    "version": "0.8.19+commit.7dd6d404.Emscripten.clang"
  },
  "schemaVersion": "3.4.16",
  "updatedAt": "2025-12-18T02:26:30.969Z",
  "networkType": "ethereum",
  "devdoc": {
    "kind": "dev",
    "methods": {},
    "version": 1
  },
  "userdoc": {
    "kind": "user",
    "methods": {},
    "version": 1
  }
}