{
  "contractName": "HerenciaConRegistro",
  "abi": [
    {
      "inputs": [
        {
          "internalType": "address",
          "name": "_direccionPersonas",
          "type": "address"
        },
        {
          "internalType": "string",
          "name": "_ciTestador",
          "type": "string"
        },
        {
          "internalType": "string",
          "name": "_ciHeredero",
          "type": "string"
        },
        {
          "internalType": "address",
          "name": "_walletHeredero",
          "type": "address"
        },
        {
          "internalType": "uint256",
          "name": "_periodoEsperaDias",
          "type": "uint256"
        }
      ],
      "stateMutability": "payable",
      "type": "constructor",
      "payable": true
    },
    {
      "anonymous": false,
      "inputs": [
        {
          "indexed": false,
          "internalType": "string",
          "name": "_ciTestador",
          "type": "string"
        },
        {
          "indexed": false,
          "internalType": "string",
          "name": "_ciHeredero",
          "type": "string"
        },
        {
          "indexed": false,
          "internalType": "address",
          "name": "_walletHeredero",
          "type": "address"
        }
      ],
      "name": "HerenciaCreada",
      "type": "event"
    },
    {
      "anonymous": false,
      "inputs": [
        {
          "indexed": false,
          "internalType": "string",
          "name": "_ciHeredero",
          "type": "string"
        },
        {
          "indexed": true,
          "internalType": "address",
          "name": "_walletHeredero",
          "type": "address"
        },
        {
          "indexed": false,
          "internalType": "uint256",
          "name": "_monto",
          "type": "uint256"
        }
      ],
      "name": "HerenciaReclamada",
      "type": "event"
    },
    {
      "anonymous": false,
      "inputs": [
        {
          "indexed": true,
          "internalType": "address",
          "name": "_activador",
          "type": "address"
        }
      ],
      "name": "PruebaFallecimientoActivada",
      "type": "event"
    },
    {
      "inputs": [],
      "name": "ciHeredero",
      "outputs": [
        {
          "internalType": "string",
          "name": "",
          "type": "string"
        }
      ],
      "stateMutability": "view",
      "type": "function",
      "constant": true
    },
    {
      "inputs": [],
      "name": "ciTestador",
      "outputs": [
        {
          "internalType": "string",
          "name": "",
          "type": "string"
        }
      ],
      "stateMutability": "view",
      "type": "function",
      "constant": true
    },
    {
      "inputs": [],
      "name": "periodoEspera",
      "outputs": [
        {
          "internalType": "uint256",
          "name": "",
          "type": "uint256"
        }
      ],
      "stateMutability": "view",
      "type": "function",
      "constant": true
    },
    {
      "inputs": [],
      "name": "pruebaFallecimientoActivada",
      "outputs": [
        {
          "internalType": "bool",
          "name": "",
          "type": "bool"
        }
      ],
      "stateMutability": "view",
      "type": "function",
      "constant": true
    },
    {
      "inputs": [],
      "name": "registroCivil",
      "outputs": [
        {
          "internalType": "contract IPersonas",
          "name": "",
          "type": "address"
        }
      ],
      "stateMutability": "view",
      "type": "function",
      "constant": true
    },
    {
      "inputs": [],
      "name": "tiempoCreacion",
      "outputs": [
        {
          "internalType": "uint256",
          "name": "",
          "type": "uint256"
        }
      ],
      "stateMutability": "view",
      "type": "function",
      "constant": true
    },
    {
      "inputs": [],
      "name": "walletHeredero",
      "outputs": [
        {
          "internalType": "address",
          "name": "",
          "type": "address"
        }
      ],
      "stateMutability": "view",
      "type": "function",
      "constant": true
    },
    {
      "inputs": [],
      "name": "walletTestador",
      "outputs": [
        {
          "internalType": "address",
          "name": "",
          "type": "address"
        }
      ],
      "stateMutability": "view",
      "type": "function",
      "constant": true
    },
    {
      "stateMutability": "payable",
      "type": "receive",
      "payable": true
    },
    {
      "inputs": [],
      "name": "activarPruebaFallecimiento",
      "outputs": [],
      "stateMutability": "nonpayable",
      "type": "function"
    },
    {
      "inputs": [],
      "name": "obtenerDatosContrato",
      "outputs": [
        {
          "internalType": "string",
          "name": "_ciTestador",
          "type": "string"
        },
        {
          "internalType": "address",
          "name": "_walletTestador",
          "type": "address"
        },
        {
          "internalType": "bool",
          "name": "_pruebaFallecimientoActivada",
          "type": "bool"
        },
        {
          "internalType": "uint256",
          "name": "_balance",
          "type": "uint256"
        }
      ],
      "stateMutability": "view",
      "type": "function",
      "constant": true
    },
    {
      "inputs": [],
      "name": "reclamarHerencia",
      "outputs": [],
      "stateMutability": "nonpayable",
      "type": "function"
    },
    {
      "inputs": [],
      "name": "retirarFondos",
      "outputs": [],
      "stateMutability": "nonpayable",
      "type": "function"
    }
  ],
  "bytecode": "0x608060408190526007805460ff19169055620012dd388190039081908339810160408190526200002f9162000367565b6001600160a01b038516620000995760405162461bcd60e51b815260206004820152602660248201527f446972656363696f6e2064656c20526567697374726f20436976696c20696e7660448201526530b634b2309760d11b606482015260840160405180910390fd5b600080546001600160a01b0387166001600160a01b03199182168117909255600380549091163317905560405163d4ccd10960e01b815263d4ccd10990620000e690879060040162000401565b600060405180830381865afa15801562000104573d6000803e3d6000fd5b505050506040513d6000823e601f3d908101601f191682016040526200012e919081019062000446565b5060005460405163d4ccd10960e01b81526001600160a01b039091169063d4ccd109906200016190869060040162000401565b600060405180830381865afa1580156200017f573d6000803e3d6000fd5b505050506040513d6000823e601f3d908101601f19168201604052620001a9919081019062000446565b506001620001b885826200067e565b506002620001c784826200067e565b50600480546001600160a01b0319166001600160a01b038416179055620001f281620151806200074a565b600555426006556004546040517ff3f0780a13a90b4676a584e44dc42abf01b6ca4f6496f60cf894767ff6b3382f916200023e916001916002916001600160a01b0390911690620007fb565b60405180910390a150505050506200083d565b80516001600160a01b03811681146200026957600080fd5b919050565b634e487b7160e01b600052604160045260246000fd5b60405161014081016001600160401b0381118282101715620002aa57620002aa6200026e565b60405290565b60005b83811015620002cd578181015183820152602001620002b3565b50506000910152565b600082601f830112620002e857600080fd5b81516001600160401b03808211156200030557620003056200026e565b604051601f8301601f19908116603f011681019082821181831017156200033057620003306200026e565b816040528381528660208588010111156200034a57600080fd5b6200035d846020830160208901620002b0565b9695505050505050565b600080600080600060a086880312156200038057600080fd5b6200038b8662000251565b60208701519095506001600160401b0380821115620003a957600080fd5b620003b789838a01620002d6565b95506040880151915080821115620003ce57600080fd5b50620003dd88828901620002d6565b935050620003ee6060870162000251565b9150608086015190509295509295909350565b602081526000825180602084015262000422816040850160208701620002b0565b601f01601f19169190910160400192915050565b8051600381106200026957600080fd5b6000602082840312156200045957600080fd5b81516001600160401b03808211156200047157600080fd5b9083019061014082860312156200048757600080fd5b6200049162000284565b825182811115620004a157600080fd5b620004af87828601620002d6565b825250602083015182811115620004c557600080fd5b620004d387828601620002d6565b602083015250604083015182811115620004ec57600080fd5b620004fa87828601620002d6565b6040830152506200050e6060840162000436565b60608201526080830151608082015260a0830151828111156200053057600080fd5b6200053e87828601620002d6565b60a08301525060c0830151828111156200055757600080fd5b6200056587828601620002d6565b60c08301525060e0830151828111156200057e57600080fd5b6200058c87828601620002d6565b60e0830152506101008084015183811115620005a757600080fd5b620005b588828701620002d6565b8284015250506101208084015183811115620005d057600080fd5b620005de88828701620002d6565b918301919091525095945050505050565b600181811c908216806200060457607f821691505b6020821081036200062557634e487b7160e01b600052602260045260246000fd5b50919050565b601f8211156200067957600081815260208120601f850160051c81016020861015620006545750805b601f850160051c820191505b81811015620006755782815560010162000660565b5050505b505050565b81516001600160401b038111156200069a576200069a6200026e565b620006b281620006ab8454620005ef565b846200062b565b602080601f831160018114620006ea5760008415620006d15750858301515b600019600386901b1c1916600185901b17855562000675565b600085815260208120601f198616915b828110156200071b57888601518255948401946001909101908401620006fa565b50858210156200073a5787850151600019600388901b60f8161c191681555b5050505050600190811b01905550565b80820281158282048414176200077057634e487b7160e01b600052601160045260246000fd5b92915050565b600081546200078581620005ef565b808552602060018381168015620007a55760018114620007c057620007f0565b60ff1985168884015283151560051b880183019550620007f0565b866000528260002060005b85811015620007e85781548a8201860152908301908401620007cb565b890184019650505b505050505092915050565b60608152600062000810606083018662000776565b828103602084015262000824818662000776565b91505060018060a01b0383166040830152949350505050565b610a90806200084d6000396000f3fe6080604052600436106100ab5760003560e01c806368a84f451161006457806368a84f45146101995780638af01880146101be578063a147d2d7146101d5578063e7057744146101eb578063e71489c814610200578063eef060511461022057600080fd5b80630867d152146100b75780631bc552b9146100f457806328d90cf71461011e5780635275d1a8146101405780635c3ed7d81461015557806363fd4df91461017557600080fd5b366100b257005b600080fd5b3480156100c357600080fd5b506003546100d7906001600160a01b031681565b6040516001600160a01b0390911681526020015b60405180910390f35b34801561010057600080fd5b5060075461010e9060ff1681565b60405190151581526020016100eb565b34801561012a57600080fd5b50610133610235565b6040516100eb91906108f3565b34801561014c57600080fd5b506101336102c3565b34801561016157600080fd5b506000546100d7906001600160a01b031681565b34801561018157600080fd5b5061018b60055481565b6040519081526020016100eb565b3480156101a557600080fd5b506101ae6102d0565b6040516100eb949392919061090d565b3480156101ca57600080fd5b506101d361038f565b005b3480156101e157600080fd5b5061018b60065481565b3480156101f757600080fd5b506101d3610514565b34801561020c57600080fd5b506004546100d7906001600160a01b031681565b34801561022c57600080fd5b506101d3610617565b6001805461024290610945565b80601f016020809104026020016040519081016040528092919081815260200182805461026e90610945565b80156102bb5780601f10610290576101008083540402835291602001916102bb565b820191906000526020600020905b81548152906001019060200180831161029e57829003601f168201915b505050505081565b6002805461024290610945565b600354600754600180546060936000938493849390926001600160a01b03169160ff16904790849061030190610945565b80601f016020809104026020016040519081016040528092919081815260200182805461032d90610945565b801561037a5780601f1061034f5761010080835404028352916020019161037a565b820191906000526020600020905b81548152906001019060200180831161035d57829003601f168201915b50505050509350935093509350935090919293565b6003546001600160a01b031633146103fd5760405162461bcd60e51b815260206004820152602660248201527f536f6c6f20656c207465737461646f722070756564652072657469726172206660448201526537b73237b99760d11b60648201526084015b60405180910390fd5b60075460ff16156104695760405162461bcd60e51b815260206004820152603060248201527f4c6f7320666f6e646f7320796120657374616e20626c6f71756561646f73207060448201526f30b930903630903432b932b731b4b09760811b60648201526084016103f4565b60035460405147916000916001600160a01b039091169083908381818185875af1925050503d80600081146104ba576040519150601f19603f3d011682016040523d82523d6000602084013e6104bf565b606091505b50509050806105105760405162461bcd60e51b815260206004820152601a60248201527f456c2072657469726f20646520666f6e646f732066616c6c6f2e00000000000060448201526064016103f4565b5050565b6003546001600160a01b031633146105945760405162461bcd60e51b815260206004820152603e60248201527f536f6c6f20656c207465737461646f72202877616c6c6574206f726967696e6160448201527f6c29207075656465206163746976617220657374612066756e63696f6e2e000060648201526084016103f4565b60075460ff16156105dd5760405162461bcd60e51b815260206004820152601360248201527228393ab2b130903cb09030b1ba34bb30b2309760691b60448201526064016103f4565b6007805460ff1916600117905560405133907fa8bde853568529c4f5f15a1eb7173a35dfa29d075da2fcff516be1a35c2a7a5d90600090a2565b6004546001600160a01b0316331461068e5760405162461bcd60e51b815260206004820152603460248201527f536f6c6f206c612077616c6c65742076696e63756c61646120616c20686572656044820152733232b93790383ab2b232903932b1b630b6b0b91760611b60648201526084016103f4565b60075460ff166106fc5760405162461bcd60e51b815260206004820152603360248201527f4c61207072756562612064652066616c6c6563696d69656e746f2061756e206e604482015272379034309039b4b2379030b1ba34bb30b2309760691b60648201526084016103f4565b60055460065461070c919061097f565b42101561076e5760405162461bcd60e51b815260206004820152602a60248201527f456c20706572696f646f206465206573706572612061756e206e6f206861206660448201526934b730b634bd30b2379760b11b60648201526084016103f4565b47806107bc5760405162461bcd60e51b815260206004820152601c60248201527f4e6f2068617920666f6e646f732070617261207265636c616d61722e0000000060448201526064016103f4565b6004546040516000916001600160a01b03169083908381818185875af1925050503d8060008114610809576040519150601f19603f3d011682016040523d82523d6000602084013e61080e565b606091505b505090508061085f5760405162461bcd60e51b815260206004820181905260248201527f4c61207472616e73666572656e6369612064652045746865722066616c6c6f2e60448201526064016103f4565b6004546040516001600160a01b03909116907f7a5656087b2928e49bc0a6adaf2905d142594c14b7957930576ad8ec1946efcc906108a19060029086906109a6565b60405180910390a25050565b6000815180845260005b818110156108d3576020818501810151868301820152016108b7565b506000602082860101526020601f19601f83011685010191505092915050565b60208152600061090660208301846108ad565b9392505050565b60808152600061092060808301876108ad565b6001600160a01b03959095166020830152509115156040830152606090910152919050565b600181811c9082168061095957607f821691505b60208210810361097957634e487b7160e01b600052602260045260246000fd5b50919050565b808201808211156109a057634e487b7160e01b600052601160045260246000fd5b92915050565b60408152600080845481600182811c9150808316806109c657607f831692505b602080841082036109e557634e487b7160e01b86526022600452602486fd5b6040880184905260608801828015610a045760018114610a1a57610a45565b60ff198716825285151560051b82019750610a45565b60008c81526020902060005b87811015610a3f57815484820152908601908401610a26565b83019850505b5050969096019690965250909594505050505056fea264697066735822122053cdbd5d94a8519c62f60546eef8481c119a516b13dc48ca4f6b7da4ccad40d964736f6c63430008130033",
  "immutableReferences": {},
  "source": "// SPDX-License-Identifier: MIT\r\npragma solidity ^0.8.0;\r\n\r\n// =========================================================================\r\n// INTERFAZ DE PERSONAS (Alineada exactamente con el contrato Personas)\r\n// =========================================================================\r\ninterface IPersonas {\r\n    // Definicin del enum Genero\r\n    enum Genero { Masculino, Femenino, Otro }\r\n\r\n    // Estructura Persona (Sin el campo 'walletAddress' que no existe en el original)\r\n    struct Persona {\r\n        string nombres;\r\n        string apellidos;\r\n        string cedula;\r\n        Genero genero;\r\n        uint256 fechaNacimiento;\r\n        string lugarNacimiento;\r\n        string estadoCivil;\r\n        string direccion;\r\n        string telefono;\r\n        string profesion;\r\n    }\r\n    \r\n    // Funciones de consulta del contrato Personas\r\n    // (obtenerIdPorCi tambin es til, pero no es obligatoria para este caso)\r\n    function obtenerPersonaPorCI(string memory _cedula) external view returns (Persona memory);\r\n    function obtenerDatosPersona(uint256 _id) external view returns (Persona memory);\r\n}\r\n\r\n// =========================================================================\r\n// CONTRATO PRINCIPAL DE HERENCIA\r\n// =========================================================================\r\ncontract HerenciaConRegistro {\r\n    IPersonas public registroCivil; \r\n\r\n    // Identificadores y Wallets (Almacenamos las direcciones aqu ya que Personas no las tiene)\r\n    string public ciTestador; \r\n    string public ciHeredero; \r\n    address public walletTestador; // La wallet del testador (Quien despliega)\r\n    address public walletHeredero; // La wallet del heredero (Necesaria para el envo)\r\n    \r\n    uint public periodoEspera; \r\n    uint public tiempoCreacion; \r\n    bool public pruebaFallecimientoActivada = false;\r\n\r\n    // Eventos\r\n    event HerenciaCreada(string _ciTestador, string _ciHeredero, address _walletHeredero);\r\n    event PruebaFallecimientoActivada(address indexed _activador);\r\n    event HerenciaReclamada(string _ciHeredero, address indexed _walletHeredero, uint _monto);\r\n\r\n    /**\r\n     * @dev Constructor del contrato de herencia\r\n     * @param _direccionPersonas Direccin del contrato Personas ya desplegado\r\n     * @param _ciTestador CI de la persona que establece la herencia\r\n     * @param _ciHeredero CI de la persona que recibir la herencia\r\n     * @param _walletHeredero Direccin de la billetera del heredero (No est en Personas)\r\n     * @param _periodoEsperaDias Tiempo en das que debe transcurrir para reclamar\r\n     */\r\n    constructor(\r\n        address _direccionPersonas,\r\n        string memory _ciTestador, \r\n        string memory _ciHeredero, \r\n        address _walletHeredero, // **NUEVO CAMPO REQUERIDO**\r\n        uint _periodoEsperaDias\r\n    ) payable {\r\n        // 1. Asignar el contrato de Personas\r\n        require(_direccionPersonas != address(0), \"Direccion del Registro Civil invalida.\");\r\n        registroCivil = IPersonas(_direccionPersonas);\r\n\r\n        // 2. Seguridad: El que despliega debe ser el Testador\r\n        walletTestador = msg.sender;\r\n\r\n        // 3. Verificar que las CI existen usando el contrato Personas\r\n        // Si no existen, 'obtenerPersonaPorCI' lanzar un revert.\r\n        registroCivil.obtenerPersonaPorCI(_ciTestador);\r\n        registroCivil.obtenerPersonaPorCI(_ciHeredero);\r\n\r\n        // 4. Asignar variables de estado\r\n        ciTestador = _ciTestador;\r\n        ciHeredero = _ciHeredero;\r\n        walletHeredero = _walletHeredero; // Almacenamos la wallet del heredero\r\n        periodoEspera = _periodoEsperaDias * 1 days;\r\n        tiempoCreacion = block.timestamp;\r\n        \r\n        emit HerenciaCreada(ciTestador, ciHeredero, walletHeredero);\r\n    }\r\n\r\n    /**\r\n     * @dev Funcin para que el Testador active la \"prueba de fallecimiento\".\r\n     * Solo puede ser llamado por la wallet del Testador.\r\n     */\r\n    function activarPruebaFallecimiento() public {\r\n        // La seguridad se basa en que 'msg.sender' es la walletTestador original\r\n        require(msg.sender == walletTestador, \"Solo el testador (wallet original) puede activar esta funcion.\");\r\n        require(!pruebaFallecimientoActivada, \"Prueba ya activada.\");\r\n        \r\n        pruebaFallecimientoActivada = true;\r\n        emit PruebaFallecimientoActivada(msg.sender);\r\n    }\r\n\r\n    /**\r\n     * @dev Obtiene la informacin clave del testador y el estado de la herencia.\r\n     */\r\n    function obtenerDatosContrato() \r\n        public \r\n        view \r\n        returns (\r\n            string memory _ciTestador, \r\n            address _walletTestador, \r\n            bool _pruebaFallecimientoActivada,\r\n            uint _balance\r\n        ) \r\n    {\r\n        return (\r\n            ciTestador,\r\n            walletTestador,\r\n            pruebaFallecimientoActivada,\r\n            address(this).balance\r\n        );\r\n    }\r\n\r\n    /**\r\n     * @dev El heredero llama a esta funcin para reclamar los fondos.\r\n     * El Ether se enva a la direccin vinculada a su CI.\r\n     */\r\n    function reclamarHerencia() public {\r\n        // 1. Verificar que quien llama es la wallet del heredero predefinida\r\n        require(msg.sender == walletHeredero, \"Solo la wallet vinculada al heredero puede reclamar.\");\r\n        \r\n        // 2. Verificar que la prueba de fallecimiento ha sido activada\r\n        require(pruebaFallecimientoActivada, \"La prueba de fallecimiento aun no ha sido activada.\");\r\n\r\n        // 3. Verificar que ha pasado el periodo de espera\r\n        require(block.timestamp >= tiempoCreacion + periodoEspera, \"El periodo de espera aun no ha finalizado.\");\r\n\r\n        // 4. Obtener el saldo y transferir\r\n        uint monto = address(this).balance;\r\n        require(monto > 0, \"No hay fondos para reclamar.\");\r\n\r\n        // 5. Transferir todo el Ether a la wallet del heredero\r\n        (bool success, ) = payable(walletHeredero).call{value: monto}(\"\");\r\n        require(success, \"La transferencia de Ether fallo.\");\r\n\r\n        emit HerenciaReclamada(ciHeredero, walletHeredero, monto);\r\n    }\r\n\r\n    /**\r\n     * @dev Permite al Testador original retirar los fondos.\r\n     */\r\n    function retirarFondos() public {\r\n        require(msg.sender == walletTestador, \"Solo el testador puede retirar fondos.\");\r\n        require(!pruebaFallecimientoActivada, \"Los fondos ya estan bloqueados para la herencia.\");\r\n        \r\n        uint monto = address(this).balance;\r\n        (bool success, ) = payable(walletTestador).call{value: monto}(\"\");\r\n        require(success, \"El retiro de fondos fallo.\");\r\n    }\r\n\r\n    // Para recibir Ether\r\n    receive() external payable {}\r\n}",
  "sourcePath": "C:\\Users\\Cesar\\Documents\\GitHub\\RegistroDeHerencia\\BlockChain\\RegistroDeHerencia\\contracts\\Herencia.sol",
  "compiler": {
    "name": "solc",
    "version": "0.8.19+commit.7dd6d404.Emscripten.clang"
  },
  "schemaVersion": "3.4.16",
  "updatedAt": "2025-12-15T02:14:53.625Z",
  "networkType": "ethereum",
  "devdoc": {
    "kind": "dev",
    "methods": {
      "activarPruebaFallecimiento()": {
        "details": "Funcin para que el Testador active la \"prueba de fallecimiento\". Solo puede ser llamado por la wallet del Testador."
      },
      "constructor": {
        "details": "Constructor del contrato de herencia",
        "params": {
          "_ciHeredero": "CI de la persona que recibir la herencia",
          "_ciTestador": "CI de la persona que establece la herencia",
          "_direccionPersonas": "Direccin del contrato Personas ya desplegado",
          "_periodoEsperaDias": "Tiempo en das que debe transcurrir para reclamar",
          "_walletHeredero": "Direccin de la billetera del heredero (No est en Personas)"
        }
      },
      "obtenerDatosContrato()": {
        "details": "Obtiene la informacin clave del testador y el estado de la herencia."
      },
      "reclamarHerencia()": {
        "details": "El heredero llama a esta funcin para reclamar los fondos. El Ether se enva a la direccin vinculada a su CI."
      },
      "retirarFondos()": {
        "details": "Permite al Testador original retirar los fondos."
      }
    },
    "version": 1
  },
  "userdoc": {
    "kind": "user",
    "methods": {},
    "version": 1
  }
}