{
  "contractName": "Personas",
  "abi": [
    {
      "anonymous": false,
      "inputs": [
        {
          "indexed": false,
          "internalType": "uint256",
          "name": "id",
          "type": "uint256"
        },
        {
          "indexed": false,
          "internalType": "string",
          "name": "campo",
          "type": "string"
        }
      ],
      "name": "PersonaActualizada",
      "type": "event"
    },
    {
      "anonymous": false,
      "inputs": [
        {
          "indexed": false,
          "internalType": "uint256",
          "name": "id",
          "type": "uint256"
        },
        {
          "indexed": false,
          "internalType": "string",
          "name": "cedula",
          "type": "string"
        },
        {
          "indexed": false,
          "internalType": "address",
          "name": "wallet",
          "type": "address"
        }
      ],
      "name": "PersonaRegistrada",
      "type": "event"
    },
    {
      "inputs": [
        {
          "internalType": "string",
          "name": "_cedula",
          "type": "string"
        },
        {
          "internalType": "string",
          "name": "_nombres",
          "type": "string"
        },
        {
          "internalType": "string",
          "name": "_apellidos",
          "type": "string"
        },
        {
          "internalType": "address",
          "name": "_wallet",
          "type": "address"
        }
      ],
      "name": "registrarPersonaEsencial",
      "outputs": [],
      "stateMutability": "nonpayable",
      "type": "function"
    },
    {
      "inputs": [
        {
          "internalType": "uint256",
          "name": "_id",
          "type": "uint256"
        },
        {
          "internalType": "string",
          "name": "_nombres",
          "type": "string"
        },
        {
          "internalType": "string",
          "name": "_apellidos",
          "type": "string"
        },
        {
          "internalType": "string",
          "name": "_cedula",
          "type": "string"
        },
        {
          "internalType": "enum Personas.Genero",
          "name": "_genero",
          "type": "uint8"
        },
        {
          "internalType": "uint256",
          "name": "_fechaNacimiento",
          "type": "uint256"
        },
        {
          "internalType": "string",
          "name": "_lugarNacimiento",
          "type": "string"
        },
        {
          "internalType": "string",
          "name": "_estadoCivil",
          "type": "string"
        },
        {
          "internalType": "string",
          "name": "_direccion",
          "type": "string"
        },
        {
          "internalType": "string",
          "name": "_telefono",
          "type": "string"
        },
        {
          "internalType": "string",
          "name": "_profesion",
          "type": "string"
        },
        {
          "internalType": "address",
          "name": "_wallet",
          "type": "address"
        }
      ],
      "name": "registrarPersona",
      "outputs": [],
      "stateMutability": "nonpayable",
      "type": "function"
    },
    {
      "inputs": [
        {
          "internalType": "string",
          "name": "_ci",
          "type": "string"
        }
      ],
      "name": "obtenerIdPorCi",
      "outputs": [
        {
          "internalType": "uint256",
          "name": "",
          "type": "uint256"
        }
      ],
      "stateMutability": "view",
      "type": "function",
      "constant": true
    },
    {
      "inputs": [
        {
          "internalType": "string",
          "name": "_cedula",
          "type": "string"
        }
      ],
      "name": "obtenerPersonaPorCI",
      "outputs": [
        {
          "components": [
            {
              "internalType": "uint256",
              "name": "id",
              "type": "uint256"
            },
            {
              "internalType": "string",
              "name": "nombres",
              "type": "string"
            },
            {
              "internalType": "string",
              "name": "apellidos",
              "type": "string"
            },
            {
              "internalType": "string",
              "name": "cedula",
              "type": "string"
            },
            {
              "internalType": "enum Personas.Genero",
              "name": "genero",
              "type": "uint8"
            },
            {
              "internalType": "uint256",
              "name": "fechaNacimiento",
              "type": "uint256"
            },
            {
              "internalType": "string",
              "name": "lugarNacimiento",
              "type": "string"
            },
            {
              "internalType": "string",
              "name": "estadoCivil",
              "type": "string"
            },
            {
              "internalType": "string",
              "name": "direccion",
              "type": "string"
            },
            {
              "internalType": "string",
              "name": "telefono",
              "type": "string"
            },
            {
              "internalType": "string",
              "name": "profesion",
              "type": "string"
            },
            {
              "internalType": "address",
              "name": "wallet",
              "type": "address"
            }
          ],
          "internalType": "struct Personas.Persona",
          "name": "",
          "type": "tuple"
        }
      ],
      "stateMutability": "view",
      "type": "function",
      "constant": true
    },
    {
      "inputs": [
        {
          "internalType": "uint256",
          "name": "_id",
          "type": "uint256"
        }
      ],
      "name": "obtenerPersonaPorId",
      "outputs": [
        {
          "components": [
            {
              "internalType": "uint256",
              "name": "id",
              "type": "uint256"
            },
            {
              "internalType": "string",
              "name": "nombres",
              "type": "string"
            },
            {
              "internalType": "string",
              "name": "apellidos",
              "type": "string"
            },
            {
              "internalType": "string",
              "name": "cedula",
              "type": "string"
            },
            {
              "internalType": "enum Personas.Genero",
              "name": "genero",
              "type": "uint8"
            },
            {
              "internalType": "uint256",
              "name": "fechaNacimiento",
              "type": "uint256"
            },
            {
              "internalType": "string",
              "name": "lugarNacimiento",
              "type": "string"
            },
            {
              "internalType": "string",
              "name": "estadoCivil",
              "type": "string"
            },
            {
              "internalType": "string",
              "name": "direccion",
              "type": "string"
            },
            {
              "internalType": "string",
              "name": "telefono",
              "type": "string"
            },
            {
              "internalType": "string",
              "name": "profesion",
              "type": "string"
            },
            {
              "internalType": "address",
              "name": "wallet",
              "type": "address"
            }
          ],
          "internalType": "struct Personas.Persona",
          "name": "",
          "type": "tuple"
        }
      ],
      "stateMutability": "view",
      "type": "function",
      "constant": true
    },
    {
      "inputs": [
        {
          "internalType": "uint256",
          "name": "_id",
          "type": "uint256"
        },
        {
          "internalType": "string",
          "name": "_telefono",
          "type": "string"
        }
      ],
      "name": "actualizarTelefono",
      "outputs": [],
      "stateMutability": "nonpayable",
      "type": "function"
    },
    {
      "inputs": [
        {
          "internalType": "uint256",
          "name": "_id",
          "type": "uint256"
        },
        {
          "internalType": "string",
          "name": "_direccion",
          "type": "string"
        }
      ],
      "name": "actualizarDireccion",
      "outputs": [],
      "stateMutability": "nonpayable",
      "type": "function"
    },
    {
      "inputs": [
        {
          "internalType": "uint256",
          "name": "_id",
          "type": "uint256"
        }
      ],
      "name": "obtenerIdentidad",
      "outputs": [
        {
          "internalType": "string",
          "name": "",
          "type": "string"
        },
        {
          "internalType": "address",
          "name": "",
          "type": "address"
        }
      ],
      "stateMutability": "view",
      "type": "function",
      "constant": true
    },
    {
      "inputs": [
        {
          "internalType": "string",
          "name": "_ci",
          "type": "string"
        }
      ],
      "name": "obtenerIdentidadPorCI",
      "outputs": [
        {
          "internalType": "string",
          "name": "",
          "type": "string"
        },
        {
          "internalType": "address",
          "name": "",
          "type": "address"
        }
      ],
      "stateMutability": "view",
      "type": "function",
      "constant": true
    }
  ],
  "bytecode": "0x6080604052600160005534801561001557600080fd5b50612240806100256000396000f3fe608060405234801561001057600080fd5b50600436106100935760003560e01c8063b005c63011610066578063b005c6301461010a578063d4ccd1091461011d578063df2740be14610130578063faabff5b14610143578063fba82d1d1461016457600080fd5b80634bc7d1fa1461009857806375a6bc53146100c15780638aa64c5e146100d657806393976d9c146100f7575b600080fd5b6100ab6100a6366004611a82565b610177565b6040516100b89190611b23565b60405180910390f35b6100d46100cf366004611d08565b6106bf565b005b6100e96100e4366004611d4e565b610766565b6040519081526020016100b8565b6100d4610105366004611da6565b6107ef565b6100d4610118366004611e4d565b610a82565b6100ab61012b366004611d4e565b610d6b565b6100d461013e366004611d08565b6112fd565b610156610151366004611d4e565b611397565b6040516100b8929190611ffe565b610156610172366004611a82565b61191d565b61017f611a07565b600082118015610190575060005482105b6101b55760405162461bcd60e51b81526004016101ac90612028565b60405180910390fd5b60008281526001602081815260409283902083516101808101909452805484529182018054918401916101e79061204e565b80601f01602080910402602001604051908101604052809291908181526020018280546102139061204e565b80156102605780601f1061023557610100808354040283529160200191610260565b820191906000526020600020905b81548152906001019060200180831161024357829003601f168201915b505050505081526020016002820180546102799061204e565b80601f01602080910402602001604051908101604052809291908181526020018280546102a59061204e565b80156102f25780601f106102c7576101008083540402835291602001916102f2565b820191906000526020600020905b8154815290600101906020018083116102d557829003601f168201915b5050505050815260200160038201805461030b9061204e565b80601f01602080910402602001604051908101604052809291908181526020018280546103379061204e565b80156103845780601f1061035957610100808354040283529160200191610384565b820191906000526020600020905b81548152906001019060200180831161036757829003601f168201915b5050509183525050600482015460209091019060ff1660028111156103ab576103ab611aeb565b60028111156103bc576103bc611aeb565b8152602001600582015481526020016006820180546103da9061204e565b80601f01602080910402602001604051908101604052809291908181526020018280546104069061204e565b80156104535780601f1061042857610100808354040283529160200191610453565b820191906000526020600020905b81548152906001019060200180831161043657829003601f168201915b5050505050815260200160078201805461046c9061204e565b80601f01602080910402602001604051908101604052809291908181526020018280546104989061204e565b80156104e55780601f106104ba576101008083540402835291602001916104e5565b820191906000526020600020905b8154815290600101906020018083116104c857829003601f168201915b505050505081526020016008820180546104fe9061204e565b80601f016020809104026020016040519081016040528092919081815260200182805461052a9061204e565b80156105775780601f1061054c57610100808354040283529160200191610577565b820191906000526020600020905b81548152906001019060200180831161055a57829003601f168201915b505050505081526020016009820180546105909061204e565b80601f01602080910402602001604051908101604052809291908181526020018280546105bc9061204e565b80156106095780601f106105de57610100808354040283529160200191610609565b820191906000526020600020905b8154815290600101906020018083116105ec57829003601f168201915b50505050508152602001600a820180546106229061204e565b80601f016020809104026020016040519081016040528092919081815260200182805461064e9061204e565b801561069b5780601f106106705761010080835404028352916020019161069b565b820191906000526020600020905b81548152906001019060200180831161067e57829003601f168201915b5050509183525050600b91909101546001600160a01b031660209091015292915050565b6000821180156106d0575060005482105b6106ec5760405162461bcd60e51b81526004016101ac90612028565b600082815260016020526040902060080161070782826120d7565b507f7a1f4084e0ba91176034816a2dc49f5f0cd968e6bd93ba3b952da86bdc1d5ffb8260405161075a918152604060208201819052600990820152682234b932b1b1b4b7b760b91b606082015260800190565b60405180910390a15050565b60006002826040516107789190612196565b9081526020016040518091039020546000036107c95760405162461bcd60e51b815260206004820152601060248201526f4349206e6f207265676973747261646160801b60448201526064016101ac565b6002826040516107d99190612196565b9081526020016040518091039020549050919050565b6002846040516107ff9190612196565b9081526020016040518091039020546000146108505760405162461bcd60e51b815260206004820152601060248201526f4349207961207265676973747261646160801b60448201526064016101ac565b60008054818061085f836121b2565b919050559050806002866040516108769190612196565b9081526020016040518091039020819055506040518061018001604052808281526020018581526020018481526020018681526020016002808111156108be576108be611aeb565b815260006020808301829052604080518083018252838152818501528051808301825283815260608501528051808301825283815260808501528051808301825283815260a08501528051808301825283815260c08501526001600160a01b03871660e0909401939093528482526001808252929091208351815590830151909182019061094c90826120d7565b506040820151600282019061096190826120d7565b506060820151600382019061097690826120d7565b50608082015160048201805460ff1916600183600281111561099a5761099a611aeb565b021790555060a0820151600582015560c082015160068201906109bd90826120d7565b5060e082015160078201906109d290826120d7565b5061010082015160088201906109e890826120d7565b5061012082015160098201906109fe90826120d7565b50610140820151600a820190610a1490826120d7565b506101609190910151600b90910180546001600160a01b0319166001600160a01b039092169190911790556040517fa983eccbcbe589ac11496bf93a7aac9464d111ceade0593887e0e6fbb79d953890610a73908390889086906121d9565b60405180910390a15050505050565b60008c118015610a9357506000548c105b610aaf5760405162461bcd60e51b81526004016101ac90612028565b600289604051610abf9190612196565b90815260200160405180910390205460001480610af957508b60028a604051610ae89190612196565b908152602001604051809103902054145b610b455760405162461bcd60e51b815260206004820152601760248201527f4349206475706c6963616461206f20696e76616c69646100000000000000000060448201526064016101ac565b6040518061018001604052808d81526020018c81526020018b81526020018a8152602001896002811115610b7b57610b7b611aeb565b8152602001888152602001878152602001868152602001858152602001848152602001838152602001826001600160a01b0316815250600160008e8152602001908152602001600020600082015181600001556020820151816001019081610be391906120d7565b5060408201516002820190610bf890826120d7565b5060608201516003820190610c0d90826120d7565b50608082015160048201805460ff19166001836002811115610c3157610c31611aeb565b021790555060a0820151600582015560c08201516006820190610c5490826120d7565b5060e08201516007820190610c6990826120d7565b506101008201516008820190610c7f90826120d7565b506101208201516009820190610c9590826120d7565b50610140820151600a820190610cab90826120d7565b506101609190910151600b90910180546001600160a01b0319166001600160a01b039092169190911790556040518c90600290610ce9908c90612196565b9081526020016040518091039020819055507f7a1f4084e0ba91176034816a2dc49f5f0cd968e6bd93ba3b952da86bdc1d5ffb8c604051610d5591815260406020820181905260119082015270526567697374726f20636f6d706c65746f60781b606082015260800190565b60405180910390a1505050505050505050505050565b610d73611a07565b6000600283604051610d859190612196565b908152602001604051809103902054905080600003610df25760405162461bcd60e51b8152602060048201526024808201527f506572736f6e6120636f6e2065736120636564756c61206e6f20656e636f6e746044820152637261646160e01b60648201526084016101ac565b6000818152600160208181526040928390208351610180810190945280548452918201805491840191610e249061204e565b80601f0160208091040260200160405190810160405280929190818152602001828054610e509061204e565b8015610e9d5780601f10610e7257610100808354040283529160200191610e9d565b820191906000526020600020905b815481529060010190602001808311610e8057829003601f168201915b50505050508152602001600282018054610eb69061204e565b80601f0160208091040260200160405190810160405280929190818152602001828054610ee29061204e565b8015610f2f5780601f10610f0457610100808354040283529160200191610f2f565b820191906000526020600020905b815481529060010190602001808311610f1257829003601f168201915b50505050508152602001600382018054610f489061204e565b80601f0160208091040260200160405190810160405280929190818152602001828054610f749061204e565b8015610fc15780601f10610f9657610100808354040283529160200191610fc1565b820191906000526020600020905b815481529060010190602001808311610fa457829003601f168201915b5050509183525050600482015460209091019060ff166002811115610fe857610fe8611aeb565b6002811115610ff957610ff9611aeb565b8152602001600582015481526020016006820180546110179061204e565b80601f01602080910402602001604051908101604052809291908181526020018280546110439061204e565b80156110905780601f1061106557610100808354040283529160200191611090565b820191906000526020600020905b81548152906001019060200180831161107357829003601f168201915b505050505081526020016007820180546110a99061204e565b80601f01602080910402602001604051908101604052809291908181526020018280546110d59061204e565b80156111225780601f106110f757610100808354040283529160200191611122565b820191906000526020600020905b81548152906001019060200180831161110557829003601f168201915b5050505050815260200160088201805461113b9061204e565b80601f01602080910402602001604051908101604052809291908181526020018280546111679061204e565b80156111b45780601f10611189576101008083540402835291602001916111b4565b820191906000526020600020905b81548152906001019060200180831161119757829003601f168201915b505050505081526020016009820180546111cd9061204e565b80601f01602080910402602001604051908101604052809291908181526020018280546111f99061204e565b80156112465780601f1061121b57610100808354040283529160200191611246565b820191906000526020600020905b81548152906001019060200180831161122957829003601f168201915b50505050508152602001600a8201805461125f9061204e565b80601f016020809104026020016040519081016040528092919081815260200182805461128b9061204e565b80156112d85780601f106112ad576101008083540402835291602001916112d8565b820191906000526020600020905b8154815290600101906020018083116112bb57829003601f168201915b5050509183525050600b91909101546001600160a01b03166020909101529392505050565b60008211801561130e575060005482105b61132a5760405162461bcd60e51b81526004016101ac90612028565b600082815260016020526040902060090161134582826120d7565b507f7a1f4084e0ba91176034816a2dc49f5f0cd968e6bd93ba3b952da86bdc1d5ffb8260405161075a9181526040602082018190526008908201526754656c65666f6e6f60c01b606082015260800190565b60606000806002846040516113ac9190612196565b9081526020016040518091039020549050806000036114005760405162461bcd60e51b815260206004820152601060248201526f4349206e6f207265676973747261646160801b60448201526064016101ac565b6000818152600160208181526040808420815161018081019092528054825292830180549193928401916114339061204e565b80601f016020809104026020016040519081016040528092919081815260200182805461145f9061204e565b80156114ac5780601f10611481576101008083540402835291602001916114ac565b820191906000526020600020905b81548152906001019060200180831161148f57829003601f168201915b505050505081526020016002820180546114c59061204e565b80601f01602080910402602001604051908101604052809291908181526020018280546114f19061204e565b801561153e5780601f106115135761010080835404028352916020019161153e565b820191906000526020600020905b81548152906001019060200180831161152157829003601f168201915b505050505081526020016003820180546115579061204e565b80601f01602080910402602001604051908101604052809291908181526020018280546115839061204e565b80156115d05780601f106115a5576101008083540402835291602001916115d0565b820191906000526020600020905b8154815290600101906020018083116115b357829003601f168201915b5050509183525050600482015460209091019060ff1660028111156115f7576115f7611aeb565b600281111561160857611608611aeb565b8152602001600582015481526020016006820180546116269061204e565b80601f01602080910402602001604051908101604052809291908181526020018280546116529061204e565b801561169f5780601f106116745761010080835404028352916020019161169f565b820191906000526020600020905b81548152906001019060200180831161168257829003601f168201915b505050505081526020016007820180546116b89061204e565b80601f01602080910402602001604051908101604052809291908181526020018280546116e49061204e565b80156117315780601f1061170657610100808354040283529160200191611731565b820191906000526020600020905b81548152906001019060200180831161171457829003601f168201915b5050505050815260200160088201805461174a9061204e565b80601f01602080910402602001604051908101604052809291908181526020018280546117769061204e565b80156117c35780601f10611798576101008083540402835291602001916117c3565b820191906000526020600020905b8154815290600101906020018083116117a657829003601f168201915b505050505081526020016009820180546117dc9061204e565b80601f01602080910402602001604051908101604052809291908181526020018280546118089061204e565b80156118555780601f1061182a57610100808354040283529160200191611855565b820191906000526020600020905b81548152906001019060200180831161183857829003601f168201915b50505050508152602001600a8201805461186e9061204e565b80601f016020809104026020016040519081016040528092919081815260200182805461189a9061204e565b80156118e75780601f106118bc576101008083540402835291602001916118e7565b820191906000526020600020905b8154815290600101906020018083116118ca57829003601f168201915b5050509183525050600b91909101546001600160a01b031660209091015260608101516101609091015190969095509350505050565b606060008083118015611931575060005483105b61194d5760405162461bcd60e51b81526004016101ac90612028565b6000838152600160205260409020600b8101546003909101805490916001600160a01b031690829061197e9061204e565b80601f01602080910402602001604051908101604052809291908181526020018280546119aa9061204e565b80156119f75780601f106119cc576101008083540402835291602001916119f7565b820191906000526020600020905b8154815290600101906020018083116119da57829003601f168201915b5050505050915091509150915091565b6040518061018001604052806000815260200160608152602001606081526020016060815260200160006002811115611a4257611a42611aeb565b815260200160008152602001606081526020016060815260200160608152602001606081526020016060815260200160006001600160a01b031681525090565b600060208284031215611a9457600080fd5b5035919050565b60005b83811015611ab6578181015183820152602001611a9e565b50506000910152565b60008151808452611ad7816020860160208601611a9b565b601f01601f19169290920160200192915050565b634e487b7160e01b600052602160045260246000fd5b60038110611b1f57634e487b7160e01b600052602160045260246000fd5b9052565b602081528151602082015260006020830151610180806040850152611b4c6101a0850183611abf565b91506040850151601f1980868503016060870152611b6a8483611abf565b93506060870151915080868503016080870152611b878483611abf565b935060808701519150611b9d60a0870183611b01565b60a087015160c087015260c08701519150808685030160e0870152611bc28483611abf565b935060e08701519150610100818786030181880152611be18584611abf565b945080880151925050610120818786030181880152611c008584611abf565b945080880151925050610140818786030181880152611c1f8584611abf565b945080880151925050610160818786030181880152611c3e8584611abf565b94508088015192505050611c5c828601826001600160a01b03169052565b5090949350505050565b634e487b7160e01b600052604160045260246000fd5b600082601f830112611c8d57600080fd5b81356001600160401b0380821115611ca757611ca7611c66565b604051601f8301601f19908116603f01168101908282118183101715611ccf57611ccf611c66565b81604052838152866020858801011115611ce857600080fd5b836020870160208301376000602085830101528094505050505092915050565b60008060408385031215611d1b57600080fd5b8235915060208301356001600160401b03811115611d3857600080fd5b611d4485828601611c7c565b9150509250929050565b600060208284031215611d6057600080fd5b81356001600160401b03811115611d7657600080fd5b611d8284828501611c7c565b949350505050565b80356001600160a01b0381168114611da157600080fd5b919050565b60008060008060808587031215611dbc57600080fd5b84356001600160401b0380821115611dd357600080fd5b611ddf88838901611c7c565b95506020870135915080821115611df557600080fd5b611e0188838901611c7c565b94506040870135915080821115611e1757600080fd5b50611e2487828801611c7c565b925050611e3360608601611d8a565b905092959194509250565b803560038110611da157600080fd5b6000806000806000806000806000806000806101808d8f031215611e7057600080fd5b8c359b506001600160401b0360208e01351115611e8c57600080fd5b611e9c8e60208f01358f01611c7c565b9a506001600160401b0360408e01351115611eb657600080fd5b611ec68e60408f01358f01611c7c565b99506001600160401b0360608e01351115611ee057600080fd5b611ef08e60608f01358f01611c7c565b9850611efe60808e01611e3e565b975060a08d013596506001600160401b0360c08e01351115611f1f57600080fd5b611f2f8e60c08f01358f01611c7c565b95506001600160401b0360e08e01351115611f4957600080fd5b611f598e60e08f01358f01611c7c565b94506001600160401b036101008e01351115611f7457600080fd5b611f858e6101008f01358f01611c7c565b93506001600160401b036101208e01351115611fa057600080fd5b611fb18e6101208f01358f01611c7c565b92506001600160401b036101408e01351115611fcc57600080fd5b611fdd8e6101408f01358f01611c7c565b9150611fec6101608e01611d8a565b90509295989b509295989b509295989b565b6040815260006120116040830185611abf565b905060018060a01b03831660208301529392505050565b6020808252600c908201526b4944206e6f2076616c69646f60a01b604082015260600190565b600181811c9082168061206257607f821691505b60208210810361208257634e487b7160e01b600052602260045260246000fd5b50919050565b601f8211156120d257600081815260208120601f850160051c810160208610156120af5750805b601f850160051c820191505b818110156120ce578281556001016120bb565b5050505b505050565b81516001600160401b038111156120f0576120f0611c66565b612104816120fe845461204e565b84612088565b602080601f83116001811461213957600084156121215750858301515b600019600386901b1c1916600185901b1785556120ce565b600085815260208120601f198616915b8281101561216857888601518255948401946001909101908401612149565b50858210156121865787850151600019600388901b60f8161c191681555b5050505050600190811b01905550565b600082516121a8818460208701611a9b565b9190910192915050565b6000600182016121d257634e487b7160e01b600052601160045260246000fd5b5060010190565b8381526060602082015260006121f26060830185611abf565b905060018060a01b038316604083015294935050505056fea2646970667358221220d73438d2e80be6e235a8cf98e203927b5c37c4b4f06b3f8d04a77af78311c29e64736f6c63430008130033",
  "immutableReferences": {},
  "source": "// SPDX-License-Identifier: MIT\r\npragma solidity ^0.8.19;\r\n\r\ncontract Personas {\r\n    enum Genero { Masculino, Femenino, Otro }\r\n\r\n    struct Persona {\r\n        uint256 id;              //  Nuevo campo ID dentro del struct\r\n        string nombres;\r\n        string apellidos;\r\n        string cedula;\r\n        Genero genero;\r\n        uint256 fechaNacimiento;\r\n        string lugarNacimiento;\r\n        string estadoCivil;\r\n        string direccion;\r\n        string telefono;\r\n        string profesion;\r\n        address wallet;          // identidad blockchain\r\n    }\r\n\r\n    uint256 private nextId = 1;\r\n    mapping(uint256 => Persona) private personas;\r\n    mapping(string => uint256) private ciAIdPersona;\r\n\r\n    // Eventos para trazabilidad\r\n    event PersonaRegistrada(uint256 id, string cedula, address wallet);\r\n    event PersonaActualizada(uint256 id, string campo);\r\n\r\n    // Registro esencial con wallet\r\n    function registrarPersonaEsencial(\r\n        string memory _cedula,\r\n        string memory _nombres,\r\n        string memory _apellidos,\r\n        address _wallet\r\n    ) public {\r\n        require(ciAIdPersona[_cedula] == 0, \"CI ya registrada\");\r\n\r\n        uint256 id = nextId++;\r\n        ciAIdPersona[_cedula] = id;\r\n\r\n        personas[id] = Persona({\r\n            id: id,\r\n            nombres: _nombres,\r\n            apellidos: _apellidos,\r\n            cedula: _cedula,\r\n            genero: Genero.Otro,\r\n            fechaNacimiento: 0,\r\n            lugarNacimiento: \"\",\r\n            estadoCivil: \"\",\r\n            direccion: \"\",\r\n            telefono: \"\",\r\n            profesion: \"\",\r\n            wallet: _wallet\r\n        });\r\n\r\n        emit PersonaRegistrada(id, _cedula, _wallet);\r\n    }\r\n\r\n    // Registro completo (actualiza persona existente)\r\n    function registrarPersona(\r\n        uint256 _id,\r\n        string memory _nombres,\r\n        string memory _apellidos,\r\n        string memory _cedula,\r\n        Genero _genero,\r\n        uint256 _fechaNacimiento,\r\n        string memory _lugarNacimiento,\r\n        string memory _estadoCivil,\r\n        string memory _direccion,\r\n        string memory _telefono,\r\n        string memory _profesion,\r\n        address _wallet\r\n    ) public {\r\n        require(_id > 0 && _id < nextId, \"ID no valido\");\r\n        require(ciAIdPersona[_cedula] == 0 || ciAIdPersona[_cedula] == _id, \"CI duplicada o invalida\");\r\n\r\n        personas[_id] = Persona({\r\n            id: _id,\r\n            nombres: _nombres,\r\n            apellidos: _apellidos,\r\n            cedula: _cedula,\r\n            genero: _genero,\r\n            fechaNacimiento: _fechaNacimiento,\r\n            lugarNacimiento: _lugarNacimiento,\r\n            estadoCivil: _estadoCivil,\r\n            direccion: _direccion,\r\n            telefono: _telefono,\r\n            profesion: _profesion,\r\n            wallet: _wallet\r\n        });\r\n\r\n        ciAIdPersona[_cedula] = _id;\r\n\r\n        emit PersonaActualizada(_id, \"Registro completo\");\r\n    }\r\n\r\n    // Funciones de consulta\r\n    function obtenerIdPorCi(string memory _ci) public view returns (uint256) {\r\n        require(ciAIdPersona[_ci] != 0, \"CI no registrada\");\r\n        return ciAIdPersona[_ci];\r\n    }\r\n\r\n    function obtenerPersonaPorCI(string memory _cedula) public view returns (Persona memory) {\r\n        uint256 id = ciAIdPersona[_cedula];\r\n        require(id != 0, \"Persona con esa cedula no encontrada\");\r\n        return personas[id];\r\n    }\r\n\r\n    function obtenerPersonaPorId(uint256 _id) public view returns (Persona memory) {\r\n        require(_id > 0 && _id < nextId, \"ID no valido\");\r\n        return personas[_id];\r\n    }\r\n\r\n    // Funciones de actualizacin parcial\r\n    function actualizarTelefono(uint256 _id, string memory _telefono) public {\r\n        require(_id > 0 && _id < nextId, \"ID no valido\");\r\n        personas[_id].telefono = _telefono;\r\n        emit PersonaActualizada(_id, \"Telefono\");\r\n    }\r\n\r\n    function actualizarDireccion(uint256 _id, string memory _direccion) public {\r\n        require(_id > 0 && _id < nextId, \"ID no valido\");\r\n        personas[_id].direccion = _direccion;\r\n        emit PersonaActualizada(_id, \"Direccion\");\r\n    }\r\n\r\n    // Identidad rpida (para otros contratos)\r\n    function obtenerIdentidad(uint256 _id) public view returns (string memory, address) {\r\n        require(_id > 0 && _id < nextId, \"ID no valido\");\r\n        return (personas[_id].cedula, personas[_id].wallet);\r\n    }\r\n\r\n    function obtenerIdentidadPorCI(string memory _ci) public view returns (string memory, address) {\r\n        uint256 id = ciAIdPersona[_ci];\r\n        require(id != 0, \"CI no registrada\");\r\n        Persona memory p = personas[id];\r\n        return (p.cedula, p.wallet);\r\n    }\r\n}\r\n",
  "sourcePath": "C:\\Users\\Usuario\\Desktop\\RegistroDeHerencia\\RegistroDeHerencia\\BlockChain\\RegistroDeHerencia\\contracts\\Personas.sol",
  "compiler": {
    "name": "solc",
    "version": "0.8.19+commit.7dd6d404.Emscripten.clang"
  },
  "schemaVersion": "3.4.16",
  "updatedAt": "2025-12-16T02:52:42.464Z",
  "networkType": "ethereum",
  "devdoc": {
    "kind": "dev",
    "methods": {},
    "version": 1
  },
  "userdoc": {
    "kind": "user",
    "methods": {},
    "version": 1
  }
}