{
  "contractName": "Personas",
  "abi": [
    {
      "inputs": [
        {
          "internalType": "string",
          "name": "_cedula",
          "type": "string"
        },
        {
          "internalType": "string",
          "name": "_nombres",
          "type": "string"
        },
        {
          "internalType": "string",
          "name": "_apellidos",
          "type": "string"
        }
      ],
      "name": "registrarPersonaEsencial",
      "outputs": [],
      "stateMutability": "nonpayable",
      "type": "function"
    },
    {
      "inputs": [
        {
          "internalType": "uint256",
          "name": "_id",
          "type": "uint256"
        },
        {
          "internalType": "string",
          "name": "_nombres",
          "type": "string"
        },
        {
          "internalType": "string",
          "name": "_apellidos",
          "type": "string"
        },
        {
          "internalType": "string",
          "name": "_cedula",
          "type": "string"
        },
        {
          "internalType": "enum Personas.Genero",
          "name": "_genero",
          "type": "uint8"
        },
        {
          "internalType": "uint256",
          "name": "_fechaNacimiento",
          "type": "uint256"
        },
        {
          "internalType": "string",
          "name": "_lugarNacimiento",
          "type": "string"
        },
        {
          "internalType": "string",
          "name": "_estadoCivil",
          "type": "string"
        },
        {
          "internalType": "string",
          "name": "_direccion",
          "type": "string"
        },
        {
          "internalType": "string",
          "name": "_telefono",
          "type": "string"
        },
        {
          "internalType": "string",
          "name": "_profesion",
          "type": "string"
        }
      ],
      "name": "registrarPersona",
      "outputs": [],
      "stateMutability": "nonpayable",
      "type": "function"
    },
    {
      "inputs": [
        {
          "internalType": "string",
          "name": "_ci",
          "type": "string"
        }
      ],
      "name": "obtenerIdPorCi",
      "outputs": [
        {
          "internalType": "uint256",
          "name": "",
          "type": "uint256"
        }
      ],
      "stateMutability": "view",
      "type": "function",
      "constant": true
    },
    {
      "inputs": [
        {
          "internalType": "string",
          "name": "_cedula",
          "type": "string"
        }
      ],
      "name": "obtenerPersonaPorCI",
      "outputs": [
        {
          "components": [
            {
              "internalType": "string",
              "name": "nombres",
              "type": "string"
            },
            {
              "internalType": "string",
              "name": "apellidos",
              "type": "string"
            },
            {
              "internalType": "string",
              "name": "cedula",
              "type": "string"
            },
            {
              "internalType": "enum Personas.Genero",
              "name": "genero",
              "type": "uint8"
            },
            {
              "internalType": "uint256",
              "name": "fechaNacimiento",
              "type": "uint256"
            },
            {
              "internalType": "string",
              "name": "lugarNacimiento",
              "type": "string"
            },
            {
              "internalType": "string",
              "name": "estadoCivil",
              "type": "string"
            },
            {
              "internalType": "string",
              "name": "direccion",
              "type": "string"
            },
            {
              "internalType": "string",
              "name": "telefono",
              "type": "string"
            },
            {
              "internalType": "string",
              "name": "profesion",
              "type": "string"
            }
          ],
          "internalType": "struct Personas.Persona",
          "name": "",
          "type": "tuple"
        }
      ],
      "stateMutability": "view",
      "type": "function",
      "constant": true
    },
    {
      "inputs": [
        {
          "internalType": "uint256",
          "name": "_id",
          "type": "uint256"
        }
      ],
      "name": "obtenerPersonaPorId",
      "outputs": [
        {
          "components": [
            {
              "internalType": "string",
              "name": "nombres",
              "type": "string"
            },
            {
              "internalType": "string",
              "name": "apellidos",
              "type": "string"
            },
            {
              "internalType": "string",
              "name": "cedula",
              "type": "string"
            },
            {
              "internalType": "enum Personas.Genero",
              "name": "genero",
              "type": "uint8"
            },
            {
              "internalType": "uint256",
              "name": "fechaNacimiento",
              "type": "uint256"
            },
            {
              "internalType": "string",
              "name": "lugarNacimiento",
              "type": "string"
            },
            {
              "internalType": "string",
              "name": "estadoCivil",
              "type": "string"
            },
            {
              "internalType": "string",
              "name": "direccion",
              "type": "string"
            },
            {
              "internalType": "string",
              "name": "telefono",
              "type": "string"
            },
            {
              "internalType": "string",
              "name": "profesion",
              "type": "string"
            }
          ],
          "internalType": "struct Personas.Persona",
          "name": "",
          "type": "tuple"
        }
      ],
      "stateMutability": "view",
      "type": "function",
      "constant": true
    }
  ],
  "bytecode": "0x6080604052600160005534801561001557600080fd5b5061174f806100256000396000f3fe608060405234801561001057600080fd5b50600436106100575760003560e01c8063245bc3a81461005c5780634bc7d1fa146100715780638aa64c5e1461009a578063c8315e1c146100bb578063d4ccd109146100ce575b600080fd5b61006f61006a36600461119e565b6100e1565b005b61008461007f366004611311565b610339565b60405161009191906113b2565b60405180910390f35b6100ad6100a83660046114c8565b61087a565b604051908152602001610091565b61006f6100c9366004611505565b610903565b6100846100dc3660046114c8565b610b0e565b60008b1180156100f257506000548b105b6101325760405162461bcd60e51b815260206004820152600c60248201526b4944206e6f2076616c69646f60a01b60448201526064015b60405180910390fd5b600288604051610142919061158d565b9081526020016040518091039020546000148061017c57508a60028960405161016b919061158d565b908152602001604051809103902054145b6101c85760405162461bcd60e51b815260206004820152601760248201527f4349206475706c6963616461206f20696e76616c6964610000000000000000006044820152606401610129565b6040518061014001604052808b81526020018a81526020018981526020018860028111156101f8576101f861137a565b815260208082018990526040808301899052606083018890526080830187905260a0830186905260c090920184905260008e8152600190915220815181906102409082611632565b50602082015160018201906102559082611632565b506040820151600282019061026a9082611632565b50606082015160038201805460ff1916600183600281111561028e5761028e61137a565b02179055506080820151600482015560a082015160058201906102b19082611632565b5060c082015160068201906102c69082611632565b5060e082015160078201906102db9082611632565b5061010082015160088201906102f19082611632565b5061012082015160098201906103079082611632565b509050508a60028960405161031c919061158d565b908152604051908190036020019020555050505050505050505050565b610341611083565b600082118015610352575060005482105b61038d5760405162461bcd60e51b815260206004820152600c60248201526b4944206e6f2076616c69646f60a01b6044820152606401610129565b60008281526001602052604090819020815161014081019092528054829082906103b6906115a9565b80601f01602080910402602001604051908101604052809291908181526020018280546103e2906115a9565b801561042f5780601f106104045761010080835404028352916020019161042f565b820191906000526020600020905b81548152906001019060200180831161041257829003601f168201915b50505050508152602001600182018054610448906115a9565b80601f0160208091040260200160405190810160405280929190818152602001828054610474906115a9565b80156104c15780601f10610496576101008083540402835291602001916104c1565b820191906000526020600020905b8154815290600101906020018083116104a457829003601f168201915b505050505081526020016002820180546104da906115a9565b80601f0160208091040260200160405190810160405280929190818152602001828054610506906115a9565b80156105535780601f1061052857610100808354040283529160200191610553565b820191906000526020600020905b81548152906001019060200180831161053657829003601f168201915b5050509183525050600382015460209091019060ff16600281111561057a5761057a61137a565b600281111561058b5761058b61137a565b8152602001600482015481526020016005820180546105a9906115a9565b80601f01602080910402602001604051908101604052809291908181526020018280546105d5906115a9565b80156106225780601f106105f757610100808354040283529160200191610622565b820191906000526020600020905b81548152906001019060200180831161060557829003601f168201915b5050505050815260200160068201805461063b906115a9565b80601f0160208091040260200160405190810160405280929190818152602001828054610667906115a9565b80156106b45780601f10610689576101008083540402835291602001916106b4565b820191906000526020600020905b81548152906001019060200180831161069757829003601f168201915b505050505081526020016007820180546106cd906115a9565b80601f01602080910402602001604051908101604052809291908181526020018280546106f9906115a9565b80156107465780601f1061071b57610100808354040283529160200191610746565b820191906000526020600020905b81548152906001019060200180831161072957829003601f168201915b5050505050815260200160088201805461075f906115a9565b80601f016020809104026020016040519081016040528092919081815260200182805461078b906115a9565b80156107d85780601f106107ad576101008083540402835291602001916107d8565b820191906000526020600020905b8154815290600101906020018083116107bb57829003601f168201915b505050505081526020016009820180546107f1906115a9565b80601f016020809104026020016040519081016040528092919081815260200182805461081d906115a9565b801561086a5780601f1061083f5761010080835404028352916020019161086a565b820191906000526020600020905b81548152906001019060200180831161084d57829003601f168201915b5050505050815250509050919050565b600060028260405161088c919061158d565b9081526020016040518091039020546000036108dd5760405162461bcd60e51b815260206004820152601060248201526f4349206e6f207265676973747261646160801b6044820152606401610129565b6002826040516108ed919061158d565b9081526020016040518091039020549050919050565b600283604051610913919061158d565b9081526020016040518091039020546000146109645760405162461bcd60e51b815260206004820152601060248201526f4349207961207265676973747261646160801b6044820152606401610129565b600080548180610973836116f2565b9190505590508060028560405161098a919061158d565b9081526020016040518091039020819055506040518061014001604052808481526020018381526020018581526020016002808111156109cc576109cc61137a565b815260006020808301829052604080518083018252838152818501528051808301825283815260608501528051808301825283815260808501528051808301825283815260a08501528051808301825283815260c090940193909352848252600190522081518190610a3e9082611632565b5060208201516001820190610a539082611632565b5060408201516002820190610a689082611632565b50606082015160038201805460ff19166001836002811115610a8c57610a8c61137a565b02179055506080820151600482015560a08201516005820190610aaf9082611632565b5060c08201516006820190610ac49082611632565b5060e08201516007820190610ad99082611632565b506101008201516008820190610aef9082611632565b506101208201516009820190610b059082611632565b50505050505050565b610b16611083565b6000600283604051610b28919061158d565b908152602001604051809103902054905080600003610b955760405162461bcd60e51b8152602060048201526024808201527f506572736f6e6120636f6e2065736120636564756c61206e6f20656e636f6e746044820152637261646160e01b6064820152608401610129565b6000818152600160205260409081902081516101408101909252805482908290610bbe906115a9565b80601f0160208091040260200160405190810160405280929190818152602001828054610bea906115a9565b8015610c375780601f10610c0c57610100808354040283529160200191610c37565b820191906000526020600020905b815481529060010190602001808311610c1a57829003601f168201915b50505050508152602001600182018054610c50906115a9565b80601f0160208091040260200160405190810160405280929190818152602001828054610c7c906115a9565b8015610cc95780601f10610c9e57610100808354040283529160200191610cc9565b820191906000526020600020905b815481529060010190602001808311610cac57829003601f168201915b50505050508152602001600282018054610ce2906115a9565b80601f0160208091040260200160405190810160405280929190818152602001828054610d0e906115a9565b8015610d5b5780601f10610d3057610100808354040283529160200191610d5b565b820191906000526020600020905b815481529060010190602001808311610d3e57829003601f168201915b5050509183525050600382015460209091019060ff166002811115610d8257610d8261137a565b6002811115610d9357610d9361137a565b815260200160048201548152602001600582018054610db1906115a9565b80601f0160208091040260200160405190810160405280929190818152602001828054610ddd906115a9565b8015610e2a5780601f10610dff57610100808354040283529160200191610e2a565b820191906000526020600020905b815481529060010190602001808311610e0d57829003601f168201915b50505050508152602001600682018054610e43906115a9565b80601f0160208091040260200160405190810160405280929190818152602001828054610e6f906115a9565b8015610ebc5780601f10610e9157610100808354040283529160200191610ebc565b820191906000526020600020905b815481529060010190602001808311610e9f57829003601f168201915b50505050508152602001600782018054610ed5906115a9565b80601f0160208091040260200160405190810160405280929190818152602001828054610f01906115a9565b8015610f4e5780601f10610f2357610100808354040283529160200191610f4e565b820191906000526020600020905b815481529060010190602001808311610f3157829003601f168201915b50505050508152602001600882018054610f67906115a9565b80601f0160208091040260200160405190810160405280929190818152602001828054610f93906115a9565b8015610fe05780601f10610fb557610100808354040283529160200191610fe0565b820191906000526020600020905b815481529060010190602001808311610fc357829003601f168201915b50505050508152602001600982018054610ff9906115a9565b80601f0160208091040260200160405190810160405280929190818152602001828054611025906115a9565b80156110725780601f1061104757610100808354040283529160200191611072565b820191906000526020600020905b81548152906001019060200180831161105557829003601f168201915b505050505081525050915050919050565b604051806101400160405280606081526020016060815260200160608152602001600060028111156110b7576110b761137a565b81526020016000815260200160608152602001606081526020016060815260200160608152602001606081525090565b634e487b7160e01b600052604160045260246000fd5b600082601f83011261110e57600080fd5b813567ffffffffffffffff80821115611129576111296110e7565b604051601f8301601f19908116603f01168101908282118183101715611151576111516110e7565b8160405283815286602085880101111561116a57600080fd5b836020870160208301376000602085830101528094505050505092915050565b80356003811061119957600080fd5b919050565b60008060008060008060008060008060006101608c8e0312156111c057600080fd5b8b359a5067ffffffffffffffff8060208e013511156111de57600080fd5b6111ee8e60208f01358f016110fd565b9a508060408e0135111561120157600080fd5b6112118e60408f01358f016110fd565b99508060608e0135111561122457600080fd5b6112348e60608f01358f016110fd565b985061124260808e0161118a565b975060a08d013596508060c08e0135111561125c57600080fd5b61126c8e60c08f01358f016110fd565b95508060e08e0135111561127f57600080fd5b61128f8e60e08f01358f016110fd565b9450806101008e013511156112a357600080fd5b6112b48e6101008f01358f016110fd565b9350806101208e013511156112c857600080fd5b6112d98e6101208f01358f016110fd565b9250806101408e013511156112ed57600080fd5b506112ff8d6101408e01358e016110fd565b90509295989b509295989b9093969950565b60006020828403121561132357600080fd5b5035919050565b60005b8381101561134557818101518382015260200161132d565b50506000910152565b6000815180845261136681602086016020860161132a565b601f01601f19169290920160200192915050565b634e487b7160e01b600052602160045260246000fd5b600381106113ae57634e487b7160e01b600052602160045260246000fd5b9052565b60208152600082516101408060208501526113d161016085018361134e565b91506020850151601f19808685030160408701526113ef848361134e565b9350604087015191508086850301606087015261140c848361134e565b9350606087015191506114226080870183611390565b608087015160a087015260a08701519150808685030160c0870152611447848361134e565b935060c08701519150808685030160e0870152611464848361134e565b935060e08701519150610100818786030181880152611483858461134e565b9450808801519250506101208187860301818801526114a2858461134e565b9088015187820390920184880152935090506114be838261134e565b9695505050505050565b6000602082840312156114da57600080fd5b813567ffffffffffffffff8111156114f157600080fd5b6114fd848285016110fd565b949350505050565b60008060006060848603121561151a57600080fd5b833567ffffffffffffffff8082111561153257600080fd5b61153e878388016110fd565b9450602086013591508082111561155457600080fd5b611560878388016110fd565b9350604086013591508082111561157657600080fd5b50611583868287016110fd565b9150509250925092565b6000825161159f81846020870161132a565b9190910192915050565b600181811c908216806115bd57607f821691505b6020821081036115dd57634e487b7160e01b600052602260045260246000fd5b50919050565b601f82111561162d57600081815260208120601f850160051c8101602086101561160a5750805b601f850160051c820191505b8181101561162957828155600101611616565b5050505b505050565b815167ffffffffffffffff81111561164c5761164c6110e7565b6116608161165a84546115a9565b846115e3565b602080601f831160018114611695576000841561167d5750858301515b600019600386901b1c1916600185901b178555611629565b600085815260208120601f198616915b828110156116c4578886015182559484019460019091019084016116a5565b50858210156116e25787850151600019600388901b60f8161c191681555b5050505050600190811b01905550565b60006001820161171257634e487b7160e01b600052601160045260246000fd5b506001019056fea2646970667358221220d73c24a6adbc255605062e361138e429cc97b0af1054ddad7d9b3afb893c324964736f6c63430008130033",
  "immutableReferences": {},
  "source": "// SPDX-License-Identifier: MIT\r\npragma solidity ^0.8.0;\r\n\r\ncontract Personas {\r\n    enum Genero { Masculino, Femenino, Otro }\r\n\r\n    struct Persona {\r\n        string nombres;\r\n        string apellidos;\r\n        string cedula;\r\n        Genero genero;\r\n        uint256 fechaNacimiento;\r\n        string lugarNacimiento;\r\n        string estadoCivil;\r\n        string direccion;\r\n        string telefono;\r\n        string profesion;\r\n    }\r\n\r\n    uint256 private nextId = 1;\r\n    mapping(uint256 => Persona) private personas;\r\n    mapping(string => uint256) private ciAIdPersona;\r\n\r\n    function registrarPersonaEsencial(\r\n        string memory _cedula,\r\n        string memory _nombres,\r\n        string memory _apellidos\r\n    ) public {\r\n        require(ciAIdPersona[_cedula] == 0, \"CI ya registrada\");\r\n        uint256 id = nextId++;\r\n        ciAIdPersona[_cedula] = id;\r\n        personas[id] = Persona({\r\n            nombres: _nombres,\r\n            apellidos: _apellidos,\r\n            cedula: _cedula,\r\n            genero: Genero.Otro,\r\n            fechaNacimiento: 0,\r\n            lugarNacimiento: \"\",\r\n            estadoCivil: \"\",\r\n            direccion: \"\",\r\n            telefono: \"\",\r\n            profesion: \"\"\r\n        });\r\n    }\r\n\r\n    function registrarPersona(\r\n        uint256 _id,\r\n        string memory _nombres,\r\n        string memory _apellidos,\r\n        string memory _cedula,\r\n        Genero _genero,\r\n        uint256 _fechaNacimiento,\r\n        string memory _lugarNacimiento,\r\n        string memory _estadoCivil,\r\n        string memory _direccion,\r\n        string memory _telefono,\r\n        string memory _profesion\r\n    ) public {\r\n        require(_id > 0 && _id < nextId, \"ID no valido\");\r\n        require(ciAIdPersona[_cedula] == 0 || ciAIdPersona[_cedula] == _id, \"CI duplicada o invalida\");\r\n\r\n        personas[_id] = Persona({\r\n            nombres: _nombres,\r\n            apellidos: _apellidos,\r\n            cedula: _cedula,\r\n            genero: _genero,\r\n            fechaNacimiento: _fechaNacimiento,\r\n            lugarNacimiento: _lugarNacimiento,\r\n            estadoCivil: _estadoCivil,\r\n            direccion: _direccion,\r\n            telefono: _telefono,\r\n            profesion: _profesion\r\n        });\r\n\r\n        // Mantener sincronizado el mapping de CI\r\n        ciAIdPersona[_cedula] = _id;\r\n    }\r\n\r\n    function obtenerIdPorCi(string memory _ci) public view returns (uint256) {\r\n        require(ciAIdPersona[_ci] != 0, \"CI no registrada\");\r\n        return ciAIdPersona[_ci];\r\n    }\r\n\r\n    function obtenerPersonaPorCI(string memory _cedula) public view returns (Persona memory) {\r\n        uint256 id = ciAIdPersona[_cedula];\r\n        require(id != 0, \"Persona con esa cedula no encontrada\");\r\n        return personas[id];\r\n    }\r\n\r\n    function obtenerPersonaPorId(uint256 _id) public view returns (Persona memory) {\r\n        require(_id > 0 && _id < nextId, \"ID no valido\");\r\n        return personas[_id];\r\n    }\r\n}\r\n",
  "sourcePath": "C:\\Users\\Cesar\\Documents\\GitHub\\RegistroDeHerencia\\BlockChain\\RegistroDeHerencia\\contracts\\Persona.sol",
  "compiler": {
    "name": "solc",
    "version": "0.8.19+commit.7dd6d404.Emscripten.clang"
  },
  "schemaVersion": "3.4.16",
  "updatedAt": "2025-12-15T02:14:53.616Z",
  "networkType": "ethereum",
  "devdoc": {
    "kind": "dev",
    "methods": {},
    "version": 1
  },
  "userdoc": {
    "kind": "user",
    "methods": {},
    "version": 1
  }
}