{
  "contractName": "Propiedades",
  "abi": [
    {
      "inputs": [
        {
          "internalType": "address",
          "name": "_personasAddress",
          "type": "address"
        }
      ],
      "stateMutability": "nonpayable",
      "type": "constructor"
    },
    {
      "anonymous": false,
      "inputs": [
        {
          "indexed": false,
          "internalType": "uint256",
          "name": "idPropiedad",
          "type": "uint256"
        },
        {
          "indexed": false,
          "internalType": "string",
          "name": "ciDueno",
          "type": "string"
        },
        {
          "indexed": false,
          "internalType": "address",
          "name": "walletDueno",
          "type": "address"
        }
      ],
      "name": "PropiedadRegistrada",
      "type": "event"
    },
    {
      "anonymous": false,
      "inputs": [
        {
          "indexed": false,
          "internalType": "uint256",
          "name": "idPropiedad",
          "type": "uint256"
        },
        {
          "indexed": false,
          "internalType": "string",
          "name": "ciAnteriorDueno",
          "type": "string"
        },
        {
          "indexed": false,
          "internalType": "string",
          "name": "ciNuevoDueno",
          "type": "string"
        }
      ],
      "name": "PropiedadTransferida",
      "type": "event"
    },
    {
      "inputs": [
        {
          "internalType": "string",
          "name": "_ciDueno",
          "type": "string"
        },
        {
          "internalType": "string",
          "name": "_descripcion",
          "type": "string"
        }
      ],
      "name": "registrarPropiedad",
      "outputs": [],
      "stateMutability": "nonpayable",
      "type": "function"
    },
    {
      "inputs": [
        {
          "internalType": "uint256",
          "name": "_idPropiedad",
          "type": "uint256"
        },
        {
          "internalType": "string",
          "name": "_ciNuevoDueno",
          "type": "string"
        }
      ],
      "name": "transferirPropiedad",
      "outputs": [],
      "stateMutability": "nonpayable",
      "type": "function"
    },
    {
      "inputs": [
        {
          "internalType": "uint256",
          "name": "_idPropiedad",
          "type": "uint256"
        }
      ],
      "name": "obtenerPropiedad",
      "outputs": [
        {
          "components": [
            {
              "internalType": "uint256",
              "name": "idPropiedad",
              "type": "uint256"
            },
            {
              "internalType": "string",
              "name": "descripcion",
              "type": "string"
            },
            {
              "internalType": "string",
              "name": "ciDueno",
              "type": "string"
            },
            {
              "internalType": "address",
              "name": "walletDueno",
              "type": "address"
            },
            {
              "internalType": "bool",
              "name": "enHerencia",
              "type": "bool"
            }
          ],
          "internalType": "struct Propiedades.Propiedad",
          "name": "",
          "type": "tuple"
        }
      ],
      "stateMutability": "view",
      "type": "function",
      "constant": true
    },
    {
      "inputs": [
        {
          "internalType": "string",
          "name": "_ciPersona",
          "type": "string"
        }
      ],
      "name": "listarPropiedadesPorCI",
      "outputs": [
        {
          "components": [
            {
              "internalType": "uint256",
              "name": "idPropiedad",
              "type": "uint256"
            },
            {
              "internalType": "string",
              "name": "descripcion",
              "type": "string"
            },
            {
              "internalType": "string",
              "name": "ciDueno",
              "type": "string"
            },
            {
              "internalType": "address",
              "name": "walletDueno",
              "type": "address"
            },
            {
              "internalType": "bool",
              "name": "enHerencia",
              "type": "bool"
            }
          ],
          "internalType": "struct Propiedades.Propiedad[]",
          "name": "",
          "type": "tuple[]"
        }
      ],
      "stateMutability": "view",
      "type": "function",
      "constant": true
    },
    {
      "inputs": [
        {
          "internalType": "string",
          "name": "_ciPersona",
          "type": "string"
        }
      ],
      "name": "contarPropiedadesPorCI",
      "outputs": [
        {
          "internalType": "uint256",
          "name": "",
          "type": "uint256"
        }
      ],
      "stateMutability": "view",
      "type": "function",
      "constant": true
    },
    {
      "inputs": [
        {
          "internalType": "uint256",
          "name": "_idPropiedad",
          "type": "uint256"
        }
      ],
      "name": "marcarEnHerencia",
      "outputs": [],
      "stateMutability": "nonpayable",
      "type": "function"
    }
  ],
  "bytecode": "0x60806040526001805534801561001457600080fd5b5060405161114438038061114483398101604081905261003391610058565b600080546001600160a01b0319166001600160a01b0392909216919091179055610088565b60006020828403121561006a57600080fd5b81516001600160a01b038116811461008157600080fd5b9392505050565b6110ad806100976000396000f3fe608060405234801561001057600080fd5b50600436106100625760003560e01c806338fb6cd61461006757806370c7bf081461007c5780638f61a8b6146100a2578063ac9175d3146100c2578063ae4b62e5146100d5578063b6faad05146100e8575b600080fd5b61007a610075366004610b83565b610108565b005b61008f61008a366004610bca565b6102e8565b6040519081526020015b60405180910390f35b6100b56100b0366004610c07565b610310565b6040516100999190610cd3565b61007a6100d0366004610ced565b6104ee565b61007a6100e3366004610c07565b610776565b6100fb6100f6366004610bca565b6107ed565b6040516100999190610d47565b600082815260026020526040812080549091036101625760405162461bcd60e51b815260206004820152601360248201527250726f706965646164206e6f2065786973746560681b60448201526064015b60405180910390fd5b60038101546001600160a01b031633146101be5760405162461bcd60e51b815260206004820152601760248201527f4e6f206572657320656c206475656e6f2061637475616c0000000000000000006044820152606401610159565b60008160020180546101cf90610da9565b80601f01602080910402602001604051908101604052809291908181526020018280546101fb90610da9565b80156102485780601f1061021d57610100808354040283529160200191610248565b820191906000526020600020905b81548152906001019060200180831161022b57829003601f168201915b50505050509050828260020190816102609190610e32565b50600380830180546001600160a01b03191633179055604051610284908590610ef2565b908152604051908190036020908101822080546001810182556000918252919020018590557f33af3e809db3134fbfa31b77f3d35dafc9584028ca38332aa8857ea6d2353be8906102da90869084908790610f0e565b60405180910390a150505050565b60006003826040516102fa9190610ef2565b9081526040519081900360200190205492915050565b610318610a84565b60008281526002602052604081205490036103755760405162461bcd60e51b815260206004820152601760248201527f50726f706965646164206e6f20656e636f6e74726164610000000000000000006044820152606401610159565b600260008381526020019081526020016000206040518060a0016040529081600082015481526020016001820180546103ad90610da9565b80601f01602080910402602001604051908101604052809291908181526020018280546103d990610da9565b80156104265780601f106103fb57610100808354040283529160200191610426565b820191906000526020600020905b81548152906001019060200180831161040957829003601f168201915b5050505050815260200160028201805461043f90610da9565b80601f016020809104026020016040519081016040528092919081815260200182805461046b90610da9565b80156104b85780601f1061048d576101008083540402835291602001916104b8565b820191906000526020600020905b81548152906001019060200180831161049b57829003601f168201915b5050509183525050600391909101546001600160a01b0381166020830152600160a01b900460ff16151560409091015292915050565b60008054604051634553262f60e11b81526001600160a01b0390911690638aa64c5e9061051f908690600401610f43565b602060405180830381865afa15801561053c573d6000803e3d6000fd5b505050506040513d601f19601f820116820180604052508101906105609190610f56565b6000805460405163fba82d1d60e01b81526004810184905292935090916001600160a01b039091169063fba82d1d90602401600060405180830381865afa1580156105af573d6000803e3d6000fd5b505050506040513d6000823e601f3d908101601f191682016040526105d79190810190610f6f565b9150506001600160a01b03811633146106455760405162461bcd60e51b815260206004820152602a60248201527f536f6c6f20656c206475656e6f20707565646520726567697374726172207375604482015269081c1c9bdc1a5959185960b21b6064820152608401610159565b600180546000918261065683611009565b909155506040805160a08101825282815260208082018881528284018a90526001600160a01b038716606084015260006080840181905285815260029092529290208151815591519293509160018201906106b19082610e32565b50604082015160028201906106c69082610e32565b506060820151600391820180546080909401511515600160a01b026001600160a81b03199094166001600160a01b039092169190911792909217909155604051610711908790610ef2565b908152604051908190036020908101822080546001810182556000918252919020018290557f4bfdbe4ee34bee845e9e9c570afcd88b745f871918c672d855fedccf3066e79b9061076790839088908690611030565b60405180910390a15050505050565b60008181526002602052604081205490036107c95760405162461bcd60e51b815260206004820152601360248201527250726f706965646164206e6f2065786973746560681b6044820152606401610159565b6000908152600260205260409020600301805460ff60a01b1916600160a01b179055565b606060006003836040516108019190610ef2565b908152604080519182900360209081018320805480830285018301909352828452919083018282801561085357602002820191906000526020600020905b81548152602001906001019080831161083f575b505050505090506000815167ffffffffffffffff81111561087657610876610abe565b6040519080825280602002602001820160405280156108af57816020015b61089c610a84565b8152602001906001900390816108945790505b50905060005b8251811015610a7c57600260008483815181106108d4576108d4611061565b602002602001015181526020019081526020016000206040518060a00160405290816000820154815260200160018201805461090f90610da9565b80601f016020809104026020016040519081016040528092919081815260200182805461093b90610da9565b80156109885780601f1061095d57610100808354040283529160200191610988565b820191906000526020600020905b81548152906001019060200180831161096b57829003601f168201915b505050505081526020016002820180546109a190610da9565b80601f01602080910402602001604051908101604052809291908181526020018280546109cd90610da9565b8015610a1a5780601f106109ef57610100808354040283529160200191610a1a565b820191906000526020600020905b8154815290600101906020018083116109fd57829003601f168201915b5050509183525050600391909101546001600160a01b0381166020830152600160a01b900460ff1615156040909101528251839083908110610a5e57610a5e611061565b60200260200101819052508080610a7490611009565b9150506108b5565b509392505050565b6040518060a0016040528060008152602001606081526020016060815260200160006001600160a01b031681526020016000151581525090565b634e487b7160e01b600052604160045260246000fd5b604051601f8201601f1916810167ffffffffffffffff81118282101715610afd57610afd610abe565b604052919050565b600067ffffffffffffffff821115610b1f57610b1f610abe565b50601f01601f191660200190565b600082601f830112610b3e57600080fd5b8135610b51610b4c82610b05565b610ad4565b818152846020838601011115610b6657600080fd5b816020850160208301376000918101602001919091529392505050565b60008060408385031215610b9657600080fd5b82359150602083013567ffffffffffffffff811115610bb457600080fd5b610bc085828601610b2d565b9150509250929050565b600060208284031215610bdc57600080fd5b813567ffffffffffffffff811115610bf357600080fd5b610bff84828501610b2d565b949350505050565b600060208284031215610c1957600080fd5b5035919050565b60005b83811015610c3b578181015183820152602001610c23565b50506000910152565b60008151808452610c5c816020860160208601610c20565b601f01601f19169290920160200192915050565b805182526000602082015160a06020850152610c8f60a0850182610c44565b905060408301518482036040860152610ca88282610c44565b6060858101516001600160a01b03169087015260809485015115159490950193909352509192915050565b602081526000610ce66020830184610c70565b9392505050565b60008060408385031215610d0057600080fd5b823567ffffffffffffffff80821115610d1857600080fd5b610d2486838701610b2d565b93506020850135915080821115610d3a57600080fd5b50610bc085828601610b2d565b6000602080830181845280855180835260408601915060408160051b870101925083870160005b82811015610d9c57603f19888603018452610d8a858351610c70565b94509285019290850190600101610d6e565b5092979650505050505050565b600181811c90821680610dbd57607f821691505b602082108103610ddd57634e487b7160e01b600052602260045260246000fd5b50919050565b601f821115610e2d57600081815260208120601f850160051c81016020861015610e0a5750805b601f850160051c820191505b81811015610e2957828155600101610e16565b5050505b505050565b815167ffffffffffffffff811115610e4c57610e4c610abe565b610e6081610e5a8454610da9565b84610de3565b602080601f831160018114610e955760008415610e7d5750858301515b600019600386901b1c1916600185901b178555610e29565b600085815260208120601f198616915b82811015610ec457888601518255948401946001909101908401610ea5565b5085821015610ee25787850151600019600388901b60f8161c191681555b5050505050600190811b01905550565b60008251610f04818460208701610c20565b9190910192915050565b838152606060208201526000610f276060830185610c44565b8281036040840152610f398185610c44565b9695505050505050565b602081526000610ce66020830184610c44565b600060208284031215610f6857600080fd5b5051919050565b60008060408385031215610f8257600080fd5b825167ffffffffffffffff811115610f9957600080fd5b8301601f81018513610faa57600080fd5b8051610fb8610b4c82610b05565b818152866020838501011115610fcd57600080fd5b610fde826020830160208601610c20565b60208601519094509150506001600160a01b0381168114610ffe57600080fd5b809150509250929050565b60006001820161102957634e487b7160e01b600052601160045260246000fd5b5060010190565b8381526060602082015260006110496060830185610c44565b905060018060a01b0383166040830152949350505050565b634e487b7160e01b600052603260045260246000fdfea26469706673582212200e223a4aaf2ee6f2b42500194b8d9ce573e923522aaec4a3afb006111fb37bab64736f6c63430008130033",
  "immutableReferences": {},
  "source": "// SPDX-License-Identifier: MIT\r\npragma solidity ^0.8.19;\r\n\r\nimport \"./IPersonas.sol\";\r\n\r\ncontract Propiedades {\r\n    IPersonas private personasContract;\r\n\r\n    constructor(address _personasAddress) {\r\n        personasContract = IPersonas(_personasAddress);\r\n    }\r\n\r\n    struct Propiedad {\r\n        uint256 idPropiedad;\r\n        string descripcion;\r\n        string ciDueno;\r\n        address walletDueno;\r\n        bool enHerencia;\r\n    }\r\n\r\n    uint256 private nextPropId = 1;\r\n    mapping(uint256 => Propiedad) private propiedades;\r\n    mapping(string => uint256[]) private propiedadesPorCI;\r\n\r\n    event PropiedadRegistrada(uint256 idPropiedad, string ciDueno, address walletDueno);\r\n    event PropiedadTransferida(uint256 idPropiedad, string ciAnteriorDueno, string ciNuevoDueno);\r\n\r\n    // Registrar propiedad VALIDANDO CI contra Personas\r\n    function registrarPropiedad(string memory _ciDueno, string memory _descripcion) public {\r\n        uint256 idPersona = personasContract.obtenerIdPorCi(_ciDueno);\r\n        (, address wallet) = personasContract.obtenerIdentidad(idPersona);\r\n\r\n        require(wallet == msg.sender, \"Solo el dueno puede registrar su propiedad\");\r\n\r\n        uint256 idProp = nextPropId++;\r\n        propiedades[idProp] = Propiedad({\r\n            idPropiedad: idProp,\r\n            descripcion: _descripcion,\r\n            ciDueno: _ciDueno,\r\n            walletDueno: wallet,\r\n            enHerencia: false\r\n        });\r\n\r\n        propiedadesPorCI[_ciDueno].push(idProp);\r\n\r\n        emit PropiedadRegistrada(idProp, _ciDueno, wallet);\r\n    }\r\n\r\n    // Transferir propiedad SOLO con CI (wallet se mantiene como msg.sender)\r\n    function transferirPropiedad(uint256 _idPropiedad, string memory _ciNuevoDueno) public {\r\n        Propiedad storage prop = propiedades[_idPropiedad];\r\n        require(prop.idPropiedad != 0, \"Propiedad no existe\");\r\n        require(prop.walletDueno == msg.sender, \"No eres el dueno actual\");\r\n\r\n        string memory ciAnteriorDueno = prop.ciDueno;\r\n\r\n        prop.ciDueno = _ciNuevoDueno;\r\n        prop.walletDueno = msg.sender; // se mantiene la misma cuenta\r\n\r\n        propiedadesPorCI[_ciNuevoDueno].push(_idPropiedad);\r\n\r\n        emit PropiedadTransferida(_idPropiedad, ciAnteriorDueno, _ciNuevoDueno);\r\n    }\r\n\r\n    // Consultar propiedad por ID\r\n    function obtenerPropiedad(uint256 _idPropiedad) public view returns (Propiedad memory) {\r\n        require(propiedades[_idPropiedad].idPropiedad != 0, \"Propiedad no encontrada\");\r\n        return propiedades[_idPropiedad];\r\n    }\r\n\r\n    // Listar todas las propiedades de un usuario segn su CI\r\n    function listarPropiedadesPorCI(string memory _ciPersona) public view returns (Propiedad[] memory) {\r\n        uint256[] memory ids = propiedadesPorCI[_ciPersona];\r\n        Propiedad[] memory result = new Propiedad[](ids.length);\r\n\r\n        for (uint256 i = 0; i < ids.length; i++) {\r\n            result[i] = propiedades[ids[i]];\r\n        }\r\n        return result;\r\n    }\r\n\r\n    // Contar propiedades de un usuario por CI\r\n    function contarPropiedadesPorCI(string memory _ciPersona) public view returns (uint256) {\r\n        return propiedadesPorCI[_ciPersona].length;\r\n    }\r\n\r\n    // Marcar propiedad como en herencia\r\n    function marcarEnHerencia(uint256 _idPropiedad) public {\r\n        require(propiedades[_idPropiedad].idPropiedad != 0, \"Propiedad no existe\");\r\n        propiedades[_idPropiedad].enHerencia = true;\r\n    }\r\n}",
  "sourcePath": "C:\\Users\\Usuario\\Desktop\\RegistroDeHerencia\\RegistroDeHerencia\\BlockChain\\RegistroDeHerencia\\contracts\\Propiedades.sol",
  "compiler": {
    "name": "solc",
    "version": "0.8.19+commit.7dd6d404.Emscripten.clang"
  },
  "schemaVersion": "3.4.16",
  "updatedAt": "2025-12-16T05:29:20.927Z",
  "networkType": "ethereum",
  "devdoc": {
    "kind": "dev",
    "methods": {},
    "version": 1
  },
  "userdoc": {
    "kind": "user",
    "methods": {},
    "version": 1
  }
}