{
  "contractName": "RegistroPropiedadesHerencia",
  "abi": [
    {
      "inputs": [
        {
          "internalType": "address",
          "name": "_direccionPersonas",
          "type": "address"
        }
      ],
      "stateMutability": "nonpayable",
      "type": "constructor"
    },
    {
      "anonymous": false,
      "inputs": [
        {
          "indexed": false,
          "internalType": "uint256",
          "name": "idPropiedad",
          "type": "uint256"
        },
        {
          "indexed": false,
          "internalType": "string",
          "name": "ciDueno",
          "type": "string"
        },
        {
          "indexed": false,
          "internalType": "string[]",
          "name": "herederos",
          "type": "string[]"
        }
      ],
      "name": "HerenciaDefinida",
      "type": "event"
    },
    {
      "anonymous": false,
      "inputs": [
        {
          "indexed": false,
          "internalType": "uint256",
          "name": "idPropiedad",
          "type": "uint256"
        },
        {
          "indexed": false,
          "internalType": "string",
          "name": "ciDueno",
          "type": "string"
        },
        {
          "indexed": false,
          "internalType": "address",
          "name": "walletDueno",
          "type": "address"
        },
        {
          "indexed": false,
          "internalType": "string",
          "name": "descripcion",
          "type": "string"
        }
      ],
      "name": "PropiedadRegistrada",
      "type": "event"
    },
    {
      "anonymous": false,
      "inputs": [
        {
          "indexed": false,
          "internalType": "uint256",
          "name": "idPropiedad",
          "type": "uint256"
        },
        {
          "indexed": false,
          "internalType": "string",
          "name": "ciAnterior",
          "type": "string"
        },
        {
          "indexed": false,
          "internalType": "string",
          "name": "ciNuevo",
          "type": "string"
        },
        {
          "indexed": false,
          "internalType": "address",
          "name": "walletNuevo",
          "type": "address"
        }
      ],
      "name": "PropiedadTransferida",
      "type": "event"
    },
    {
      "inputs": [
        {
          "internalType": "uint256",
          "name": "",
          "type": "uint256"
        },
        {
          "internalType": "uint256",
          "name": "",
          "type": "uint256"
        }
      ],
      "name": "herenciaPorPropiedad",
      "outputs": [
        {
          "internalType": "string",
          "name": "ciHeredero",
          "type": "string"
        },
        {
          "internalType": "address",
          "name": "walletHeredero",
          "type": "address"
        },
        {
          "internalType": "uint256",
          "name": "porcentaje",
          "type": "uint256"
        }
      ],
      "stateMutability": "view",
      "type": "function",
      "constant": true
    },
    {
      "inputs": [
        {
          "internalType": "uint256",
          "name": "",
          "type": "uint256"
        },
        {
          "internalType": "address",
          "name": "",
          "type": "address"
        }
      ],
      "name": "participacionesPorPropiedad",
      "outputs": [
        {
          "internalType": "uint256",
          "name": "",
          "type": "uint256"
        }
      ],
      "stateMutability": "view",
      "type": "function",
      "constant": true
    },
    {
      "inputs": [
        {
          "internalType": "uint256",
          "name": "",
          "type": "uint256"
        }
      ],
      "name": "propiedades",
      "outputs": [
        {
          "internalType": "uint256",
          "name": "idPropiedad",
          "type": "uint256"
        },
        {
          "internalType": "string",
          "name": "descripcion",
          "type": "string"
        },
        {
          "internalType": "string",
          "name": "ciDueno",
          "type": "string"
        },
        {
          "internalType": "address",
          "name": "walletDueno",
          "type": "address"
        },
        {
          "internalType": "bool",
          "name": "enHerencia",
          "type": "bool"
        }
      ],
      "stateMutability": "view",
      "type": "function",
      "constant": true
    },
    {
      "inputs": [],
      "name": "registroCivil",
      "outputs": [
        {
          "internalType": "contract IPersonas",
          "name": "",
          "type": "address"
        }
      ],
      "stateMutability": "view",
      "type": "function",
      "constant": true
    },
    {
      "inputs": [
        {
          "internalType": "uint256",
          "name": "",
          "type": "uint256"
        },
        {
          "internalType": "uint256",
          "name": "",
          "type": "uint256"
        }
      ],
      "name": "walletsConParticipacion",
      "outputs": [
        {
          "internalType": "address",
          "name": "",
          "type": "address"
        }
      ],
      "stateMutability": "view",
      "type": "function",
      "constant": true
    },
    {
      "inputs": [
        {
          "internalType": "string",
          "name": "_ciDueno",
          "type": "string"
        },
        {
          "internalType": "string",
          "name": "_descripcion",
          "type": "string"
        }
      ],
      "name": "registrarPropiedad",
      "outputs": [],
      "stateMutability": "nonpayable",
      "type": "function"
    },
    {
      "inputs": [
        {
          "internalType": "uint256",
          "name": "_idPropiedad",
          "type": "uint256"
        },
        {
          "internalType": "string[]",
          "name": "_ciHerederos",
          "type": "string[]"
        },
        {
          "internalType": "uint256[]",
          "name": "_porcentajes",
          "type": "uint256[]"
        }
      ],
      "name": "definirHerencia",
      "outputs": [],
      "stateMutability": "nonpayable",
      "type": "function"
    },
    {
      "inputs": [
        {
          "internalType": "uint256",
          "name": "_idPropiedad",
          "type": "uint256"
        }
      ],
      "name": "ejecutarHerencia",
      "outputs": [],
      "stateMutability": "nonpayable",
      "type": "function"
    },
    {
      "inputs": [
        {
          "internalType": "uint256",
          "name": "_idPropiedad",
          "type": "uint256"
        }
      ],
      "name": "obtenerPropiedad",
      "outputs": [
        {
          "components": [
            {
              "internalType": "uint256",
              "name": "idPropiedad",
              "type": "uint256"
            },
            {
              "internalType": "string",
              "name": "descripcion",
              "type": "string"
            },
            {
              "internalType": "string",
              "name": "ciDueno",
              "type": "string"
            },
            {
              "internalType": "address",
              "name": "walletDueno",
              "type": "address"
            },
            {
              "internalType": "bool",
              "name": "enHerencia",
              "type": "bool"
            }
          ],
          "internalType": "struct RegistroPropiedadesHerencia.Propiedad",
          "name": "",
          "type": "tuple"
        }
      ],
      "stateMutability": "view",
      "type": "function",
      "constant": true
    },
    {
      "inputs": [
        {
          "internalType": "uint256",
          "name": "_idPropiedad",
          "type": "uint256"
        }
      ],
      "name": "obtenerHerencia",
      "outputs": [
        {
          "components": [
            {
              "internalType": "string",
              "name": "ciHeredero",
              "type": "string"
            },
            {
              "internalType": "address",
              "name": "walletHeredero",
              "type": "address"
            },
            {
              "internalType": "uint256",
              "name": "porcentaje",
              "type": "uint256"
            }
          ],
          "internalType": "struct RegistroPropiedadesHerencia.Distribucion[]",
          "name": "",
          "type": "tuple[]"
        }
      ],
      "stateMutability": "view",
      "type": "function",
      "constant": true
    },
    {
      "inputs": [
        {
          "internalType": "uint256",
          "name": "_idPropiedad",
          "type": "uint256"
        },
        {
          "internalType": "address",
          "name": "_wallet",
          "type": "address"
        }
      ],
      "name": "obtenerParticipacion",
      "outputs": [
        {
          "internalType": "uint256",
          "name": "",
          "type": "uint256"
        }
      ],
      "stateMutability": "view",
      "type": "function",
      "constant": true
    },
    {
      "inputs": [
        {
          "internalType": "uint256",
          "name": "_idPropiedad",
          "type": "uint256"
        }
      ],
      "name": "obtenerWalletsConParticipacion",
      "outputs": [
        {
          "internalType": "address[]",
          "name": "",
          "type": "address[]"
        }
      ],
      "stateMutability": "view",
      "type": "function",
      "constant": true
    }
  ],
  "bytecode": "0x6080604052600160005534801561001557600080fd5b50604051611bcd380380611bcd833981016040819052610034916100c4565b6001600160a01b03811661009f5760405162461bcd60e51b815260206004820152602860248201527f446972656363696f6e2064656c20636f6e747261746f20506572736f6e617320604482015267696e76616c69646160c01b606482015260840160405180910390fd5b600580546001600160a01b0319166001600160a01b03929092169190911790556100f4565b6000602082840312156100d657600080fd5b81516001600160a01b03811681146100ed57600080fd5b9392505050565b611aca806101036000396000f3fe608060405234801561001057600080fd5b50600436106100b45760003560e01c80638f61a8b6116100715780638f61a8b614610185578063a5776ee8146101a5578063ac9175d3146101b8578063dde95fea146101cb578063e14198ad146101ed578063fa763a721461020d57600080fd5b80630bb5643b146100b957806316fc236f146100e65780632ae25653146100fb5780635bab9bfa146101345780635c3ed7d8146101475780635d65105014610172575b600080fd5b6100cc6100c73660046111a0565b61022d565b6040516100dd959493929190611209565b60405180910390f35b6100f96100f43660046113a6565b61037b565b005b61012661010936600461149a565b600360209081526000928352604080842090915290825290205481565b6040519081526020016100dd565b6100f96101423660046111a0565b6107a0565b60055461015a906001600160a01b031681565b6040516001600160a01b0390911681526020016100dd565b61015a6101803660046114ca565b610a19565b6101986101933660046111a0565b610a51565b6040516100dd91906114ec565b6101266101b336600461149a565b610c4c565b6100f96101c636600461155a565b610c76565b6101de6101d93660046114ca565b610e69565b6040516100dd939291906115be565b6102006101fb3660046111a0565b610f42565b6040516100dd91906115ec565b61022061021b3660046111a0565b610fae565b6040516100dd9190611639565b60016020819052600091825260409091208054918101805461024e906116c3565b80601f016020809104026020016040519081016040528092919081815260200182805461027a906116c3565b80156102c75780601f1061029c576101008083540402835291602001916102c7565b820191906000526020600020905b8154815290600101906020018083116102aa57829003601f168201915b5050505050908060020180546102dc906116c3565b80601f0160208091040260200160405190810160405280929190818152602001828054610308906116c3565b80156103555780601f1061032a57610100808354040283529160200191610355565b820191906000526020600020905b81548152906001019060200180831161033857829003601f168201915b505050600390930154919250506001600160a01b0381169060ff600160a01b9091041685565b600083815260016020526040902060038101546001600160a01b031633146104015760405162461bcd60e51b815260206004820152602e60248201527f536f6c6f20656c206475656e6f2061637475616c20707565646520646566696e60448201526d6972206c6120686572656e63696160901b60648201526084015b60405180910390fd5b81518351146104495760405162461bcd60e51b81526020600482015260146024820152734461746f7320696e636f6e73697374656e74657360601b60448201526064016103f8565b6000848152600260205260408120610460916110d5565b6000848152600460205260408120610477916110f9565b6000805b84518110156106e85760055485516000916001600160a01b031690638aa64c5e908890859081106104ae576104ae6116fd565b60200260200101516040518263ffffffff1660e01b81526004016104d29190611713565b602060405180830381865afa1580156104ef573d6000803e3d6000fd5b505050506040513d601f19601f82011682018060405250810190610513919061172d565b60055460405163fba82d1d60e01b81526004810183905291925060009182916001600160a01b03169063fba82d1d90602401600060405180830381865afa158015610562573d6000803e3d6000fd5b505050506040513d6000823e601f3d908101601f1916820160405261058a9190810190611746565b91509150600260008a81526020019081526020016000206040518060600160405280848152602001836001600160a01b031681526020018987815181106105d3576105d36116fd565b60209081029190910181015190915282546001810184556000938452922081519192600302019081906106069082611818565b5060208201516001820180546001600160a01b0319166001600160a01b03909216919091179055604090910151600290910155865187908590811061064d5761064d6116fd565b60209081029190910181015160008b81526003835260408082206001600160a01b038616808452908552818320939093558c8252600484528120805460018101825590825292902090910180546001600160a01b031916909117905586518790859081106106bd576106bd6116fd565b6020026020010151856106d091906118ee565b945050505080806106e090611901565b91505061047b565b50806064146107455760405162461bcd60e51b815260206004820152602360248201527f4c612073756d6120646520706f7263656e74616a65732064656265207365722060448201526203130360ec1b60648201526084016103f8565b60038201805460ff60a01b1916600160a01b1790556040517f107701ac85b39c63ac048f394588590b6516d13b21e38ea2a31297ef359e6c8f906107919087906002860190889061196f565b60405180910390a15050505050565b60008181526001602052604090206003810154600160a01b900460ff1661081a5760405162461bcd60e51b815260206004820152602860248201527f486572656e636961206e6f20646566696e6964612070617261206573746120706044820152671c9bdc1a5959185960c21b60648201526084016103f8565b600081600201805461082b906116c3565b80601f0160208091040260200160405190810160405280929190818152602001828054610857906116c3565b80156108a45780601f10610879576101008083540402835291602001916108a4565b820191906000526020600020905b81548152906001019060200180831161088757829003601f168201915b5050505050905060005b600084815260026020526040902054811015610a065760008481526002602052604081208054839081106108e4576108e46116fd565b906000526020600020906003020160405180606001604052908160008201805461090d906116c3565b80601f0160208091040260200160405190810160405280929190818152602001828054610939906116c3565b80156109865780601f1061095b57610100808354040283529160200191610986565b820191906000526020600020905b81548152906001019060200180831161096957829003601f168201915b505050918352505060018201546001600160a01b031660208083019190915260029092015460409182015282519183015190519293507fd52a6fc1a88fb3b7910f5e4cdeb0607f5b40b6e9b14be88e1218fbfa46d936c8926109eb9289928892611a15565b60405180910390a150806109fe81611901565b9150506108ae565b5050600301805460ff60a01b1916905550565b60046020528160005260406000208181548110610a3557600080fd5b6000918252602090912001546001600160a01b03169150829050565b610a8e6040518060a0016040528060008152602001606081526020016060815260200160006001600160a01b031681526020016000151581525090565b600082118015610a9f575060005482105b610ada5760405162461bcd60e51b815260206004820152600c60248201526b4944206e6f2076616c69646f60a01b60448201526064016103f8565b600082815260016020818152604092839020835160a0810190945280548452918201805491840191610b0b906116c3565b80601f0160208091040260200160405190810160405280929190818152602001828054610b37906116c3565b8015610b845780601f10610b5957610100808354040283529160200191610b84565b820191906000526020600020905b815481529060010190602001808311610b6757829003601f168201915b50505050508152602001600282018054610b9d906116c3565b80601f0160208091040260200160405190810160405280929190818152602001828054610bc9906116c3565b8015610c165780601f10610beb57610100808354040283529160200191610c16565b820191906000526020600020905b815481529060010190602001808311610bf957829003601f168201915b5050509183525050600391909101546001600160a01b0381166020830152600160a01b900460ff16151560409091015292915050565b60008281526003602090815260408083206001600160a01b03851684529091529020545b92915050565b600554604051634553262f60e11b81526000916001600160a01b031690638aa64c5e90610ca7908690600401611713565b602060405180830381865afa158015610cc4573d6000803e3d6000fd5b505050506040513d601f19601f82011682018060405250810190610ce8919061172d565b60055460405163fba82d1d60e01b81526004810183905291925060009182916001600160a01b03169063fba82d1d90602401600060405180830381865afa158015610d37573d6000803e3d6000fd5b505050506040513d6000823e601f3d908101601f19168201604052610d5f9190810190611746565b60008054929450909250908180610d7583611901565b909155506040805160a08101825282815260208082018981528284018890526001600160a01b038716606084015260006080840181905285815260019283905293909320825181559251939450909290820190610dd29082611818565b5060408201516002820190610de79082611818565b506060820151600390910180546080909301511515600160a01b026001600160a81b03199093166001600160a01b03909216919091179190911790556040517ff192804a648ce775182c942af7a07061b27f3f9e1f434fb39f8713888bbeb30990610e59908390869086908a90611a5a565b60405180910390a1505050505050565b60026020528160005260406000208181548110610e8557600080fd5b906000526020600020906003020160009150915050806000018054610ea9906116c3565b80601f0160208091040260200160405190810160405280929190818152602001828054610ed5906116c3565b8015610f225780601f10610ef757610100808354040283529160200191610f22565b820191906000526020600020905b815481529060010190602001808311610f0557829003601f168201915b50505050600183015460029093015491926001600160a01b031691905083565b600081815260046020908152604091829020805483518184028101840190945280845260609392830182828015610fa257602002820191906000526020600020905b81546001600160a01b03168152600190910190602001808311610f84575b50505050509050919050565b606060026000838152602001908152602001600020805480602002602001604051908101604052809291908181526020016000905b828210156110ca5783829060005260206000209060030201604051806060016040529081600082018054611016906116c3565b80601f0160208091040260200160405190810160405280929190818152602001828054611042906116c3565b801561108f5780601f106110645761010080835404028352916020019161108f565b820191906000526020600020905b81548152906001019060200180831161107257829003601f168201915b50505091835250506001828101546001600160a01b031660208084019190915260029093015460409092019190915291835292019101610fe3565b505050509050919050565b50805460008255600302906000526020600020908101906110f69190611117565b50565b50805460008255906000526020600020908101906110f69190611151565b8082111561114d57600061112b8282611166565b506001810180546001600160a01b031916905560006002820155600301611117565b5090565b5b8082111561114d5760008155600101611152565b508054611172906116c3565b6000825580601f10611182575050565b601f0160209004906000526020600020908101906110f69190611151565b6000602082840312156111b257600080fd5b5035919050565b60005b838110156111d45781810151838201526020016111bc565b50506000910152565b600081518084526111f58160208601602086016111b9565b601f01601f19169290920160200192915050565b85815260a06020820152600061122260a08301876111dd565b828103604084015261123481876111dd565b6001600160a01b0395909516606084015250509015156080909101529392505050565b634e487b7160e01b600052604160045260246000fd5b604051601f8201601f1916810167ffffffffffffffff8111828210171561129657611296611257565b604052919050565b600067ffffffffffffffff8211156112b8576112b8611257565b5060051b60200190565b600067ffffffffffffffff8211156112dc576112dc611257565b50601f01601f191660200190565b600082601f8301126112fb57600080fd5b813561130e611309826112c2565b61126d565b81815284602083860101111561132357600080fd5b816020850160208301376000918101602001919091529392505050565b600082601f83011261135157600080fd5b813560206113616113098361129e565b82815260059290921b8401810191818101908684111561138057600080fd5b8286015b8481101561139b5780358352918301918301611384565b509695505050505050565b6000806000606084860312156113bb57600080fd5b8335925060208085013567ffffffffffffffff808211156113db57600080fd5b818701915087601f8301126113ef57600080fd5b81356113fd6113098261129e565b81815260059190911b8301840190848101908a83111561141c57600080fd5b8585015b83811015611454578035858111156114385760008081fd5b6114468d89838a01016112ea565b845250918601918601611420565b5096505050604087013592508083111561146d57600080fd5b505061147b86828701611340565b9150509250925092565b6001600160a01b03811681146110f657600080fd5b600080604083850312156114ad57600080fd5b8235915060208301356114bf81611485565b809150509250929050565b600080604083850312156114dd57600080fd5b50508035926020909101359150565b60208152815160208201526000602083015160a0604084015261151260c08401826111dd565b90506040840151601f1984830301606085015261152f82826111dd565b91505060018060a01b0360608501511660808401526080840151151560a08401528091505092915050565b6000806040838503121561156d57600080fd5b823567ffffffffffffffff8082111561158557600080fd5b611591868387016112ea565b935060208501359150808211156115a757600080fd5b506115b4858286016112ea565b9150509250929050565b6060815260006115d160608301866111dd565b6001600160a01b039490941660208301525060400152919050565b6020808252825182820181905260009190848201906040850190845b8181101561162d5783516001600160a01b031683529284019291840191600101611608565b50909695505050505050565b60006020808301818452808551808352604092508286019150828160051b87010184880160005b838110156116b557603f19898403018552815160608151818652611686828701826111dd565b838b01516001600160a01b0316878c015292890151958901959095525094870194925090860190600101611660565b509098975050505050505050565b600181811c908216806116d757607f821691505b6020821081036116f757634e487b7160e01b600052602260045260246000fd5b50919050565b634e487b7160e01b600052603260045260246000fd5b60208152600061172660208301846111dd565b9392505050565b60006020828403121561173f57600080fd5b5051919050565b6000806040838503121561175957600080fd5b825167ffffffffffffffff81111561177057600080fd5b8301601f8101851361178157600080fd5b805161178f611309826112c2565b8181528660208385010111156117a457600080fd5b6117b58260208301602086016111b9565b80945050505060208301516114bf81611485565b601f82111561181357600081815260208120601f850160051c810160208610156117f05750805b601f850160051c820191505b8181101561180f578281556001016117fc565b5050505b505050565b815167ffffffffffffffff81111561183257611832611257565b6118468161184084546116c3565b846117c9565b602080601f83116001811461187b57600084156118635750858301515b600019600386901b1c1916600185901b17855561180f565b600085815260208120601f198616915b828110156118aa5788860151825594840194600190910190840161188b565b50858210156118c85787850151600019600388901b60f8161c191681555b5050505050600190811b01905550565b634e487b7160e01b600052601160045260246000fd5b80820180821115610c7057610c706118d8565b600060018201611913576119136118d8565b5060010190565b600081518084526020808501808196508360051b8101915082860160005b858110156119625782840389526119508483516111dd565b98850198935090840190600101611938565b5091979650505050505050565b8381526000602060608184015260008554611989816116c3565b80606087015260806001808416600081146119ab57600181146119c5576119f3565b60ff1985168984015283151560051b8901830195506119f3565b8a6000528660002060005b858110156119eb5781548b82018601529083019088016119d0565b8a0184019650505b50505050508381036040850152611a0a818661191a565b979650505050505050565b848152608060208201526000611a2e60808301866111dd565b8281036040840152611a4081866111dd565b91505060018060a01b038316606083015295945050505050565b848152608060208201526000611a7360808301866111dd565b6001600160a01b03851660408401528281036060840152611a0a81856111dd56fea2646970667358221220ba1ab4b9acd76168b79dfd8865b7308854f0816d8386d9fee825c1728bcfcf7264736f6c63430008130033",
  "immutableReferences": {},
  "source": "// SPDX-License-Identifier: MIT\r\npragma solidity ^0.8.19;\r\n\r\nimport \"./IPersonas.sol\";\r\n\r\ncontract RegistroPropiedadesHerencia {\r\n    struct Propiedad {\r\n        uint256 idPropiedad;\r\n        string descripcion;\r\n        string ciDueno;\r\n        address walletDueno;\r\n        bool enHerencia;\r\n    }\r\n\r\n    struct Distribucion {\r\n        string ciHeredero;\r\n        address walletHeredero;\r\n        uint256 porcentaje; // porcentaje de la propiedad\r\n    }\r\n\r\n    uint256 private nextPropId = 1;\r\n\r\n    // Propiedades y distribucin definida\r\n    mapping(uint256 => Propiedad) public propiedades;\r\n    mapping(uint256 => Distribucion[]) public herenciaPorPropiedad;\r\n\r\n    // Participaciones por propiedad\r\n    mapping(uint256 => mapping(address => uint256)) public participacionesPorPropiedad;\r\n    mapping(uint256 => address[]) public walletsConParticipacion;\r\n\r\n    IPersonas public registroCivil;\r\n\r\n    // Eventos\r\n    event PropiedadRegistrada(uint256 idPropiedad, string ciDueno, address walletDueno, string descripcion);\r\n    event HerenciaDefinida(uint256 idPropiedad, string ciDueno, string[] herederos);\r\n    event PropiedadTransferida(uint256 idPropiedad, string ciAnterior, string ciNuevo, address walletNuevo);\r\n\r\n    constructor(address _direccionPersonas) {\r\n        require(_direccionPersonas != address(0), \"Direccion del contrato Personas invalida\");\r\n        registroCivil = IPersonas(_direccionPersonas);\r\n    }\r\n\r\n    // Registrar nueva propiedad vinculada a una persona existente\r\n    function registrarPropiedad(string memory _ciDueno, string memory _descripcion) public {\r\n        uint256 idPersona = registroCivil.obtenerIdPorCi(_ciDueno);\r\n        (string memory ci, address wallet) = registroCivil.obtenerIdentidad(idPersona);\r\n\r\n        uint256 id = nextPropId++;\r\n        propiedades[id] = Propiedad(id, _descripcion, ci, wallet, false);\r\n\r\n        emit PropiedadRegistrada(id, ci, wallet, _descripcion);\r\n    }\r\n\r\n    // Definir herederos y porcentajes de distribucin\r\n    function definirHerencia(uint256 _idPropiedad, string[] memory _ciHerederos, uint256[] memory _porcentajes) public {\r\n        Propiedad storage prop = propiedades[_idPropiedad];\r\n        require(msg.sender == prop.walletDueno, \"Solo el dueno actual puede definir la herencia\");\r\n        require(_ciHerederos.length == _porcentajes.length, \"Datos inconsistentes\");\r\n\r\n        delete herenciaPorPropiedad[_idPropiedad]; // limpiar herencia previa\r\n        delete walletsConParticipacion[_idPropiedad]; // limpiar lista previa\r\n\r\n        uint256 total = 0;\r\n        for (uint256 i = 0; i < _ciHerederos.length; i++) {\r\n            uint256 idPersona = registroCivil.obtenerIdPorCi(_ciHerederos[i]);\r\n            (string memory ci, address wallet) = registroCivil.obtenerIdentidad(idPersona);\r\n\r\n            herenciaPorPropiedad[_idPropiedad].push(Distribucion({\r\n                ciHeredero: ci,\r\n                walletHeredero: wallet,\r\n                porcentaje: _porcentajes[i]\r\n            }));\r\n\r\n            // Guardar participacin propuesta\r\n            participacionesPorPropiedad[_idPropiedad][wallet] = _porcentajes[i];\r\n            walletsConParticipacion[_idPropiedad].push(wallet);\r\n\r\n            total += _porcentajes[i];\r\n        }\r\n\r\n        require(total == 100, \"La suma de porcentajes debe ser 100\");\r\n\r\n        prop.enHerencia = true;\r\n\r\n        emit HerenciaDefinida(_idPropiedad, prop.ciDueno, _ciHerederos);\r\n    }\r\n\r\n    // Transferir propiedad segn herencia definida\r\n    function ejecutarHerencia(uint256 _idPropiedad) public {\r\n        Propiedad storage prop = propiedades[_idPropiedad];\r\n        require(prop.enHerencia, \"Herencia no definida para esta propiedad\");\r\n\r\n        string memory ciAnterior = prop.ciDueno;\r\n\r\n        // Distribuir la propiedad entre los herederos\r\n        for (uint256 i = 0; i < herenciaPorPropiedad[_idPropiedad].length; i++) {\r\n            Distribucion memory dist = herenciaPorPropiedad[_idPropiedad][i];\r\n            emit PropiedadTransferida(_idPropiedad, ciAnterior, dist.ciHeredero, dist.walletHeredero);\r\n        }\r\n\r\n        prop.enHerencia = false;\r\n    }\r\n\r\n    // Consultar propiedad\r\n    function obtenerPropiedad(uint256 _idPropiedad) public view returns (Propiedad memory) {\r\n        require(_idPropiedad > 0 && _idPropiedad < nextPropId, \"ID no valido\");\r\n        return propiedades[_idPropiedad];\r\n    }\r\n\r\n    // Consultar herencia definida (lista detallada)\r\n    function obtenerHerencia(uint256 _idPropiedad) public view returns (Distribucion[] memory) {\r\n        return herenciaPorPropiedad[_idPropiedad];\r\n    }\r\n\r\n    // Consultar porcentaje de participacin de un wallet en una propiedad\r\n    function obtenerParticipacion(uint256 _idPropiedad, address _wallet) public view returns (uint256) {\r\n        return participacionesPorPropiedad[_idPropiedad][_wallet];\r\n    }\r\n\r\n    // Consultar todas las wallets con participacin en una propiedad\r\n    function obtenerWalletsConParticipacion(uint256 _idPropiedad) public view returns (address[] memory) {\r\n        return walletsConParticipacion[_idPropiedad];\r\n    }\r\n}\r\n",
  "sourcePath": "C:\\Users\\Usuario\\Desktop\\RegistroDeHerencia\\RegistroDeHerencia\\BlockChain\\RegistroDeHerencia\\contracts\\Herencia.sol",
  "compiler": {
    "name": "solc",
    "version": "0.8.19+commit.7dd6d404.Emscripten.clang"
  },
  "schemaVersion": "3.4.16",
  "updatedAt": "2025-12-16T05:29:21.157Z",
  "networkType": "ethereum",
  "devdoc": {
    "kind": "dev",
    "methods": {},
    "version": 1
  },
  "userdoc": {
    "kind": "user",
    "methods": {},
    "version": 1
  }
}