{
  "contractName": "RegistroPropiedadesHerencia",
  "abi": [
    {
      "inputs": [
        {
          "internalType": "address",
          "name": "_direccionPersonas",
          "type": "address"
        }
      ],
      "stateMutability": "nonpayable",
      "type": "constructor"
    },
    {
      "anonymous": false,
      "inputs": [
        {
          "indexed": false,
          "internalType": "uint256",
          "name": "idPropiedad",
          "type": "uint256"
        },
        {
          "indexed": false,
          "internalType": "string",
          "name": "ciDueno",
          "type": "string"
        },
        {
          "indexed": false,
          "internalType": "string[]",
          "name": "herederos",
          "type": "string[]"
        }
      ],
      "name": "HerenciaDefinida",
      "type": "event"
    },
    {
      "anonymous": false,
      "inputs": [
        {
          "indexed": false,
          "internalType": "uint256",
          "name": "idPropiedad",
          "type": "uint256"
        },
        {
          "indexed": false,
          "internalType": "string",
          "name": "ciDueno",
          "type": "string"
        },
        {
          "indexed": false,
          "internalType": "address",
          "name": "walletDueno",
          "type": "address"
        },
        {
          "indexed": false,
          "internalType": "string",
          "name": "descripcion",
          "type": "string"
        }
      ],
      "name": "PropiedadRegistrada",
      "type": "event"
    },
    {
      "anonymous": false,
      "inputs": [
        {
          "indexed": false,
          "internalType": "uint256",
          "name": "idPropiedad",
          "type": "uint256"
        },
        {
          "indexed": false,
          "internalType": "string",
          "name": "ciAnterior",
          "type": "string"
        },
        {
          "indexed": false,
          "internalType": "string",
          "name": "ciNuevo",
          "type": "string"
        },
        {
          "indexed": false,
          "internalType": "address",
          "name": "walletNuevo",
          "type": "address"
        }
      ],
      "name": "PropiedadTransferida",
      "type": "event"
    },
    {
      "inputs": [
        {
          "internalType": "uint256",
          "name": "",
          "type": "uint256"
        },
        {
          "internalType": "uint256",
          "name": "",
          "type": "uint256"
        }
      ],
      "name": "herenciaPorPropiedad",
      "outputs": [
        {
          "internalType": "string",
          "name": "ciHeredero",
          "type": "string"
        },
        {
          "internalType": "address",
          "name": "walletHeredero",
          "type": "address"
        },
        {
          "internalType": "uint256",
          "name": "porcentaje",
          "type": "uint256"
        }
      ],
      "stateMutability": "view",
      "type": "function",
      "constant": true
    },
    {
      "inputs": [
        {
          "internalType": "uint256",
          "name": "",
          "type": "uint256"
        }
      ],
      "name": "propiedades",
      "outputs": [
        {
          "internalType": "uint256",
          "name": "idPropiedad",
          "type": "uint256"
        },
        {
          "internalType": "string",
          "name": "descripcion",
          "type": "string"
        },
        {
          "internalType": "string",
          "name": "ciDueno",
          "type": "string"
        },
        {
          "internalType": "address",
          "name": "walletDueno",
          "type": "address"
        },
        {
          "internalType": "bool",
          "name": "enHerencia",
          "type": "bool"
        }
      ],
      "stateMutability": "view",
      "type": "function",
      "constant": true
    },
    {
      "inputs": [],
      "name": "registroCivil",
      "outputs": [
        {
          "internalType": "contract IPersonas",
          "name": "",
          "type": "address"
        }
      ],
      "stateMutability": "view",
      "type": "function",
      "constant": true
    },
    {
      "inputs": [
        {
          "internalType": "string",
          "name": "_ciDueno",
          "type": "string"
        },
        {
          "internalType": "string",
          "name": "_descripcion",
          "type": "string"
        }
      ],
      "name": "registrarPropiedad",
      "outputs": [],
      "stateMutability": "nonpayable",
      "type": "function"
    },
    {
      "inputs": [
        {
          "internalType": "uint256",
          "name": "_idPropiedad",
          "type": "uint256"
        },
        {
          "internalType": "string[]",
          "name": "_ciHerederos",
          "type": "string[]"
        },
        {
          "internalType": "uint256[]",
          "name": "_porcentajes",
          "type": "uint256[]"
        }
      ],
      "name": "definirHerencia",
      "outputs": [],
      "stateMutability": "nonpayable",
      "type": "function"
    },
    {
      "inputs": [
        {
          "internalType": "uint256",
          "name": "_idPropiedad",
          "type": "uint256"
        }
      ],
      "name": "ejecutarHerencia",
      "outputs": [],
      "stateMutability": "nonpayable",
      "type": "function"
    },
    {
      "inputs": [
        {
          "internalType": "uint256",
          "name": "_idPropiedad",
          "type": "uint256"
        }
      ],
      "name": "obtenerPropiedad",
      "outputs": [
        {
          "components": [
            {
              "internalType": "uint256",
              "name": "idPropiedad",
              "type": "uint256"
            },
            {
              "internalType": "string",
              "name": "descripcion",
              "type": "string"
            },
            {
              "internalType": "string",
              "name": "ciDueno",
              "type": "string"
            },
            {
              "internalType": "address",
              "name": "walletDueno",
              "type": "address"
            },
            {
              "internalType": "bool",
              "name": "enHerencia",
              "type": "bool"
            }
          ],
          "internalType": "struct RegistroPropiedadesHerencia.Propiedad",
          "name": "",
          "type": "tuple"
        }
      ],
      "stateMutability": "view",
      "type": "function",
      "constant": true
    },
    {
      "inputs": [
        {
          "internalType": "uint256",
          "name": "_idPropiedad",
          "type": "uint256"
        }
      ],
      "name": "obtenerHerencia",
      "outputs": [
        {
          "components": [
            {
              "internalType": "string",
              "name": "ciHeredero",
              "type": "string"
            },
            {
              "internalType": "address",
              "name": "walletHeredero",
              "type": "address"
            },
            {
              "internalType": "uint256",
              "name": "porcentaje",
              "type": "uint256"
            }
          ],
          "internalType": "struct RegistroPropiedadesHerencia.Distribucion[]",
          "name": "",
          "type": "tuple[]"
        }
      ],
      "stateMutability": "view",
      "type": "function",
      "constant": true
    }
  ],
  "bytecode": "0x6080604052600160005534801561001557600080fd5b50604051611935380380611935833981016040819052610034916100c4565b6001600160a01b03811661009f5760405162461bcd60e51b815260206004820152602860248201527f446972656363696f6e2064656c20636f6e747261746f20506572736f6e617320604482015267696e76616c69646160c01b606482015260840160405180910390fd5b600380546001600160a01b0319166001600160a01b03929092169190911790556100f4565b6000602082840312156100d657600080fd5b81516001600160a01b03811681146100ed57600080fd5b9392505050565b611832806101036000396000f3fe608060405234801561001057600080fd5b50600436106100885760003560e01c80638f61a8b61161005b5780638f61a8b61461010d578063ac9175d31461012d578063dde95fea14610140578063fa763a721461016257600080fd5b80630bb5643b1461008d57806316fc236f146100ba5780635bab9bfa146100cf5780635c3ed7d8146100e2575b600080fd5b6100a061009b366004610f7d565b610182565b6040516100b1959493929190610fe6565b60405180910390f35b6100cd6100c8366004611183565b6102d0565b005b6100cd6100dd366004610f7d565b61066e565b6003546100f5906001600160a01b031681565b6040516001600160a01b0390911681526020016100b1565b61012061011b366004610f7d565b6108e7565b6040516100b19190611262565b6100cd61013b3660046112d0565b610ae2565b61015361014e366004611334565b610cd5565b6040516100b193929190611356565b610175610170366004610f7d565b610dae565b6040516100b19190611384565b6001602081905260009182526040909120805491810180546101a39061140e565b80601f01602080910402602001604051908101604052809291908181526020018280546101cf9061140e565b801561021c5780601f106101f15761010080835404028352916020019161021c565b820191906000526020600020905b8154815290600101906020018083116101ff57829003601f168201915b5050505050908060020180546102319061140e565b80601f016020809104026020016040519081016040528092919081815260200182805461025d9061140e565b80156102aa5780601f1061027f576101008083540402835291602001916102aa565b820191906000526020600020905b81548152906001019060200180831161028d57829003601f168201915b505050600390930154919250506001600160a01b0381169060ff600160a01b9091041685565b600083815260016020526040902060038101546001600160a01b031633146103565760405162461bcd60e51b815260206004820152602e60248201527f536f6c6f20656c206475656e6f2061637475616c20707565646520646566696e60448201526d6972206c6120686572656e63696160901b60648201526084015b60405180910390fd5b815183511461039e5760405162461bcd60e51b81526020600482015260146024820152734461746f7320696e636f6e73697374656e74657360601b604482015260640161034d565b60008481526002602052604081206103b591610ed5565b6000805b84518110156105b65760035485516000916001600160a01b031690638aa64c5e908890859081106103ec576103ec611448565b60200260200101516040518263ffffffff1660e01b8152600401610410919061145e565b602060405180830381865afa15801561042d573d6000803e3d6000fd5b505050506040513d601f19601f820116820180604052508101906104519190611478565b60035460405163fba82d1d60e01b81526004810183905291925060009182916001600160a01b03169063fba82d1d90602401600060405180830381865afa1580156104a0573d6000803e3d6000fd5b505050506040513d6000823e601f3d908101601f191682016040526104c89190810190611491565b91509150600260008a81526020019081526020016000206040518060600160405280848152602001836001600160a01b0316815260200189878151811061051157610511611448565b6020908102919091018101519091528254600181018455600093845292208151919260030201908190610544908261157a565b5060208201516001820180546001600160a01b0319166001600160a01b03909216919091179055604090910151600290910155865187908590811061058b5761058b611448565b60200260200101518561059e9190611650565b945050505080806105ae90611669565b9150506103b9565b50806064146106135760405162461bcd60e51b815260206004820152602360248201527f4c612073756d6120646520706f7263656e74616a65732064656265207365722060448201526203130360ec1b606482015260840161034d565b60038201805460ff60a01b1916600160a01b1790556040517f107701ac85b39c63ac048f394588590b6516d13b21e38ea2a31297ef359e6c8f9061065f908790600286019088906116d7565b60405180910390a15050505050565b60008181526001602052604090206003810154600160a01b900460ff166106e85760405162461bcd60e51b815260206004820152602860248201527f486572656e636961206e6f20646566696e6964612070617261206573746120706044820152671c9bdc1a5959185960c21b606482015260840161034d565b60008160020180546106f99061140e565b80601f01602080910402602001604051908101604052809291908181526020018280546107259061140e565b80156107725780601f1061074757610100808354040283529160200191610772565b820191906000526020600020905b81548152906001019060200180831161075557829003601f168201915b5050505050905060005b6000848152600260205260409020548110156108d45760008481526002602052604081208054839081106107b2576107b2611448565b90600052602060002090600302016040518060600160405290816000820180546107db9061140e565b80601f01602080910402602001604051908101604052809291908181526020018280546108079061140e565b80156108545780601f1061082957610100808354040283529160200191610854565b820191906000526020600020905b81548152906001019060200180831161083757829003601f168201915b505050918352505060018201546001600160a01b031660208083019190915260029092015460409182015282519183015190519293507fd52a6fc1a88fb3b7910f5e4cdeb0607f5b40b6e9b14be88e1218fbfa46d936c8926108b9928992889261177d565b60405180910390a150806108cc81611669565b91505061077c565b5050600301805460ff60a01b1916905550565b6109246040518060a0016040528060008152602001606081526020016060815260200160006001600160a01b031681526020016000151581525090565b600082118015610935575060005482105b6109705760405162461bcd60e51b815260206004820152600c60248201526b4944206e6f2076616c69646f60a01b604482015260640161034d565b600082815260016020818152604092839020835160a08101909452805484529182018054918401916109a19061140e565b80601f01602080910402602001604051908101604052809291908181526020018280546109cd9061140e565b8015610a1a5780601f106109ef57610100808354040283529160200191610a1a565b820191906000526020600020905b8154815290600101906020018083116109fd57829003601f168201915b50505050508152602001600282018054610a339061140e565b80601f0160208091040260200160405190810160405280929190818152602001828054610a5f9061140e565b8015610aac5780601f10610a8157610100808354040283529160200191610aac565b820191906000526020600020905b815481529060010190602001808311610a8f57829003601f168201915b5050509183525050600391909101546001600160a01b0381166020830152600160a01b900460ff16151560409091015292915050565b600354604051634553262f60e11b81526000916001600160a01b031690638aa64c5e90610b1390869060040161145e565b602060405180830381865afa158015610b30573d6000803e3d6000fd5b505050506040513d601f19601f82011682018060405250810190610b549190611478565b60035460405163fba82d1d60e01b81526004810183905291925060009182916001600160a01b03169063fba82d1d90602401600060405180830381865afa158015610ba3573d6000803e3d6000fd5b505050506040513d6000823e601f3d908101601f19168201604052610bcb9190810190611491565b60008054929450909250908180610be183611669565b909155506040805160a08101825282815260208082018981528284018890526001600160a01b038716606084015260006080840181905285815260019283905293909320825181559251939450909290820190610c3e908261157a565b5060408201516002820190610c53908261157a565b506060820151600390910180546080909301511515600160a01b026001600160a81b03199093166001600160a01b03909216919091179190911790556040517ff192804a648ce775182c942af7a07061b27f3f9e1f434fb39f8713888bbeb30990610cc5908390869086908a906117c2565b60405180910390a1505050505050565b60026020528160005260406000208181548110610cf157600080fd5b906000526020600020906003020160009150915050806000018054610d159061140e565b80601f0160208091040260200160405190810160405280929190818152602001828054610d419061140e565b8015610d8e5780601f10610d6357610100808354040283529160200191610d8e565b820191906000526020600020905b815481529060010190602001808311610d7157829003601f168201915b50505050600183015460029093015491926001600160a01b031691905083565b606060026000838152602001908152602001600020805480602002602001604051908101604052809291908181526020016000905b82821015610eca5783829060005260206000209060030201604051806060016040529081600082018054610e169061140e565b80601f0160208091040260200160405190810160405280929190818152602001828054610e429061140e565b8015610e8f5780601f10610e6457610100808354040283529160200191610e8f565b820191906000526020600020905b815481529060010190602001808311610e7257829003601f168201915b50505091835250506001828101546001600160a01b031660208084019190915260029093015460409092019190915291835292019101610de3565b505050509050919050565b5080546000825560030290600052602060002090810190610ef69190610ef9565b50565b80821115610f2f576000610f0d8282610f33565b506001810180546001600160a01b031916905560006002820155600301610ef9565b5090565b508054610f3f9061140e565b6000825580601f10610f4f575050565b601f016020900490600052602060002090810190610ef691905b80821115610f2f5760008155600101610f69565b600060208284031215610f8f57600080fd5b5035919050565b60005b83811015610fb1578181015183820152602001610f99565b50506000910152565b60008151808452610fd2816020860160208601610f96565b601f01601f19169290920160200192915050565b85815260a060208201526000610fff60a0830187610fba565b82810360408401526110118187610fba565b6001600160a01b0395909516606084015250509015156080909101529392505050565b634e487b7160e01b600052604160045260246000fd5b604051601f8201601f1916810167ffffffffffffffff8111828210171561107357611073611034565b604052919050565b600067ffffffffffffffff82111561109557611095611034565b5060051b60200190565b600067ffffffffffffffff8211156110b9576110b9611034565b50601f01601f191660200190565b600082601f8301126110d857600080fd5b81356110eb6110e68261109f565b61104a565b81815284602083860101111561110057600080fd5b816020850160208301376000918101602001919091529392505050565b600082601f83011261112e57600080fd5b8135602061113e6110e68361107b565b82815260059290921b8401810191818101908684111561115d57600080fd5b8286015b848110156111785780358352918301918301611161565b509695505050505050565b60008060006060848603121561119857600080fd5b8335925060208085013567ffffffffffffffff808211156111b857600080fd5b818701915087601f8301126111cc57600080fd5b81356111da6110e68261107b565b81815260059190911b8301840190848101908a8311156111f957600080fd5b8585015b83811015611231578035858111156112155760008081fd5b6112238d89838a01016110c7565b8452509186019186016111fd565b5096505050604087013592508083111561124a57600080fd5b50506112588682870161111d565b9150509250925092565b60208152815160208201526000602083015160a0604084015261128860c0840182610fba565b90506040840151601f198483030160608501526112a58282610fba565b91505060018060a01b0360608501511660808401526080840151151560a08401528091505092915050565b600080604083850312156112e357600080fd5b823567ffffffffffffffff808211156112fb57600080fd5b611307868387016110c7565b9350602085013591508082111561131d57600080fd5b5061132a858286016110c7565b9150509250929050565b6000806040838503121561134757600080fd5b50508035926020909101359150565b6060815260006113696060830186610fba565b6001600160a01b039490941660208301525060400152919050565b60006020808301818452808551808352604092508286019150828160051b87010184880160005b8381101561140057603f198984030185528151606081518186526113d182870182610fba565b838b01516001600160a01b0316878c0152928901519589019590955250948701949250908601906001016113ab565b509098975050505050505050565b600181811c9082168061142257607f821691505b60208210810361144257634e487b7160e01b600052602260045260246000fd5b50919050565b634e487b7160e01b600052603260045260246000fd5b6020815260006114716020830184610fba565b9392505050565b60006020828403121561148a57600080fd5b5051919050565b600080604083850312156114a457600080fd5b825167ffffffffffffffff8111156114bb57600080fd5b8301601f810185136114cc57600080fd5b80516114da6110e68261109f565b8181528660208385010111156114ef57600080fd5b611500826020830160208601610f96565b60208601519094509150506001600160a01b038116811461152057600080fd5b809150509250929050565b601f82111561157557600081815260208120601f850160051c810160208610156115525750805b601f850160051c820191505b818110156115715782815560010161155e565b5050505b505050565b815167ffffffffffffffff81111561159457611594611034565b6115a8816115a2845461140e565b8461152b565b602080601f8311600181146115dd57600084156115c55750858301515b600019600386901b1c1916600185901b178555611571565b600085815260208120601f198616915b8281101561160c578886015182559484019460019091019084016115ed565b508582101561162a5787850151600019600388901b60f8161c191681555b5050505050600190811b01905550565b634e487b7160e01b600052601160045260246000fd5b808201808211156116635761166361163a565b92915050565b60006001820161167b5761167b61163a565b5060010190565b600081518084526020808501808196508360051b8101915082860160005b858110156116ca5782840389526116b8848351610fba565b988501989350908401906001016116a0565b5091979650505050505050565b83815260006020606081840152600085546116f18161140e565b8060608701526080600180841660008114611713576001811461172d5761175b565b60ff1985168984015283151560051b89018301955061175b565b8a6000528660002060005b858110156117535781548b8201860152908301908801611738565b8a0184019650505b505050505083810360408501526117728186611682565b979650505050505050565b8481526080602082015260006117966080830186610fba565b82810360408401526117a88186610fba565b91505060018060a01b038316606083015295945050505050565b8481526080602082015260006117db6080830186610fba565b6001600160a01b038516604084015282810360608401526117728185610fba56fea26469706673582212202da855773d80f400d5ef723d48fffdb9fe7f419becb4a9958c9aa3da793731b164736f6c63430008130033",
  "immutableReferences": {},
  "source": "// SPDX-License-Identifier: MIT\r\npragma solidity ^0.8.19;\r\n\r\nimport \"./IPersonas.sol\";\r\n\r\ncontract RegistroPropiedadesHerencia {\r\n    struct Propiedad {\r\n        uint256 idPropiedad;\r\n        string descripcion;\r\n        string ciDueno;\r\n        address walletDueno;\r\n        bool enHerencia;\r\n    }\r\n\r\n    struct Distribucion {\r\n        string ciHeredero;\r\n        address walletHeredero;\r\n        uint256 porcentaje; // porcentaje de la propiedad\r\n    }\r\n\r\n    uint256 private nextPropId = 1;\r\n    mapping(uint256 => Propiedad) public propiedades;\r\n    mapping(uint256 => Distribucion[]) public herenciaPorPropiedad;\r\n\r\n    IPersonas public registroCivil;\r\n\r\n    // Eventos\r\n    event PropiedadRegistrada(uint256 idPropiedad, string ciDueno, address walletDueno, string descripcion);\r\n    event HerenciaDefinida(uint256 idPropiedad, string ciDueno, string[] herederos);\r\n    event PropiedadTransferida(uint256 idPropiedad, string ciAnterior, string ciNuevo, address walletNuevo);\r\n\r\n    constructor(address _direccionPersonas) {\r\n        require(_direccionPersonas != address(0), \"Direccion del contrato Personas invalida\");\r\n        registroCivil = IPersonas(_direccionPersonas);\r\n    }\r\n\r\n    // Registrar nueva propiedad vinculada a una persona existente\r\n    function registrarPropiedad(string memory _ciDueno, string memory _descripcion) public {\r\n        uint256 idPersona = registroCivil.obtenerIdPorCi(_ciDueno);\r\n        (string memory ci, address wallet) = registroCivil.obtenerIdentidad(idPersona);\r\n\r\n        uint256 id = nextPropId++;\r\n        propiedades[id] = Propiedad(id, _descripcion, ci, wallet, false);\r\n\r\n        emit PropiedadRegistrada(id, ci, wallet, _descripcion);\r\n    }\r\n\r\n    // Definir herederos y porcentajes de distribucin\r\n    function definirHerencia(uint256 _idPropiedad, string[] memory _ciHerederos, uint256[] memory _porcentajes) public {\r\n        Propiedad storage prop = propiedades[_idPropiedad];\r\n        require(msg.sender == prop.walletDueno, \"Solo el dueno actual puede definir la herencia\");\r\n        require(_ciHerederos.length == _porcentajes.length, \"Datos inconsistentes\");\r\n\r\n        delete herenciaPorPropiedad[_idPropiedad]; // limpiar herencia previa\r\n\r\n        uint256 total = 0;\r\n        for (uint256 i = 0; i < _ciHerederos.length; i++) {\r\n            uint256 idPersona = registroCivil.obtenerIdPorCi(_ciHerederos[i]);\r\n            (string memory ci, address wallet) = registroCivil.obtenerIdentidad(idPersona);\r\n\r\n            herenciaPorPropiedad[_idPropiedad].push(Distribucion({\r\n                ciHeredero: ci,\r\n                walletHeredero: wallet,\r\n                porcentaje: _porcentajes[i]\r\n            }));\r\n\r\n            total += _porcentajes[i];\r\n        }\r\n\r\n        require(total == 100, \"La suma de porcentajes debe ser 100\");\r\n\r\n        prop.enHerencia = true;\r\n\r\n        emit HerenciaDefinida(_idPropiedad, prop.ciDueno, _ciHerederos);\r\n    }\r\n\r\n    // Transferir propiedad segn herencia definida\r\n    function ejecutarHerencia(uint256 _idPropiedad) public {\r\n        Propiedad storage prop = propiedades[_idPropiedad];\r\n        require(prop.enHerencia, \"Herencia no definida para esta propiedad\");\r\n\r\n        string memory ciAnterior = prop.ciDueno;\r\n\r\n        // Distribuir la propiedad entre los herederos\r\n        for (uint256 i = 0; i < herenciaPorPropiedad[_idPropiedad].length; i++) {\r\n            Distribucion memory dist = herenciaPorPropiedad[_idPropiedad][i];\r\n            // En este ejemplo, simplemente emitimos evento (no fraccionamos propiedad real)\r\n            emit PropiedadTransferida(_idPropiedad, ciAnterior, dist.ciHeredero, dist.walletHeredero);\r\n        }\r\n\r\n        // Opcional: marcar propiedad como transferida\r\n        prop.enHerencia = false;\r\n    }\r\n\r\n    // Consultar propiedad\r\n    function obtenerPropiedad(uint256 _idPropiedad) public view returns (Propiedad memory) {\r\n        require(_idPropiedad > 0 && _idPropiedad < nextPropId, \"ID no valido\");\r\n        return propiedades[_idPropiedad];\r\n    }\r\n\r\n    // Consultar herencia definida\r\n    function obtenerHerencia(uint256 _idPropiedad) public view returns (Distribucion[] memory) {\r\n        return herenciaPorPropiedad[_idPropiedad];\r\n    }\r\n}\r\n",
  "sourcePath": "C:\\Users\\Cesar\\Documents\\GitHub\\RegistroDeHerencia\\BlockChain\\RegistroDeHerencia\\contracts\\Herencia.sol",
  "compiler": {
    "name": "solc",
    "version": "0.8.19+commit.7dd6d404.Emscripten.clang"
  },
  "schemaVersion": "3.4.16",
  "updatedAt": "2025-12-15T12:24:08.726Z",
  "networkType": "ethereum",
  "devdoc": {
    "kind": "dev",
    "methods": {},
    "version": 1
  },
  "userdoc": {
    "kind": "user",
    "methods": {},
    "version": 1
  }
}