{
  "contractName": "RegistroPropiedadesHerencia",
  "abi": [
    {
      "inputs": [
        {
          "internalType": "address",
          "name": "_direccionPersonas",
          "type": "address"
        }
      ],
      "stateMutability": "nonpayable",
      "type": "constructor"
    },
    {
      "anonymous": false,
      "inputs": [
        {
          "indexed": false,
          "internalType": "uint256",
          "name": "idPropiedad",
          "type": "uint256"
        },
        {
          "indexed": false,
          "internalType": "string",
          "name": "ciDueno",
          "type": "string"
        },
        {
          "indexed": false,
          "internalType": "string[]",
          "name": "herederos",
          "type": "string[]"
        }
      ],
      "name": "HerenciaDefinida",
      "type": "event"
    },
    {
      "anonymous": false,
      "inputs": [
        {
          "indexed": false,
          "internalType": "uint256",
          "name": "idPropiedad",
          "type": "uint256"
        }
      ],
      "name": "HerenciaEjecutada",
      "type": "event"
    },
    {
      "anonymous": false,
      "inputs": [
        {
          "indexed": false,
          "internalType": "uint256",
          "name": "idPropiedad",
          "type": "uint256"
        },
        {
          "indexed": false,
          "internalType": "string",
          "name": "ciDueno",
          "type": "string"
        },
        {
          "indexed": false,
          "internalType": "address",
          "name": "walletDueno",
          "type": "address"
        },
        {
          "indexed": false,
          "internalType": "string",
          "name": "descripcion",
          "type": "string"
        }
      ],
      "name": "PropiedadRegistrada",
      "type": "event"
    },
    {
      "anonymous": false,
      "inputs": [
        {
          "indexed": false,
          "internalType": "uint256",
          "name": "idPropiedad",
          "type": "uint256"
        },
        {
          "indexed": false,
          "internalType": "string",
          "name": "ciAnterior",
          "type": "string"
        },
        {
          "indexed": false,
          "internalType": "address",
          "name": "walletAnterior",
          "type": "address"
        },
        {
          "indexed": false,
          "internalType": "string",
          "name": "ciNuevo",
          "type": "string"
        },
        {
          "indexed": false,
          "internalType": "address",
          "name": "walletNuevo",
          "type": "address"
        }
      ],
      "name": "PropiedadTransferida",
      "type": "event"
    },
    {
      "inputs": [
        {
          "internalType": "uint256",
          "name": "",
          "type": "uint256"
        }
      ],
      "name": "herenciaEjecutada",
      "outputs": [
        {
          "internalType": "bool",
          "name": "",
          "type": "bool"
        }
      ],
      "stateMutability": "view",
      "type": "function",
      "constant": true
    },
    {
      "inputs": [
        {
          "internalType": "uint256",
          "name": "",
          "type": "uint256"
        },
        {
          "internalType": "uint256",
          "name": "",
          "type": "uint256"
        }
      ],
      "name": "herenciaPorPropiedad",
      "outputs": [
        {
          "internalType": "string",
          "name": "ciHeredero",
          "type": "string"
        },
        {
          "internalType": "address",
          "name": "walletHeredero",
          "type": "address"
        },
        {
          "internalType": "uint256",
          "name": "porcentaje",
          "type": "uint256"
        }
      ],
      "stateMutability": "view",
      "type": "function",
      "constant": true
    },
    {
      "inputs": [
        {
          "internalType": "uint256",
          "name": "",
          "type": "uint256"
        },
        {
          "internalType": "address",
          "name": "",
          "type": "address"
        }
      ],
      "name": "participacionesPorPropiedad",
      "outputs": [
        {
          "internalType": "uint256",
          "name": "",
          "type": "uint256"
        }
      ],
      "stateMutability": "view",
      "type": "function",
      "constant": true
    },
    {
      "inputs": [
        {
          "internalType": "uint256",
          "name": "",
          "type": "uint256"
        }
      ],
      "name": "propiedades",
      "outputs": [
        {
          "internalType": "uint256",
          "name": "idPropiedad",
          "type": "uint256"
        },
        {
          "internalType": "string",
          "name": "descripcion",
          "type": "string"
        },
        {
          "internalType": "string",
          "name": "ciDueno",
          "type": "string"
        },
        {
          "internalType": "address",
          "name": "walletDueno",
          "type": "address"
        },
        {
          "internalType": "bool",
          "name": "enHerencia",
          "type": "bool"
        },
        {
          "internalType": "bool",
          "name": "heredada",
          "type": "bool"
        }
      ],
      "stateMutability": "view",
      "type": "function",
      "constant": true
    },
    {
      "inputs": [
        {
          "internalType": "address",
          "name": "",
          "type": "address"
        },
        {
          "internalType": "uint256",
          "name": "",
          "type": "uint256"
        }
      ],
      "name": "propiedadesPorPersona",
      "outputs": [
        {
          "internalType": "uint256",
          "name": "",
          "type": "uint256"
        }
      ],
      "stateMutability": "view",
      "type": "function",
      "constant": true
    },
    {
      "inputs": [],
      "name": "registroCivil",
      "outputs": [
        {
          "internalType": "contract IPersonas",
          "name": "",
          "type": "address"
        }
      ],
      "stateMutability": "view",
      "type": "function",
      "constant": true
    },
    {
      "inputs": [
        {
          "internalType": "uint256",
          "name": "",
          "type": "uint256"
        },
        {
          "internalType": "uint256",
          "name": "",
          "type": "uint256"
        }
      ],
      "name": "walletsConParticipacion",
      "outputs": [
        {
          "internalType": "address",
          "name": "",
          "type": "address"
        }
      ],
      "stateMutability": "view",
      "type": "function",
      "constant": true
    },
    {
      "inputs": [
        {
          "internalType": "string",
          "name": "_ciDueno",
          "type": "string"
        },
        {
          "internalType": "string",
          "name": "_descripcion",
          "type": "string"
        }
      ],
      "name": "registrarPropiedad",
      "outputs": [],
      "stateMutability": "nonpayable",
      "type": "function"
    },
    {
      "inputs": [
        {
          "internalType": "uint256",
          "name": "_idPropiedad",
          "type": "uint256"
        },
        {
          "internalType": "string[]",
          "name": "_ciHerederos",
          "type": "string[]"
        },
        {
          "internalType": "uint256[]",
          "name": "_porcentajes",
          "type": "uint256[]"
        }
      ],
      "name": "definirHerencia",
      "outputs": [],
      "stateMutability": "nonpayable",
      "type": "function"
    },
    {
      "inputs": [
        {
          "internalType": "uint256",
          "name": "_idPropiedad",
          "type": "uint256"
        }
      ],
      "name": "ejecutarHerencia",
      "outputs": [],
      "stateMutability": "nonpayable",
      "type": "function"
    },
    {
      "inputs": [
        {
          "internalType": "uint256",
          "name": "_idPropiedad",
          "type": "uint256"
        }
      ],
      "name": "obtenerPropiedad",
      "outputs": [
        {
          "components": [
            {
              "internalType": "uint256",
              "name": "idPropiedad",
              "type": "uint256"
            },
            {
              "internalType": "string",
              "name": "descripcion",
              "type": "string"
            },
            {
              "internalType": "string",
              "name": "ciDueno",
              "type": "string"
            },
            {
              "internalType": "address",
              "name": "walletDueno",
              "type": "address"
            },
            {
              "internalType": "bool",
              "name": "enHerencia",
              "type": "bool"
            },
            {
              "internalType": "bool",
              "name": "heredada",
              "type": "bool"
            }
          ],
          "internalType": "struct RegistroPropiedadesHerencia.Propiedad",
          "name": "",
          "type": "tuple"
        }
      ],
      "stateMutability": "view",
      "type": "function",
      "constant": true
    },
    {
      "inputs": [
        {
          "internalType": "uint256",
          "name": "_idPropiedad",
          "type": "uint256"
        }
      ],
      "name": "obtenerHerencia",
      "outputs": [
        {
          "components": [
            {
              "internalType": "string",
              "name": "ciHeredero",
              "type": "string"
            },
            {
              "internalType": "address",
              "name": "walletHeredero",
              "type": "address"
            },
            {
              "internalType": "uint256",
              "name": "porcentaje",
              "type": "uint256"
            }
          ],
          "internalType": "struct RegistroPropiedadesHerencia.Distribucion[]",
          "name": "",
          "type": "tuple[]"
        }
      ],
      "stateMutability": "view",
      "type": "function",
      "constant": true
    },
    {
      "inputs": [
        {
          "internalType": "uint256",
          "name": "_idPropiedad",
          "type": "uint256"
        }
      ],
      "name": "obtenerParticipaciones",
      "outputs": [
        {
          "internalType": "address[]",
          "name": "wallets",
          "type": "address[]"
        },
        {
          "internalType": "uint256[]",
          "name": "porcentajes",
          "type": "uint256[]"
        }
      ],
      "stateMutability": "view",
      "type": "function",
      "constant": true
    },
    {
      "inputs": [
        {
          "internalType": "address",
          "name": "_wallet",
          "type": "address"
        }
      ],
      "name": "obtenerPropiedadesPorPersona",
      "outputs": [
        {
          "internalType": "uint256[]",
          "name": "",
          "type": "uint256[]"
        }
      ],
      "stateMutability": "view",
      "type": "function",
      "constant": true
    },
    {
      "inputs": [
        {
          "internalType": "uint256",
          "name": "_idPropiedad",
          "type": "uint256"
        },
        {
          "internalType": "address",
          "name": "_wallet",
          "type": "address"
        }
      ],
      "name": "obtenerPorcentajeDePersonaEnPropiedad",
      "outputs": [
        {
          "internalType": "uint256",
          "name": "",
          "type": "uint256"
        }
      ],
      "stateMutability": "view",
      "type": "function",
      "constant": true
    }
  ],
  "bytecode": "0x608060405260016000553480156200001657600080fd5b50604051620023f1380380620023f18339810160408190526200003991620000cb565b6001600160a01b038116620000a55760405162461bcd60e51b815260206004820152602860248201527f446972656363696f6e2064656c20636f6e747261746f20506572736f6e617320604482015267696e76616c69646160c01b606482015260840160405180910390fd5b600780546001600160a01b0319166001600160a01b0392909216919091179055620000fd565b600060208284031215620000de57600080fd5b81516001600160a01b0381168114620000f657600080fd5b9392505050565b6122e4806200010d6000396000f3fe608060405234801561001057600080fd5b50600436106100f55760003560e01c80635c3ed7d811610097578063ac9175d311610066578063ac9175d31461024e578063bda8028914610261578063dde95fea14610294578063fa763a72146102b657600080fd5b80635c3ed7d8146101dd5780635d6510501461020857806382ae011b1461021b5780638f61a8b61461022e57600080fd5b806316fc236f116100d357806316fc236f146101695780632ae256531461017e578063361f2895146101a95780635bab9bfa146101ca57600080fd5b806305601c2b146100fa5780630bb5643b14610123578063143006cd14610148575b600080fd5b61010d610108366004611890565b6102d6565b60405161011a91906118ef565b60405180910390f35b610136610131366004611902565b610342565b60405161011a9695949392919061196b565b61015b6101563660046119c0565b610499565b60405190815260200161011a565b61017c610177366004611b3f565b6104c3565b005b61015b61018c3660046119c0565b600460209081526000928352604080842090915290825290205481565b6101bc6101b7366004611902565b610ac4565b60405161011a929190611c1e565b61017c6101d8366004611902565b610c15565b6007546101f0906001600160a01b031681565b6040516001600160a01b03909116815260200161011a565b6101f0610216366004611c7e565b611091565b61015b610229366004611ca0565b6110c9565b61024161023c366004611902565b6110fa565b60405161011a9190611ccc565b61017c61025c366004611d46565b61130f565b61028461026f366004611902565b60036020526000908152604090205460ff1681565b604051901515815260200161011a565b6102a76102a2366004611c7e565b6115b0565b60405161011a93929190611daa565b6102c96102c4366004611902565b611689565b60405161011a9190611dd8565b6001600160a01b03811660009081526006602090815260409182902080548351818402810184019094528084526060939283018282801561033657602002820191906000526020600020905b815481526020019060010190808311610322575b50505050509050919050565b60016020819052600091825260409091208054918101805461036390611e62565b80601f016020809104026020016040519081016040528092919081815260200182805461038f90611e62565b80156103dc5780601f106103b1576101008083540402835291602001916103dc565b820191906000526020600020905b8154815290600101906020018083116103bf57829003601f168201915b5050505050908060020180546103f190611e62565b80601f016020809104026020016040519081016040528092919081815260200182805461041d90611e62565b801561046a5780601f1061043f5761010080835404028352916020019161046a565b820191906000526020600020905b81548152906001019060200180831161044d57829003601f168201915b505050600390930154919250506001600160a01b0381169060ff600160a01b8204811691600160a81b90041686565b60008281526004602090815260408083206001600160a01b03851684529091529020545b92915050565b6000838152600160205260408120805490910361051d5760405162461bcd60e51b815260206004820152601360248201527250726f706965646164206e6f2065786973746560681b60448201526064015b60405180910390fd5b60038101546001600160a01b031633146105905760405162461bcd60e51b815260206004820152602e60248201527f536f6c6f20656c206475656e6f2061637475616c20707565646520646566696e60448201526d6972206c6120686572656e63696160901b6064820152608401610514565b6003810154600160a81b900460ff16156105fe5760405162461bcd60e51b815260206004820152602960248201527f50726f70696564616420796120667565207472616e7366657269646120706f7260448201526820686572656e63696160b81b6064820152608401610514565b81518351146106465760405162461bcd60e51b81526020600482015260146024820152734461746f7320696e636f6e73697374656e74657360601b6044820152606401610514565b60008351116106975760405162461bcd60e51b815260206004820152601f60248201527f4465626520686162657220616c206d656e6f7320756e20686572656465726f006044820152606401610514565b60008481526002602052604081206106ae916117b0565b60008481526005602052604081206106c5916117d4565b6000805b8451811015610a0c5760075485516000916001600160a01b031690638aa64c5e908890859081106106fc576106fc611e9c565b60200260200101516040518263ffffffff1660e01b81526004016107209190611eb2565b602060405180830381865afa15801561073d573d6000803e3d6000fd5b505050506040513d601f19601f820116820180604052508101906107619190611ec5565b60075460405163fba82d1d60e01b81526004810183905291925060009182916001600160a01b03169063fba82d1d90602401600060405180830381865afa1580156107b0573d6000803e3d6000fd5b505050506040513d6000823e601f3d908101601f191682016040526107d89190810190611ede565b90925090506001600160a01b0381166108335760405162461bcd60e51b815260206004820152601a60248201527f486572656465726f2073696e2077616c6c65742076616c6964610000000000006044820152606401610514565b856002016040516108449190611f61565b60405180910390208280519060200120036108b25760405162461bcd60e51b815260206004820152602860248201527f456c206475656e6f206e6f207075656465207365722073752070726f70696f20604482015267686572656465726f60c01b6064820152608401610514565b600260008a81526020019081526020016000206040518060600160405280848152602001836001600160a01b031681526020018987815181106108f7576108f7611e9c565b602090810291909101810151909152825460018101845560009384529220815191926003020190819061092a9082612026565b5060208201516001820180546001600160a01b0319166001600160a01b03909216919091179055604090910151600290910155865187908590811061097157610971611e9c565b60209081029190910181015160008b81526004835260408082206001600160a01b038616808452908552818320939093558c8252600584528120805460018101825590825292902090910180546001600160a01b031916909117905586518790859081106109e1576109e1611e9c565b6020026020010151856109f491906120fc565b94505050508080610a049061210f565b9150506106c9565b5080606414610a695760405162461bcd60e51b815260206004820152602360248201527f4c612073756d6120646520706f7263656e74616a65732064656265207365722060448201526203130360ec1b6064820152608401610514565b60038201805460ff60a01b1916600160a01b1790556040517f107701ac85b39c63ac048f394588590b6516d13b21e38ea2a31297ef359e6c8f90610ab59087906002860190889061217d565b60405180910390a15050505050565b606080600060056000858152602001908152602001600020805480602002602001604051908101604052809291908181526020018280548015610b3057602002820191906000526020600020905b81546001600160a01b03168152600190910190602001808311610b12575b505050505090506000815167ffffffffffffffff811115610b5357610b536119f0565b604051908082528060200260200182016040528015610b7c578160200160208202803683370190505b50905060005b8251811015610c0a57600460008781526020019081526020016000206000848381518110610bb257610bb2611e9c565b60200260200101516001600160a01b03166001600160a01b0316815260200190815260200160002054828281518110610bed57610bed611e9c565b602090810291909101015280610c028161210f565b915050610b82565b509094909350915050565b60008181526001602052604081208054909103610c6a5760405162461bcd60e51b815260206004820152601360248201527250726f706965646164206e6f2065786973746560681b6044820152606401610514565b6003810154600160a01b900460ff16610cd65760405162461bcd60e51b815260206004820152602860248201527f486572656e636961206e6f20646566696e6964612070617261206573746120706044820152671c9bdc1a5959185960c21b6064820152608401610514565b60008281526003602052604090205460ff1615610d2d5760405162461bcd60e51b8152602060048201526015602482015274486572656e63696120796120656a6563757461646160581b6044820152606401610514565b60038101546001600160a01b03163314610d955760405162461bcd60e51b8152602060048201526024808201527f4e6f206175746f72697a61646f207061726120656a65637574617220686572656044820152636e63696160e01b6064820152608401610514565b6000816002018054610da690611e62565b80601f0160208091040260200160405190810160405280929190818152602001828054610dd290611e62565b8015610e1f5780601f10610df457610100808354040283529160200191610e1f565b820191906000526020600020905b815481529060010190602001808311610e0257829003601f168201915b5050505060038481018054600160a81b61ffff60a01b19821617909155600087815260209283526040808220805460ff191660011790556005845280822080548251818702810187019093528083529697506001600160a01b039093169591945092830182828015610eba57602002820191906000526020600020905b81546001600160a01b03168152600190910190602001808311610e9c575b5050505050905060005b8151811015611060576000828281518110610ee157610ee1611e9c565b6020908102919091018101516001600160a01b03811660009081526006835260408082208054600181018255908352848320018b90558a8252600290935291822080549193509084908110610f3857610f38611e9c565b9060005260206000209060030201604051806060016040529081600082018054610f6190611e62565b80601f0160208091040260200160405190810160405280929190818152602001828054610f8d90611e62565b8015610fda5780601f10610faf57610100808354040283529160200191610fda565b820191906000526020600020905b815481529060010190602001808311610fbd57829003601f168201915b505050918352505060018201546001600160a01b031660208083019190915260029092015460409182015282519183015190519293507f965f9b3ed266af4f6bf8bca28d51d598903d18d2a394d117f6114f257aad04e792611043928c928b928b929190612223565b60405180910390a1505080806110589061210f565b915050610ec4565b506040518581527f43b55f72b1f2741c34e5c9157770b431a8d91d36474aea449cffa4e9a94d6d2290602001610ab5565b600560205281600052604060002081815481106110ad57600080fd5b6000918252602090912001546001600160a01b03169150829050565b600660205281600052604060002081815481106110e557600080fd5b90600052602060002001600091509150505481565b6111406040518060c0016040528060008152602001606081526020016060815260200160006001600160a01b031681526020016000151581526020016000151581525090565b600082118015611151575060005482105b61118c5760405162461bcd60e51b815260206004820152600c60248201526b4944206e6f2076616c69646f60a01b6044820152606401610514565b600082815260016020818152604092839020835160c08101909452805484529182018054918401916111bd90611e62565b80601f01602080910402602001604051908101604052809291908181526020018280546111e990611e62565b80156112365780601f1061120b57610100808354040283529160200191611236565b820191906000526020600020905b81548152906001019060200180831161121957829003601f168201915b5050505050815260200160028201805461124f90611e62565b80601f016020809104026020016040519081016040528092919081815260200182805461127b90611e62565b80156112c85780601f1061129d576101008083540402835291602001916112c8565b820191906000526020600020905b8154815290600101906020018083116112ab57829003601f168201915b5050509183525050600391909101546001600160a01b038116602083015260ff600160a01b8204811615156040840152600160a81b90910416151560609091015292915050565b600754604051634553262f60e11b81526000916001600160a01b031690638aa64c5e90611340908690600401611eb2565b602060405180830381865afa15801561135d573d6000803e3d6000fd5b505050506040513d601f19601f820116820180604052508101906113819190611ec5565b60075460405163fba82d1d60e01b81526004810183905291925060009182916001600160a01b03169063fba82d1d90602401600060405180830381865afa1580156113d0573d6000803e3d6000fd5b505050506040513d6000823e601f3d908101601f191682016040526113f89190810190611ede565b9092509050336001600160a01b038216146114685760405162461bcd60e51b815260206004820152602a60248201527f536f6c6f20656c206475656e6f20707565646520726567697374726172207375604482015269081c1c9bdc1a5959185960b21b6064820152608401610514565b6000805481806114778361210f565b909155506040805160c08101825282815260208082018981528284018890526001600160a01b038716606084015260006080840181905260a08401819052858152600192839052939093208251815592519394509092908201906114db9082612026565b50604082015160028201906114f09082612026565b50606082015160039091018054608084015160a0909401511515600160a81b0260ff60a81b19941515600160a01b026001600160a81b03199092166001600160a01b03948516179190911793909316929092179091558216600090815260066020908152604080832080546001810182559084529190922001829055517ff192804a648ce775182c942af7a07061b27f3f9e1f434fb39f8713888bbeb309906115a0908390869086908a90612274565b60405180910390a1505050505050565b600260205281600052604060002081815481106115cc57600080fd5b9060005260206000209060030201600091509150508060000180546115f090611e62565b80601f016020809104026020016040519081016040528092919081815260200182805461161c90611e62565b80156116695780601f1061163e57610100808354040283529160200191611669565b820191906000526020600020905b81548152906001019060200180831161164c57829003601f168201915b50505050600183015460029093015491926001600160a01b031691905083565b606060026000838152602001908152602001600020805480602002602001604051908101604052809291908181526020016000905b828210156117a557838290600052602060002090600302016040518060600160405290816000820180546116f190611e62565b80601f016020809104026020016040519081016040528092919081815260200182805461171d90611e62565b801561176a5780601f1061173f5761010080835404028352916020019161176a565b820191906000526020600020905b81548152906001019060200180831161174d57829003601f168201915b50505091835250506001828101546001600160a01b0316602080840191909152600290930154604090920191909152918352920191016116be565b505050509050919050565b50805460008255600302906000526020600020908101906117d191906117f2565b50565b50805460008255906000526020600020908101906117d1919061182c565b808211156118285760006118068282611841565b506001810180546001600160a01b0319169055600060028201556003016117f2565b5090565b5b80821115611828576000815560010161182d565b50805461184d90611e62565b6000825580601f1061185d575050565b601f0160209004906000526020600020908101906117d1919061182c565b6001600160a01b03811681146117d157600080fd5b6000602082840312156118a257600080fd5b81356118ad8161187b565b9392505050565b600081518084526020808501945080840160005b838110156118e4578151875295820195908201906001016118c8565b509495945050505050565b6020815260006118ad60208301846118b4565b60006020828403121561191457600080fd5b5035919050565b60005b8381101561193657818101518382015260200161191e565b50506000910152565b6000815180845261195781602086016020860161191b565b601f01601f19169290920160200192915050565b86815260c06020820152600061198460c083018861193f565b8281036040840152611996818861193f565b6001600160a01b0396909616606084015250509115156080830152151560a0909101529392505050565b600080604083850312156119d357600080fd5b8235915060208301356119e58161187b565b809150509250929050565b634e487b7160e01b600052604160045260246000fd5b604051601f8201601f1916810167ffffffffffffffff81118282101715611a2f57611a2f6119f0565b604052919050565b600067ffffffffffffffff821115611a5157611a516119f0565b5060051b60200190565b600067ffffffffffffffff821115611a7557611a756119f0565b50601f01601f191660200190565b600082601f830112611a9457600080fd5b8135611aa7611aa282611a5b565b611a06565b818152846020838601011115611abc57600080fd5b816020850160208301376000918101602001919091529392505050565b600082601f830112611aea57600080fd5b81356020611afa611aa283611a37565b82815260059290921b84018101918181019086841115611b1957600080fd5b8286015b84811015611b345780358352918301918301611b1d565b509695505050505050565b600080600060608486031215611b5457600080fd5b8335925060208085013567ffffffffffffffff80821115611b7457600080fd5b818701915087601f830112611b8857600080fd5b8135611b96611aa282611a37565b81815260059190911b8301840190848101908a831115611bb557600080fd5b8585015b83811015611bed57803585811115611bd15760008081fd5b611bdf8d89838a0101611a83565b845250918601918601611bb9565b50965050506040870135925080831115611c0657600080fd5b5050611c1486828701611ad9565b9150509250925092565b604080825283519082018190526000906020906060840190828701845b82811015611c605781516001600160a01b031684529284019290840190600101611c3b565b50505083810382850152611c7481866118b4565b9695505050505050565b60008060408385031215611c9157600080fd5b50508035926020909101359150565b60008060408385031215611cb357600080fd5b8235611cbe8161187b565b946020939093013593505050565b60208152815160208201526000602083015160c06040840152611cf260e084018261193f565b90506040840151601f19848303016060850152611d0f828261193f565b91505060018060a01b0360608501511660808401526080840151151560a084015260a0840151151560c08401528091505092915050565b60008060408385031215611d5957600080fd5b823567ffffffffffffffff80821115611d7157600080fd5b611d7d86838701611a83565b93506020850135915080821115611d9357600080fd5b50611da085828601611a83565b9150509250929050565b606081526000611dbd606083018661193f565b6001600160a01b039490941660208301525060400152919050565b60006020808301818452808551808352604092508286019150828160051b87010184880160005b83811015611e5457603f19898403018552815160608151818652611e258287018261193f565b838b01516001600160a01b0316878c015292890151958901959095525094870194925090860190600101611dff565b509098975050505050505050565b600181811c90821680611e7657607f821691505b602082108103611e9657634e487b7160e01b600052602260045260246000fd5b50919050565b634e487b7160e01b600052603260045260246000fd5b6020815260006118ad602083018461193f565b600060208284031215611ed757600080fd5b5051919050565b60008060408385031215611ef157600080fd5b825167ffffffffffffffff811115611f0857600080fd5b8301601f81018513611f1957600080fd5b8051611f27611aa282611a5b565b818152866020838501011115611f3c57600080fd5b611f4d82602083016020860161191b565b80945050505060208301516119e58161187b565b6000808354611f6f81611e62565b60018281168015611f875760018114611f9c57611fcb565b60ff1984168752821515830287019450611fcb565b8760005260208060002060005b85811015611fc25781548a820152908401908201611fa9565b50505082870194505b50929695505050505050565b601f82111561202157600081815260208120601f850160051c81016020861015611ffe5750805b601f850160051c820191505b8181101561201d5782815560010161200a565b5050505b505050565b815167ffffffffffffffff811115612040576120406119f0565b6120548161204e8454611e62565b84611fd7565b602080601f83116001811461208957600084156120715750858301515b600019600386901b1c1916600185901b17855561201d565b600085815260208120601f198616915b828110156120b857888601518255948401946001909101908401612099565b50858210156120d65787850151600019600388901b60f8161c191681555b5050505050600190811b01905550565b634e487b7160e01b600052601160045260246000fd5b808201808211156104bd576104bd6120e6565b600060018201612121576121216120e6565b5060010190565b600081518084526020808501808196508360051b8101915082860160005b8581101561217057828403895261215e84835161193f565b98850198935090840190600101612146565b5091979650505050505050565b838152600060206060818401526000855461219781611e62565b80606087015260806001808416600081146121b957600181146121d357612201565b60ff1985168984015283151560051b890183019550612201565b8a6000528660002060005b858110156121f95781548b82018601529083019088016121de565b8a0184019650505b505050505083810360408501526122188186612128565b979650505050505050565b85815260a06020820152600061223c60a083018761193f565b6001600160a01b038681166040850152838203606085015261225e828761193f565b9250808516608085015250509695505050505050565b84815260806020820152600061228d608083018661193f565b6001600160a01b03851660408401528281036060840152612218818561193f56fea26469706673582212206144a8dbcdacbcba7f6f3ca764fc177630432c10185c60d6f0b97a29d294371864736f6c63430008130033",
  "immutableReferences": {},
  "source": "// SPDX-License-Identifier: MIT\r\npragma solidity ^0.8.19;\r\n\r\nimport \"./IPersonas.sol\";\r\n\r\ncontract RegistroPropiedadesHerencia {\r\n    struct Propiedad {\r\n        uint256 idPropiedad;\r\n        string descripcion;\r\n        string ciDueno;\r\n        address walletDueno;\r\n        bool enHerencia;\r\n        bool heredada; // indica si ya fue transferida por herencia\r\n    }\r\n\r\n    struct Distribucion {\r\n        string ciHeredero;\r\n        address walletHeredero;\r\n        uint256 porcentaje;\r\n    }\r\n\r\n    uint256 private nextPropId = 1;\r\n\r\n    // Propiedades y distribucin definida\r\n    mapping(uint256 => Propiedad) public propiedades;\r\n    mapping(uint256 => Distribucion[]) public herenciaPorPropiedad;\r\n    mapping(uint256 => bool) public herenciaEjecutada;\r\n\r\n    // NUEVO: participaciones e ndices para consultas\r\n    // porcentaje por propiedad y wallet heredera\r\n    mapping(uint256 => mapping(address => uint256)) public participacionesPorPropiedad;\r\n    // listado de wallets con participacin por propiedad (para iterar)\r\n    mapping(uint256 => address[]) public walletsConParticipacion;\r\n    // ndice de propiedades por persona (dueo o heredero)\r\n    mapping(address => uint256[]) public propiedadesPorPersona;\r\n\r\n    IPersonas public registroCivil;\r\n\r\n    // Eventos\r\n    event PropiedadRegistrada(uint256 idPropiedad, string ciDueno, address walletDueno, string descripcion);\r\n    event HerenciaDefinida(uint256 idPropiedad, string ciDueno, string[] herederos);\r\n    event PropiedadTransferida(uint256 idPropiedad, string ciAnterior, address walletAnterior, string ciNuevo, address walletNuevo);\r\n    event HerenciaEjecutada(uint256 idPropiedad);\r\n\r\n    constructor(address _direccionPersonas) {\r\n        require(_direccionPersonas != address(0), \"Direccion del contrato Personas invalida\");\r\n        registroCivil = IPersonas(_direccionPersonas);\r\n    }\r\n\r\n    // Registrar nueva propiedad (SOLO el dueo puede registrar)\r\n    function registrarPropiedad(string memory _ciDueno, string memory _descripcion) public {\r\n        uint256 idPersona = registroCivil.obtenerIdPorCi(_ciDueno);\r\n        (string memory ci, address wallet) = registroCivil.obtenerIdentidad(idPersona);\r\n\r\n        require(msg.sender == wallet, \"Solo el dueno puede registrar su propiedad\");\r\n\r\n        uint256 id = nextPropId++;\r\n        propiedades[id] = Propiedad(id, _descripcion, ci, wallet, false, false);\r\n\r\n        // Indexar la propiedad para el dueno\r\n        propiedadesPorPersona[wallet].push(id);\r\n\r\n        emit PropiedadRegistrada(id, ci, wallet, _descripcion);\r\n    }\r\n\r\n    // Definir herederos (SOLO dueno actual)\r\n    function definirHerencia(uint256 _idPropiedad, string[] memory _ciHerederos, uint256[] memory _porcentajes) public {\r\n        Propiedad storage prop = propiedades[_idPropiedad];\r\n        require(prop.idPropiedad != 0, \"Propiedad no existe\");\r\n        require(msg.sender == prop.walletDueno, \"Solo el dueno actual puede definir la herencia\");\r\n        require(!prop.heredada, \"Propiedad ya fue transferida por herencia\");\r\n        require(_ciHerederos.length == _porcentajes.length, \"Datos inconsistentes\");\r\n        require(_ciHerederos.length > 0, \"Debe haber al menos un heredero\");\r\n\r\n        // Limpiar definiciones previas\r\n        delete herenciaPorPropiedad[_idPropiedad];\r\n        delete walletsConParticipacion[_idPropiedad];\r\n\r\n        // Limpiar participaciones previas\r\n        // Nota: no podemos iterar y borrar mapping anidado sin conocer claves.\r\n        // Se sobrescribira al volver a definir. Para seguridad, dejamos en 0 al final si fuese necesario.\r\n\r\n        uint256 total = 0;\r\n        for (uint256 i = 0; i < _ciHerederos.length; i++) {\r\n            uint256 idPersona = registroCivil.obtenerIdPorCi(_ciHerederos[i]);\r\n            (string memory ci, address wallet) = registroCivil.obtenerIdentidad(idPersona);\r\n\r\n            require(wallet != address(0), \"Heredero sin wallet valida\");\r\n            require(keccak256(bytes(ci)) != keccak256(bytes(prop.ciDueno)), \"El dueno no puede ser su propio heredero\");\r\n\r\n            herenciaPorPropiedad[_idPropiedad].push(Distribucion({\r\n                ciHeredero: ci,\r\n                walletHeredero: wallet,\r\n                porcentaje: _porcentajes[i]\r\n            }));\r\n\r\n            // Guardar participacion propuesta\r\n            participacionesPorPropiedad[_idPropiedad][wallet] = _porcentajes[i];\r\n            walletsConParticipacion[_idPropiedad].push(wallet);\r\n\r\n            total += _porcentajes[i];\r\n        }\r\n\r\n        require(total == 100, \"La suma de porcentajes debe ser 100\");\r\n        prop.enHerencia = true;\r\n\r\n        emit HerenciaDefinida(_idPropiedad, prop.ciDueno, _ciHerederos);\r\n    }\r\n\r\n    // Ejecutar herencia (SOLO dueno por ahora)\r\n    function ejecutarHerencia(uint256 _idPropiedad) public {\r\n        Propiedad storage prop = propiedades[_idPropiedad];\r\n        require(prop.idPropiedad != 0, \"Propiedad no existe\");\r\n        require(prop.enHerencia, \"Herencia no definida para esta propiedad\");\r\n        require(!herenciaEjecutada[_idPropiedad], \"Herencia ya ejecutada\");\r\n        require(msg.sender == prop.walletDueno, \"No autorizado para ejecutar herencia\");\r\n\r\n        string memory ciAnterior = prop.ciDueno;\r\n        address walletAnterior = prop.walletDueno;\r\n\r\n        // Marcar estado\r\n        prop.heredada = true;\r\n        prop.enHerencia = false;\r\n        herenciaEjecutada[_idPropiedad] = true;\r\n\r\n        // Indexar la propiedad para cada heredero (si no estaba indexada)\r\n        address[] memory wlts = walletsConParticipacion[_idPropiedad];\r\n        for (uint256 i = 0; i < wlts.length; i++) {\r\n            address w = wlts[i];\r\n            // Indexar: el heredero vera esta propiedad en sus consultas\r\n            propiedadesPorPersona[w].push(_idPropiedad);\r\n\r\n            // Emitir transferencia (trazabilidad)\r\n            Distribucion memory dist = herenciaPorPropiedad[_idPropiedad][i];\r\n            emit PropiedadTransferida(_idPropiedad, ciAnterior, walletAnterior, dist.ciHeredero, dist.walletHeredero);\r\n        }\r\n\r\n        emit HerenciaEjecutada(_idPropiedad);\r\n    }\r\n\r\n    // Consultar propiedad\r\n    function obtenerPropiedad(uint256 _idPropiedad) public view returns (Propiedad memory) {\r\n        require(_idPropiedad > 0 && _idPropiedad < nextPropId, \"ID no valido\");\r\n        return propiedades[_idPropiedad];\r\n    }\r\n\r\n    // Consultar herencia definida (lista detallada)\r\n    function obtenerHerencia(uint256 _idPropiedad) public view returns (Distribucion[] memory) {\r\n        return herenciaPorPropiedad[_idPropiedad];\r\n    }\r\n\r\n    // NUEVO: consultar participaciones (wallets + porcentajes) de una propiedad\r\n    function obtenerParticipaciones(uint256 _idPropiedad)\r\n        public\r\n        view\r\n        returns (address[] memory wallets, uint256[] memory porcentajes)\r\n    {\r\n        address[] memory wlts = walletsConParticipacion[_idPropiedad];\r\n        uint256[] memory perc = new uint256[](wlts.length);\r\n        for (uint256 i = 0; i < wlts.length; i++) {\r\n            perc[i] = participacionesPorPropiedad[_idPropiedad][wlts[i]];\r\n        }\r\n        return (wlts, perc);\r\n    }\r\n\r\n    // NUEVO: propiedades en las que participa una persona (como dueno o heredero)\r\n    function obtenerPropiedadesPorPersona(address _wallet) public view returns (uint256[] memory) {\r\n        return propiedadesPorPersona[_wallet];\r\n    }\r\n\r\n    // NUEVO: porcentaje de una persona en una propiedad concreta\r\n    function obtenerPorcentajeDePersonaEnPropiedad(uint256 _idPropiedad, address _wallet) public view returns (uint256) {\r\n        return participacionesPorPropiedad[_idPropiedad][_wallet];\r\n    }\r\n}\r\n",
  "sourcePath": "C:\\Users\\Usuario\\Desktop\\RegistroDeHerencia\\RegistroDeHerencia\\BlockChain\\RegistroDeHerencia\\contracts\\Herencia.sol",
  "compiler": {
    "name": "solc",
    "version": "0.8.19+commit.7dd6d404.Emscripten.clang"
  },
  "schemaVersion": "3.4.16",
  "updatedAt": "2025-12-16T02:52:42.451Z",
  "networkType": "ethereum",
  "devdoc": {
    "kind": "dev",
    "methods": {},
    "version": 1
  },
  "userdoc": {
    "kind": "user",
    "methods": {},
    "version": 1
  }
}